:020000040800F2
:10000000F804002045010008270A00081F0A00081C
:10001000230A0008D5080008530F0008000000005C
:10002000000000000000000000000000A50B000818
:10003000D908000800000000AD0A0008B90C00084B
:100040005F0100085F0100085F0100085F01000810
:100050005F0100085F0100085F0100085F01000800
:100060005F0100085F0100085F0100085F010008F0
:100070005F0100085F0100085F0100085F010008E0
:100080005F0100085F0100085F0100085F010008D0
:100090005F0100085F0100085F0100085F010008C0
:1000A0005F0100085F0100085F0100085F010008B0
:1000B0005F0100085F0100085F0100085F010008A0
:1000C0005F0100085F0100085F0100085F01000890
:1000D0005F0100081D0D0008810D0008830D000858
:1000E0005F0100085F0100085F0100085F01000870
:1000F0005F0100085F0100085F0100085F01000860
:100100005F0100085F0100085F0100085F0100084F
:100110005F0100085F0100085F0100085F0100083F
:100120005F0100085F0100085F0100085F0100082F
:10013000DFF80CD000F0ACFB00480047AD19000818
:10014000F80400200648804706480047FEE7FEE71F
:10015000FEE7FEE7FEE7FEE7FEE7FEE7FEE7FEE777
:10016000BD0C00083101000840EA01039B0703D0E1
:1001700009E008C9121F08C0042AFAD203E011F8E6
:10018000013B00F8013B521EF9D27047D2B201E0A8
:1001900000F8012B491EFBD270470022F6E710B58C
:1001A00013460A4604461946FFF7F0FF204610BDE5
:1001B000421C10F8011B0029FBD1801A7047F0B4D3
:1001C00080EA0102D40F4200B2EB410F02D2024694
:1001D000084611464A0042D0C30DDDB2C1F3C752F2
:1001E000AD1A202D35DAC1F3160141F4000204B135
:1001F0005242C5F1200602FA06F12A411044B3EB3F
:10020000D05F23D0C4B1012DA0EBC35009DCF0BCFA
:100210004FF0004202EAC352DBB200F5000000F0EA
:100220009AB9400000F1807000EBC350A0F18070DB
:1002300040EAD170490009E0490841EAC071A0EBE9
:10024000C35000F50000400800EBC350F0BC00F0C4
:1002500079B96142012202EB4101001BF6E7F0BCD3
:10026000704781F00041AAE780F00040A7E72DE940
:10027000FE4F804681EA0300C00F0C46009021F03B
:10028000004123F00045B8EB0200A94105D24046E9
:10029000214690461C460B46024623F00040104380
:1002A00047D0270DC7F30A00C3F30A510290401A42
:1002B000019040286BDAC3F3130040F4801B0098D0
:1002C000924620B10023D2EB030A63EB0B0B01989B
:1002D0005946C0F14002504600F013F906460D465B
:1002E00050465946019A00F01BF910EB0800614195
:1002F000002487EA115284EAE7731A4340D0009A37
:1003000062B3019A012A4FEA075215DC001B61EB28
:1003100002014FF0004202EA0752CDE90042001C00
:1003200041F5801132462B4600F052F903B0BDE88A
:10033000F08F40462146F9E7001B61EB0201001CEB
:1003400041F5801300185B412018A2F5001747EB18
:10035000030140EAD570B6196D4111E06D084FEA0E
:10036000360645EAC0754FEA0752001B61EB0201F1
:10037000001C41F5801149084FEA30000019514135
:1003800032462B4603B0BDE8F04F00F012B900989A
:10039000012240000023D0EB020263EBE0730098DF
:1003A00021464FEAE074B8EB000061EB0401E9E795
:1003B00083F000435BE781F0004158E7C10F80EA1A
:1003C000E0700844CA079623002100F0C4B800F08A
:1003D000004220F00040C10DC0F3160040F40000C0
:1003E0007F2901DA00207047962903DCC1F19601CC
:1003F000C84001E096398840002AF4D04042704756
:1004000000F0004230F000400AD0C10D01F56071EB
:10041000C0F3160042EA0151C20840071143704779
:1004200000200146704701F0004330B421F0004144
:1004300050EA010206D00A0DA2F56072C1F3130161
:10044000002A02DC30BC00207047440F44EAC1049B
:10045000C100E01830BC00EBC25000F073B80000DF
:10046000002801DBC0F10040002901DBC1F100419F
:100470008842704730B50B460146002020220124F7
:1004800009E021FA02F59D4205D303FA02F5491B62
:1004900004FA02F52844151EA2F10102F1DC30BD78
:1004A0002DE9F05F0546002092469B4688460646A9
:1004B000814640241BE0284641464746224600F03C
:1004C000F9F953465A46C01A914110D311461846BD
:1004D000224600F016F82D1A67EB01084F46224617
:1004E0000120002100F00DF817EB00094E41201EFD
:1004F000A4F10104DFDC484631462A464346BDE804
:10050000F09F202A04DB203A00FA02F10020704715
:100510009140C2F1200320FA03F319439040704741
:10052000202A06DBCB17203A41FA02F043EAE073B7
:1005300006E041FA02F3D040C2F1200291400843A4
:10054000194670470029A8BF7047401C490008BFE2
:1005500020F00100704710B4B0FA80FC00FA0CF0F3
:1005600050EA010404BF10BC704749B1CCF120042B
:1005700021FA04F411FA0CF118BF012121430843B8
:10058000A3EB0C01CB1D4FEA00614FEA102042BFE4
:10059000002010BC704700EBC35010440029A4BFDA
:1005A00010BC7047401C490008BF20F0010010BC7F
:1005B000704710B5141E73F1000408DA401C41F1B5
:1005C000000192185B411A4301D120F0010010BDD7
:1005D0002DE9F04D92469B4611B1B1FA81F202E04D
:1005E000B0FA80F220329046FFF78BFF04460F46A8
:1005F00040EA0A0041EA0B0153465A46084313D029
:10060000114653EA010019D0C8F14002504600F0EB
:1006100051F905460E46504659464246FFF771FFCE
:10062000084305D0012004E020463946BDE8F08D9E
:100630000020054346EAE0762C4337430A986305D9
:10064000E40AA0EB08000022FD0A44EA47540A30FD
:1006500002D500200146E9E7010510196941DDE9ED
:10066000084500196941BDE8F04DA2E72DE9FE4FAC
:1006700081EA030404F0004421F0004100944FF0AB
:10068000000B23F0004350EA01045ED052EA030459
:100690005BD0C3F30A54C1F30A552C44A4F2F334DB
:1006A0000194A0FB0254C1F3130141F48011C3F380
:1006B000130343F4801301FB024400FB034E840A3E
:1006C000970A44EA815447EA8357A4FB07680295D6
:1006D0008D0A05FB07854FEA932C04FB0C54270574
:1006E000029D4FEA065847EA1637B5EB08056EEB50
:1006F000070C870E920E47EA811742EA8312A7FB86
:100700000201B6EB0B0164EB00042B0D43EA0C3342
:100710005E1844EB1C50DA465146E7FB0201C5F374
:1007200013044FEA0B3343EA14534FEA0432019C9B
:1007300043EA0603A4F10C040294009CCDE900B442
:10074000FFF746FF03B0BDE8F08F00200146F9E750
:100750002DE9F04D81EA030404F0004B21F000453F
:1007600014464FF0000A23F0004150EA050220D061
:1007700054EA01021DD0C5F30A570246C5F313031C
:10078000C1F31300C1F30A5640F4801543F48013FB
:10079000A7EB0608101BD64608F2FD3873EB0500E0
:1007A00002D308F1010801E092185B41B8F1000F93
:1007B00003DA00200146BDE8F08D00204FF48011DF
:1007C000064684460EE0171B73EB050705D3121B84
:1007D00063EB050306434CEA010C49084FEA30007D
:1007E00092185B4150EA0107EDD152EA030012D0A2
:1007F00082EA040083EA0501084305D0101BAB41DF
:1008000006D20122002306E000224FF0004302E05E
:100810006FF0010253101AEB06004CEB085110EB7D
:100820000A0041EB0B01BDE8F04DFFF7C2BEC1F37A
:100830000A52C1F3130140F2FF3341F480119A428E
:1008400002DA00200146704740F233439A42A2F296
:10085000334202DC524200F02DB8FFF752BE0000D6
:1008600030B5041E71F1000404DB4FF00044404237
:1008700064EB0101141E73F1000405DB1C464FF00C
:100880000043524263EB0403994208BF904230BDDB
:10089000064C074D06E0E06840F0010394E80700CD
:1008A00098471034AC42F6D3FFF746FC901F00087F
:1008B000B01F0008202A04DB203A21FA02F00021B0
:1008C000704721FA02F3D040C2F120029140084360
:1008D0001946704700BFFEE7704742F228314FF0DB
:1008E000E02251610021916107E000BF4FF0E0215B
:1008F000096901F480310029F8D0011EA0F101003E
:10090000F3D170472DE9F041024600250026002072
:1009100000230024002791F803C00CF00F0591F884
:1009200003C00CF0100CBCF1000F03D091F802C012
:100930004CEA050591F800C0BCF1000F31D01468F5
:1009400000202BE04FF0010C0CFA00F3B1F800C0CE
:100950000CEA03069E4220D183004FF00F0C0CFAE4
:1009600003F7BC4305FA03FC4CEA040491F803C006
:10097000BCF1280F06D14FF0010C0CFA00FCC2F8B4
:1009800014C00AE091F803C0BCF1480F05D14FF044
:10099000010C0CFA00FCC2F810C0401C0828D1D38E
:1009A0001460B1F800C0BCF1FF0F34DD54680020C2
:1009B0002EE000F1080C4FF0010808FA0CF3B1F832
:1009C00000C00CEA03069E4221D183004FF00F0CB9
:1009D0000CFA03F7BC4305FA03FC4CEA040491F853
:1009E00003C0BCF1280F05D100F1080C08FA0CF87F
:1009F000C2F8148091F803C0BCF1480F07D100F190
:100A0000080C4FF0010808FA0CF8C2F81080401CDE
:100A10000828CED35460BDE8F0814161704700BF23
:100A2000FEE700BFFEE7704770B5002100230F22EC
:100A3000C47804B3154C246804F4E064C4F5E0649D
:100A4000210AC1F10403CA40447804FA03F184780E
:100A50001440214309010E4C0678A155047804F096
:100A60001F050124AC4005786D11AD0005F1E025AE
:100A7000C5F8004109E0047804F01F050124AC40EA
:100A8000044D0678761145F8264070BD0CED00E067
:100A900000E400E080E100E002490143024A116005
:100AA000704700000000FA050CED00E07047000000
:100AB00029B1064A92690243044B9A6104E0034A51
:100AC00092698243014B9A61704700000010024016
:100AD00030B500210022002400232D4D6D6805F063
:100AE0000C0121B1042905D0082923D105E0294DA5
:100AF000056022E0274D05601FE0254D6D6805F477
:100B00007012234D6D6805F48034022505EB924286
:100B10001CB9214D554305600BE01D4D6D6805F472
:100B200000351DB11C4D5543056002E0194D55437C
:100B3000056002E0174D056000BF00BF144D6D68F1
:100B400005F0F0010909154D6B5C0568DD40456055
:100B50000F4D6D6805F4E061090A104D6B5C456846
:100B6000DD4085600A4D6D6805F46051C90A0B4D82
:100B70006B5C4568DD40C560054D6D6805F440411E
:100B8000890B074D6B5CC568B5FBF3F5056130BD9E
:100B90000010024000127A0000093D00040000200D
:100BA00014000020704710B500F002F810BD0000DE
:100BB0000CB50020019000903348006840F480306C
:100BC0003149086000BF3048006800F400300090F0
:100BD0000198401C0190009818B90198B0F5A06FD9
:100BE000F1D12948006800F4003010B101200090D4
:100BF00001E0002000900098012843D123480068BC
:100C000040F01000214908600846006820F0030009
:100C100008600846006840F0020008601A48406812
:100C2000194948600846406848600846406840F4F2
:100C3000806048600846406820F47C1048600846A0
:100C4000406840F4E81048600846006840F0807052
:100C5000086000BF0C48006800F000700028F9D060
:100C60000948406820F0030007494860084640688A
:100C700040F00200486000BF0348406800F00C00EC
:100C80000828F9D10CBD00000010024000200240ED
:100C9000042808D14FF0E021096941F004014FF028
:100CA000E022116107E04FF0E021096921F0040121
:100CB0004FF0E022116170477047000010B51348F3
:100CC000006840F00100114908600846406810497A
:100CD00008400E494860084600680E4908400B4924
:100CE00008600846006820F48020086008464068D4
:100CF00020F4FE0048604FF41F008860FFF753FFA8
:100D00004FF000600449086010BD00000010024070
:100D10000000FFF8FFFFF6FE08ED00E000B599B017
:100D200040F22551144800F04FF890B1124800F0FD
:100D300007F9C1B2114802780078401C0F4B1870B7
:100D40000DF8021018460078642802DB00201946CE
:100D5000087040F22441084800F036F850B10648C7
:100D600000F0EEF805480178684600F0C3FF002067
:100D70000249087019B000BD003801400000002091
:100D80007047704701F40072B2F5007F00D100BFD8
:100D9000CA430280704721B1828942F400528281A5
:100DA00004E082894DF6FF731A4082817047024643
:100DB0000020B1F5007F00D100BF13880B400BB1BC
:100DC000012000E00020704770B502460024002397
:100DD0000025002040F66A16B14200D100BFC1F3E1
:100DE000421501F01F03012606FA03F3012D02D17B
:100DF0009689334006E0022D02D1168A334001E085
:100E0000968A33400C12012606FA04F41688344000
:100E100013B10CB1012000E0002070BDF0B5034615
:100E2000002400260025002040F66A17B94200D1B0
:100E300000BF1846C1F3421401F01F06012707FA4C
:100E400006F5012C01D10C3004E0022C01D1103048
:100E500000E014301AB107682F43076002E007680A
:100E6000AF430760F0BD00002DE9F04786B00546AE
:100E70000E460024A24600BFA1460027B08900B15B
:100E800000BF2F462C8A4CF6FF700440F0880443C4
:100E90002C82AC894EF6F3100440B08831890843A7
:100EA000718908430443AC81AC8A4FF6FF4004408B
:100EB000B0890443AC8201A8FFF70AFE1F488742AD
:100EC00002D1DDF810A001E0DDF80CA0A88900F443
:100ED000004040B10AEBCA0000EB0A10316849003B
:100EE000B0FBF1F807E00AEBCA0000EB0A1031682A
:100EF0008900B0FBF1F86420B8FBF0F00401200990
:100F0000642101FB1089A88900F4004040B132201F
:100F100000EBC900B0FBF1F000F00700044308E06B
:100F2000322000EB09106421B0FBF1F000F00F005B
:100F300004432C8106B0BDE8F08700000038014072
:100F400001468888C0F308007047C1F30802828018
:100F5000704700BFFEE700000FB4084B10B504A9AE
:100F600002AA039800F0DEF8044602A9002000F06F
:100F700070FC204610BC5DF814FB000053180008FC
:100F800002E008C8121F08C1002AFAD17047704752
:100F9000002001E001C1121F002AFBD170470000B0
:100FA0002DE9FF5F82B00021DDE90430020DDDF89C
:100FB00040B0034318D044F61050A2F2FF3242432F
:100FC0001514119801281FD0A5EB0B00401C5FEAF7
:100FD000000A4FF000064E4FDFF83891B0465046F9
:100FE00015D5CAF1000413E0119801244AA3012881
:100FF00001D16FEA0B010298119AC0E90031C0E9F2
:10100000024206B0BDE8F09FCBF10000DFE70446E6
:101010000021404A491842EB0450CDE9001012E08B
:10102000E00707D032463B4640464946FFF71EFBE5
:101030008046894632463B4610461946FFF716FB66
:1010400006460F466410002CEAD1DDE90401DDE913
:101050000023BAF1000F06DAFFF708FB42464B46C1
:10106000FFF704FB05E0FFF773FB42464B46FFF733
:101070006FFB04460E460022284BFFF7F1FB03D816
:101080004FF0FF30014607E00022254B2046314655
:10109000FFF7EDF8FFF7CBFB102409E0002C0ADB8B
:1010A0000A220023FFF7FCF9039B30321A55641E15
:1010B00050EA0102F2D1641C039AC4F111031444F2
:1010C000119A012A03D0012208430DD10AE00843F6
:1010D00004D000204FF0110B119072E7A3EB0B0529
:1010E0006D1E0DE05B4504DD4FF0000205F10105CA
:1010F00004E003DA4FF00002A5F10105002AECD06C
:1011000002981199C0E90231C0E9004579E7000071
:10111000000014400000F03F300000000000F043E9
:101120000000E03F2DE9FF4F95B09B4689460646FB
:1011300000250FE2252877D100242746F84A01210F
:10114000059400E0044316F8013F203B01FA03F048
:101150001042F7D130782A2811D06FF02F03307861
:10116000A0F13002092A16D8059A44F0020402EBD5
:10117000820203EB42021044761C0590EFE759F817
:10118000042B0592002A03DA504244F400540590DF
:1011900044F00204761C30782E2816D116F8010F80
:1011A00044F004042A280DD06FF02F023078A0F10B
:1011B0003003092B09D807EB870302EB4303C71859
:1011C000761CF3E759F8047B761C30786C280FD036
:1011D00006DC4C2817D068280DD06A2814D104E00A
:1011E000742810D07A280FD10DE044F400140AE0DE
:1011F00044F4801401E044F440147278824202D135
:1012000004F58014761C761C307866280BD013DC2D
:10121000582877D009DC002875D04528F6D0462814
:10122000F4D047281AD19DE118E0632835D064280E
:1012300079D0652812D195E1702873D008DC672831
:10124000F1D069286FD06E280DD06F2806D1B5E097
:1012500073282CD0752875D0782874D05A461799E1
:1012600090476D1C75E1C4F30250022809D0032891
:101270000DD0D9F8001004280DD00D6009F1040933
:1012800067E1D9F80010EA17C1E90052F6E7D9F88A
:1012900000100D80F2E70D70F0E719F8041B8DF8CF
:1012A000001000208DF80100EA46012003E059F803
:1012B00004AB4FF0FF3061074FF0000102D40DE0A6
:1012C00008F101018846B9420FDA8045F8DB1AF8C7
:1012D00008100029F4D108E008F101018846814294
:1012E000FADB1AF808100029F6D105985B46A0EB46
:1012F000080721463846179A00F094FA284400EB74
:10130000080507E04DE029E10DE01AF8010B5A4607
:1013100017999047B8F10108F7D25B462146384645
:10132000179A13E142E00A220092C4F302524FF0EE
:10133000000A022A08D059F804CB032A4FEAEC71BC
:101340000AD00DE029E02AE009F1070121F00702A7
:10135000F2E802C1914609E00FFA8CFC4FEAEC7109
:10136000042A03D14FFA8CFC4FEAEC71002907DA0A
:101370000A460021DCF1000C61EB02012D2202E0A3
:10138000220504D52B228DF80420012203E0E20778
:1013900001D02022F7E7904659E00A2102E010220E
:1013A0000DE010214FF0000A00910BE010224FF0E9
:1013B000000A44F004040827009203E008224FF0DA
:1013C000000A0092C4F30252022A05D059F804CB55
:1013D0000021032A08D009E009F1070121F00702E2
:1013E000F2E802C1914605E01FFA8CFC042A01D103
:1013F0000CF0FF0C4FF00008220728D5702806D00B
:10140000009B83F0100353EA0A0305D00EE040224C
:101410008DF80420012208E05CEA010206D03022A7
:101420008DF804208DF8050002229046009B83F081
:10143000080353EA0A030AD15CEA010201D16207F8
:1014400005D530228DF804204FF001087F1E582862
:1014500004D034A003900EA802900DE036A0F9E766
:1014600053466046009AFFF71BF884460398825C57
:101470000298401E029002705CEA0100F0D10298CE
:1014800006A9081A00F1200A600702D524F4803466
:1014900000E00127574502DDA7EB0A0000E000202D
:1014A00000EB0A01009005984144401A0590E003C2
:1014B00006D45B462146179A059800F0B3F9054417
:1014C000002706E001A85A46C05D179990476D1C99
:1014D0007F1C4745F6DBE0030CD55B462146179A97
:1014E000059800F09FF9054404E030205A4617990A
:1014F00090476D1C0099481E00900029F5DC08E01B
:10150000029802995A460078491C0291179990470F
:101510006D1CBAF10001AAF1010AF1DC65E10000DD
:1015200009280100303132333435363738396162B9
:10153000636465660000000030313233343536377D
:1015400038394142434445460000000000F058F954
:101550000544761C307800287FF4ECAD19B028469D
:10156000BDE8F08F620700D4062709F1070222F0D8
:10157000070CFCE80223E14603F000485FEA080C90
:1015800002D00FF2702C0DE05FEA045C02D50FF27E
:10159000682C07E05FEAC47C02D00FF2602C01E007
:1015A000AFF2700C4FF0FF3823F00043CDF850C07D
:1015B00065280CD006DC452809D046281DD04728D0
:1015C0003DD13DE0662818D067287ED138E0002163
:1015D000112F01DB112000E0781CCDE9000106A9E4
:1015E0000EA8FFF7DDFCDDE90F010E9A0391002143
:1015F000009207F1010A04914DE04FF0004000977E
:10160000CDE9011006A90EA8FFF7CAFCDDE90F021B
:1016100003920E9B11990022DDF80CA00093049216
:1016200011B9791C00EB010AB7EB0A0004D4C0F130
:10163000FF3007F1010A0490AAEB0700019044E093
:10164000012F00DA01270021112F01DD112000E018
:101650003846CDE9000106A90EA8FFF7A1FCDDE997
:101660000F010E9A0391002104910092BA462107BE
:101670000CD40399514500DA8A46BAF1010F05DD11
:10168000009AAAF10101515C302908D0B84202DA6F
:1016900010F1040F06DA0121CDE9011015E0AAF1DD
:1016A0000101E9E7002805DC049901440491AAEB53
:1016B000000102E0411C514500DD8A460499401AB0
:1016C000401C01904FF000400290200704D4019884
:1016D000504501DBCDF8048000208DF84F000298C2
:1016E0000DF14F07B0F1004F25D02B200E9002983E
:1016F0004FF0020800280CDA404202902D200E9094
:1017000007E00A210298FEF7B5FE3031029007F893
:10171000011DB8F10001A8F10108F2DC02980028CF
:10172000EFD1791E0E980870307800F0200040F05C
:10173000450007F8020D12A8C01B00F10708149815
:10174000007800B1012000EB0A01019801EBE07183
:1017500005984144401A401E0590E00306D45B46BC
:101760002146179A059800F05DF805441498007812
:1017700018B15A46179990476D1CE00324D55B4673
:101780002146179A059800F04DF805441CE004988E
:10179000002807DBDDE90301884203DD0098405C97
:1017A000179901E0179930205A469047049805F19F
:1017B0000105401C04900198401E019004D12E2088
:1017C0005A46179990476D1CBAF10001AAF1010A17
:1017D000DDDC05E017F8010B5A46179990476D1CA0
:1017E000B8F10001A8F10108F4DC5B462146179A24
:1017F0000598ABE62D0000002B0000002000000043
:101800002DE9F041044600251E461746880404D4FD
:1018100005E039462020B0476D1C641EF9D52846E6
:10182000BDE8F0812DE9F041044600251E469046B2
:10183000C80301D5302700E02027880404D505E03F
:1018400041463846B0476D1C641EF9D52846BDE8B0
:10185000F0810A68531C0B6010707047014600202D
:1018600019E04FF0FF3200EB400303EB001301EBF4
:1018700043035A80002200EB400303EB001321F8DE
:101880001320FF2200EB400303EB001301EB4303A3
:101890001A71421CD0B20528E3DB704708B501215C
:1018A0001020FFF705F94FF40050ADF800001020AC
:1018B0008DF8030003208DF8020069460448FFF705
:1018C00021F84FF400510248FFF7A7F808BD0000C7
:1018D0000010014010B504462046FFF7DDF8012353
:1018E0001A460021252000F0D1FA10BD10B56FF086
:1018F0000400FFF7CDF94FF0E020006940F002004E
:101900004FF0E02108610846006940F001000861DD
:101910000920486110BD000000B585B0012144F2E6
:101920000400FFF7C5F84FF40070ADF81000182060
:101930008DF8130003208DF8120004A91948FEF752
:10194000E1FF4FF48060ADF8100004208DF8130023
:1019500004A91448FEF7D6FF4FF4E13000900020B0
:10196000ADF80400ADF80600ADF80800ADF80C00C5
:101970000C20ADF80A0069460B48FFF775FA012103
:101980000948FFF708FA012240F225510648FFF7FF
:1019900045FA012240F224410348FFF73FFA05B01F
:1019A00000BD000000080140003801408AB000205E
:1019B00009900890FFF79AFF4FF4A060FFF78AFFA5
:1019C000FFF7AAFFFFF76AFF9C48FFF747FF33E1E5
:1019D000042309AA002140F2E93000F0B7FA64209C
:1019E000FEF77BFF042309AA012140F2E93000F051
:1019F000ADFA6420FEF771FF042309AA002140F22A
:101A0000EB3000F0A3FA6420FEF767FF042309AA75
:101A1000012140F2EB3000F099FA6420FEF75DFFFF
:101A2000042309AA002140F2EA3000F08FFA642072
:101A3000FEF753FF042309AA012140F2EA3000F027
:101A400085FA6420FEF749FF042309AA002140F229
:101A5000ED3000F07BFA6420FEF73FFF042309AA73
:101A6000002140F2EF3000F071FA6420FEF735FFFC
:101A70000998FEF7ACFC0A2190FBF1F42046FEF732
:101A80009DFC0790042307AA002140F2EE3000F0ED
:101A90005DFA6420FEF721FF0998FEF798FC0A2101
:101AA00090FBF1F201FB12042046FEF787FC079041
:101AB000042307AA012140F2EE3000F047FA642027
:101AC000FEF70BFF042309AA002140F2F23000F0D8
:101AD0003DFA6420FEF701FF042308AA012140F229
:101AE000F23000F033FA6420FEF7F7FE0998FEF7B3
:101AF00087FC06460022524BFEF7B9FB0446FEF770
:101B000092FC0790142102A8FEF747FB0798FEF706
:101B100077FC044622460B464AA102A8FFF71CFAAE
:101B200002A8FEF745FB84B2234602AA022140F236
:101B3000F33000F00BFA6420FEF7CFFE0898FEF7B2
:101B40005FFC06464FF06632404BFEF790FB0446C2
:101B5000FEF769FC0790142102A8FEF71EFB079808
:101B6000FEF74EFC044622460B4639A102A8FFF7B9
:101B7000F3F902A8FEF71CFB84B2234602AA032154
:101B800040F2F33000F0E2F96420FEF7A6FE099877
:101B9000FEF71DFC052190FBF1F201FB120420462B
:101BA000FEF70CFC0790042307AA00214FF47C7079
:101BB00000F0CCF96420FEF790FE042307AA01216F
:101BC0004FF47C7000F0C2F96420FEF786FE09989D
:101BD00000900898019008236A46002140F2F130F5
:101BE00000F0B4F96420FEF778FE08236A4601216C
:101BF00040F2F13000F0AAF96420FEF76EFE4FF4D7
:101C00007A70FEF76AFE14490998FEF7D8FA09902F
:101C100011490898FEF7D3FA089010490998FEF781
:101C20001FFC01D8002009900C490898FEF718FC09
:101C300001D80020089000BFCAE60000180000206C
:101C40000000E03F583A25302E3266006666E63FD7
:101C5000593A25302E326600000040400000C8424C
:101C60002DE9F04F0646DDE90A9CDDE90D48099FA4
:101C70000C9D05F111001E2801DDBDE8F08F45F631
:101C8000582020801020A070A4F80360A4F805104C
:101C9000A4F80720A4F80930A4F80B70A4F80D509C
:101CA000002009E01CF800E004F10F0B0BF800E045
:101CB00000F1010B0BF0FF00A842F3DB4FF0000A2C
:101CC000002008E014F800B0D3440BF0FF0A00F144
:101CD000010B0BF0FF0005F10F0B8345F2DC04F163
:101CE0000F0000F805A005F11000A8F8000000BFE3
:101CF000C3E70000F0B595B006460F46002501A8E1
:101D000002AB3A46314600900AA800F0D0F800280D
:101D10007ED100247FE004EB440000EB0410424934
:101D200001EB4000B0F90200BDF93010884230D11B
:101D3000BDF8300004EB440101EB04113A4A02EB18
:101D400041014880BDF8320004EB440101EB04116D
:101D500022F811009DF8340004EB440101EB04115A
:101D600002EB41010871BDF8040004EB440101EBF2
:101D7000041102EB4101888404EB440101EB0411DE
:101D800002EB4101481DBDF8042002A9FEF7ECF961
:101D900044E004EB440000EB0410234901EB400055
:101DA000B0F90200401C00B92546042C2FD1BDF823
:101DB000300005EB450101EB05111B4A02EB410127
:101DC0004880BDF8320005EB450101EB051122F812
:101DD00011009DF8340005EB450101EB051102EB04
:101DE00041010871BDF8040005EB450101EB051147
:101DF00002EB4101888405EB450101EB051102EB83
:101E00004101481DBDF8042002A9FEF7ADF900E02C
:101E100005E0601CC4B2052CFFF67DAF01E015B0F3
:101E2000F0BD00BFFBE700001800002070B50446BD
:101E30000D462946204600F019F870BD70B50446DD
:101E40000D4640212046FEF79DFF29462046FFF71C
:101E50007CF800BF40212046FEF7A9FF0028F9D0FA
:101E600040212046FEF78EFF70BD000070B505468C
:101E70000E46002405E0295D0348FFF7DFFF601CE4
:101E800084B2B442F7DB70BD00380140F8B50446B7
:101E90000D4616461F468DF800408DF801508DF80E
:101EA00002608DF803706846FEF7BEFDF8BDF0B520
:101EB00004461D46059E088845F65827B84201D0BD
:101EC000FF20F0BDA2F11107C889874201DDFF2084
:101ED000F7E70023002004E00F5C1F44FBB2471C1F
:101EE000F8B2571E8742F7DC501E085C984201D0BA
:101EF000FF20E6E78878102826D1A2F110001E28DE
:101F000001DDFF20DDE7B1F803006080B1F80500D6
:101F1000A080B1F80700E080B1F8090000B220818C
:101F2000B1F80B006081487B40B22073C8893080D3
:101F3000002005E000F11007CF5D2F54471CF8B2D8
:101F4000A2F110078742F5DC0020BAE7F0B587B0B0
:101F500004460D4616461F460B480C49CDE902675C
:101F6000CDE904104FF0FF30234600221146CDE9A1
:101F700000501046FFF774FE0348008881B2034802
:101F8000FFF754FF07B0F0BD02000020D60000208C
:101F9000B01F00080000002018000000800F00089B
:101FA000C81F000818000020E0040000900F00087F
:101FB000000000000000000001020304010203040D
:081FC0000607080902040608E7
:0400000508000131BD
:00000001FF
