Component: ARM Compiler 5.06 update 5 (build 528) Tool: armlink [4d35e2]

==============================================================================

Section Cross References

    main.o(i.main) refers to delay.o(i.initSysTick) for initSysTick
    main.o(i.main) refers to nvic.o(i.initNVIC) for initNVIC
    main.o(i.main) refers to uart.o(i.initUART) for initUART
    main.o(i.main) refers to led.o(i.initLED) for initLED
    main.o(i.main) refers to canvas.o(i.initCanvas) for initCanvas
    main.o(i.main) refers to canvas.o(i.updateCanvas) for updateCanvas
    main.o(i.main) refers to delay.o(i.Delay_ms) for Delay_ms
    main.o(i.main) refers to ffixi.o(.text) for __aeabi_f2iz
    main.o(i.main) refers to fflti.o(.text) for __aeabi_i2f
    main.o(i.main) refers to f2d.o(.text) for __aeabi_f2d
    main.o(i.main) refers to dadd.o(.text) for __aeabi_dadd
    main.o(i.main) refers to d2f.o(.text) for __aeabi_d2f
    main.o(i.main) refers to memseta.o(.text) for __aeabi_memclr4
    main.o(i.main) refers to printfa.o(i.__0sprintf) for __2sprintf
    main.o(i.main) refers to strlen.o(.text) for strlen
    main.o(i.main) refers to fadd.o(.text) for __aeabi_fadd
    main.o(i.main) refers to cfrcmple.o(.text) for __aeabi_cfrcmple
    main.o(i.main) refers to canvas.o(.bss) for events
==============================================================================

Removing Unused input sections from the image.

    Removing delay.o(i.Delay_us), (32 bytes).
    Removing led.o(i.blinkLED), (60 bytes).
    Removing led.o(i.closeLED), (20 bytes).
    Removing led.o(i.openLED), (20 bytes).
    Removing led.o(i.toggleLED), (20 bytes).
    Removing dht11.o(i.initDHT11), (64 bytes).
    Removing dht11.o(i.readByte), (120 bytes).
    Removing dht11.o(i.readDHT11), (196 bytes).
    Removing dht11.o(i.setLineIn), (32 bytes).
    Removing dht11.o(i.setLineOut), (48 bytes).
    Removing uart.o(i.fputc), (44 bytes).
    Removing misc.o(i.NVIC_SetVectorTable), (20 bytes).
    Removing misc.o(i.NVIC_SystemLPConfig), (32 bytes).
    Removing stm32f10x_adc.o(i.ADC_AnalogWatchdogCmd), (20 bytes).
    Removing stm32f10x_adc.o(i.ADC_AnalogWatchdogSingleChannelConfig), (16 bytes).
    Removing stm32f10x_adc.o(i.ADC_AnalogWatchdogThresholdsConfig), (6 bytes).
    Removing stm32f10x_adc.o(i.ADC_AutoInjectedConvCmd), (22 bytes).
    Removing stm32f10x_adc.o(i.ADC_ClearFlag), (6 bytes).
==============================================================================

Image Symbol Table

    Local Symbols

    Symbol Name                              Value     Ov Type        Size  Object(Section)

    ../clib/microlib/division.c              0x00000000   Number         0  uldiv.o ABSOLUTE
    ../clib/microlib/division.c              0x00000000   Number         0  uidiv.o ABSOLUTE
    ../clib/microlib/init/entry.s            0x00000000   Number         0  entry11a.o ABSOLUTE
    ../clib/microlib/init/entry.s            0x00000000   Number         0  entry10b.o ABSOLUTE
    ../clib/microlib/init/entry.s            0x00000000   Number         0  entry10a.o ABSOLUTE
    ../clib/microlib/init/entry.s            0x00000000   Number         0  entry9b.o ABSOLUTE
    ../clib/microlib/init/entry.s            0x00000000   Number         0  entry9a.o ABSOLUTE
    ../clib/microlib/init/entry.s            0x00000000   Number         0  entry8b.o ABSOLUTE
    ../clib/microlib/init/entry.s            0x00000000   Number         0  entry8a.o ABSOLUTE
    ../clib/microlib/init/entry.s            0x00000000   Number         0  entry.o ABSOLUTE
    ../clib/microlib/init/entry.s            0x00000000   Number         0  entry5.o ABSOLUTE
    ../clib/microlib/init/entry.s            0x00000000   Number         0  entry2.o ABSOLUTE
    ../clib/microlib/init/entry.s            0x00000000   Number         0  entry7b.o ABSOLUTE
    ../clib/microlib/init/entry.s            0x00000000   Number         0  entry7a.o ABSOLUTE
    ../clib/microlib/init/entry.s            0x00000000   Number         0  entry11b.o ABSOLUTE
    ../clib/microlib/longlong.c              0x00000000   Number         0  llushr.o ABSOLUTE
    ../clib/microlib/longlong.c              0x00000000   Number         0  llsshr.o ABSOLUTE
    ../clib/microlib/longlong.c              0x00000000   Number         0  llshl.o ABSOLUTE
    ../clib/microlib/printf/printf.c         0x00000000   Number         0  printf3.o ABSOLUTE
    ../clib/microlib/printf/printf.c         0x00000000   Number         0  printf2.o ABSOLUTE
    ../clib/microlib/printf/printf.c         0x00000000   Number         0  printf1.o ABSOLUTE
    ../clib/microlib/printf/printf.c         0x00000000   Number         0  printf0.o ABSOLUTE
    ../clib/microlib/printf/printf.c         0x00000000   Number         0  printfb.o ABSOLUTE
    ../clib/microlib/printf/printf.c         0x00000000   Number         0  printf6.o ABSOLUTE
    ../clib/microlib/printf/printf.c         0x00000000   Number         0  printfa.o ABSOLUTE
    ../clib/microlib/printf/printf.c         0x00000000   Number         0  printf8.o ABSOLUTE
    ../clib/microlib/printf/printf.c         0x00000000   Number         0  printf7.o ABSOLUTE
    ../clib/microlib/printf/printf.c         0x00000000   Number         0  printf5.o ABSOLUTE
    ../clib/microlib/printf/printf.c         0x00000000   Number         0  printf4.o ABSOLUTE
    ../clib/microlib/printf/stubs.s          0x00000000   Number         0  stubs.o ABSOLUTE
    ../clib/microlib/stdio/streams.c         0x00000000   Number         0  stdout.o ABSOLUTE
    ../clib/microlib/string/memcpy.c         0x00000000   Number         0  memcpyb.o ABSOLUTE
    ../clib/microlib/string/memcpy.c         0x00000000   Number         0  memcpya.o ABSOLUTE
    ../clib/microlib/string/memset.c         0x00000000   Number         0  memseta.o ABSOLUTE
    ../clib/microlib/string/strlen.c         0x00000000   Number         0  strlen.o ABSOLUTE
    ../clib/microlib/stubs.s                 0x00000000   Number         0  iusefp.o ABSOLUTE
    ../fplib/microlib/d2f.c                  0x00000000   Number         0  d2f.o ABSOLUTE
    ../fplib/microlib/f2d.c                  0x00000000   Number         0  f2d.o ABSOLUTE
    ../fplib/microlib/fpadd.c                0x00000000   Number         0  fadd.o ABSOLUTE
    ../fplib/microlib/fpadd.c                0x00000000   Number         0  dadd.o ABSOLUTE
    ../fplib/microlib/fpdiv.c                0x00000000   Number         0  ddiv.o ABSOLUTE
    ../fplib/microlib/fpepilogue.c           0x00000000   Number         0  depilogue.o ABSOLUTE
    ../fplib/microlib/fpepilogue.c           0x00000000   Number         0  fepilogue.o ABSOLUTE
    ../fplib/microlib/fpfix.c                0x00000000   Number         0  ffixi.o ABSOLUTE
    ../fplib/microlib/fpfix.c                0x00000000   Number         0  dfixul.o ABSOLUTE
    ../fplib/microlib/fpflt.c                0x00000000   Number         0  fflti.o ABSOLUTE
    ../fplib/microlib/fpmul.c                0x00000000   Number         0  dmul.o ABSOLUTE
    ..\..\..\..\sdk\src\canvas.c             0x00000000   Number         0  canvas.o ABSOLUTE
    ..\..\..\..\sdk\src\protocol.c           0x00000000   Number         0  protocol.o ABSOLUTE
    ..\CMSIS\core_cm3.c                      0x00000000   Number         0  core_cm3.o ABSOLUTE
    ..\CMSIS\startup\startup_stm32f10x_hd.s  0x00000000   Number         0  startup_stm32f10x_hd.o ABSOLUTE
    ..\CMSIS\system_stm32f10x.c              0x00000000   Number         0  system_stm32f10x.o ABSOLUTE
    ..\DRIVER\DELAY\Delay.c                  0x00000000   Number         0  delay.o ABSOLUTE
    ..\DRIVER\DHT11\DHT11.c                  0x00000000   Number         0  dht11.o ABSOLUTE
    ..\DRIVER\LED\LED.c                      0x00000000   Number         0  led.o ABSOLUTE
    ..\DRIVER\NVIC\NVIC.c                    0x00000000   Number         0  nvic.o ABSOLUTE
    ..\DRIVER\UART\uart.c                    0x00000000   Number         0  uart.o ABSOLUTE
    ..\STLibraries\src\misc.c                0x00000000   Number         0  misc.o ABSOLUTE
    ..\STLibraries\src\stm32f10x_adc.c       0x00000000   Number         0  stm32f10x_adc.o ABSOLUTE
    ..\STLibraries\src\stm32f10x_bkp.c       0x00000000   Number         0  stm32f10x_bkp.o ABSOLUTE
    ..\STLibraries\src\stm32f10x_can.c       0x00000000   Number         0  stm32f10x_can.o ABSOLUTE
    ..\STLibraries\src\stm32f10x_cec.c       0x00000000   Number         0  stm32f10x_cec.o ABSOLUTE
    ..\STLibraries\src\stm32f10x_crc.c       0x00000000   Number         0  stm32f10x_crc.o ABSOLUTE
    ..\STLibraries\src\stm32f10x_dac.c       0x00000000   Number         0  stm32f10x_dac.o ABSOLUTE
    ..\STLibraries\src\stm32f10x_dbgmcu.c    0x00000000   Number         0  stm32f10x_dbgmcu.o ABSOLUTE
    ..\STLibraries\src\stm32f10x_dma.c       0x00000000   Number         0  stm32f10x_dma.o ABSOLUTE
    ..\STLibraries\src\stm32f10x_exti.c      0x00000000   Number         0  stm32f10x_exti.o ABSOLUTE
    ..\STLibraries\src\stm32f10x_flash.c     0x00000000   Number         0  stm32f10x_flash.o ABSOLUTE
    ..\STLibraries\src\stm32f10x_fsmc.c      0x00000000   Number         0  stm32f10x_fsmc.o ABSOLUTE
    ..\STLibraries\src\stm32f10x_gpio.c      0x00000000   Number         0  stm32f10x_gpio.o ABSOLUTE
    ..\STLibraries\src\stm32f10x_i2c.c       0x00000000   Number         0  stm32f10x_i2c.o ABSOLUTE
    ..\STLibraries\src\stm32f10x_iwdg.c      0x00000000   Number         0  stm32f10x_iwdg.o ABSOLUTE
    ..\STLibraries\src\stm32f10x_pwr.c       0x00000000   Number         0  stm32f10x_pwr.o ABSOLUTE
    ..\STLibraries\src\stm32f10x_rcc.c       0x00000000   Number         0  stm32f10x_rcc.o ABSOLUTE
    ..\STLibraries\src\stm32f10x_rtc.c       0x00000000   Number         0  stm32f10x_rtc.o ABSOLUTE
    ..\STLibraries\src\stm32f10x_sdio.c      0x00000000   Number         0  stm32f10x_sdio.o ABSOLUTE
    ..\STLibraries\src\stm32f10x_spi.c       0x00000000   Number         0  stm32f10x_spi.o ABSOLUTE
    ..\STLibraries\src\stm32f10x_tim.c       0x00000000   Number         0  stm32f10x_tim.o ABSOLUTE
    ..\STLibraries\src\stm32f10x_usart.c     0x00000000   Number         0  stm32f10x_usart.o ABSOLUTE
    ..\STLibraries\src\stm32f10x_wwdg.c      0x00000000   Number         0  stm32f10x_wwdg.o ABSOLUTE
    ..\USR\main.c                            0x00000000   Number         0  main.o ABSOLUTE
    ..\USR\stm32f10x_it.c                    0x00000000   Number         0  stm32f10x_it.o ABSOLUTE
    ..\\CMSIS\\core_cm3.c                    0x00000000   Number         0  core_cm3.o ABSOLUTE
    cdrcmple.s                               0x00000000   Number         0  cdrcmple.o ABSOLUTE
    cfrcmple.s                               0x00000000   Number         0  cfrcmple.o ABSOLUTE
    dc.s                                     0x00000000   Number         0  dc.o ABSOLUTE
    handlers.s                               0x00000000   Number         0  handlers.o ABSOLUTE
    init.s                                   0x00000000   Number         0  init.o ABSOLUTE
    RESET                                    0x08000000   Section      304  startup_stm32f10x_hd.o(RESET)
    .ARM.Collect$$$$00000000                 0x08000130   Section        0  entry.o(.ARM.Collect$$$$00000000)
    .ARM.Collect$$$$00000001                 0x08000130   Section        4  entry2.o(.ARM.Collect$$$$00000001)
    .ARM.Collect$$$$00000004                 0x08000134   Section        4  entry5.o(.ARM.Collect$$$$00000004)
    .ARM.Collect$$$$00000008                 0x08000138   Section        0  entry7b.o(.ARM.Collect$$$$00000008)
    .ARM.Collect$$$$0000000A                 0x08000138   Section        0  entry8b.o(.ARM.Collect$$$$0000000A)
    .ARM.Collect$$$$0000000B                 0x08000138   Section        8  entry9a.o(.ARM.Collect$$$$0000000B)
    .ARM.Collect$$$$0000000D                 0x08000140   Section        0  entry10a.o(.ARM.Collect$$$$0000000D)
    .ARM.Collect$$$$0000000F                 0x08000140   Section        0  entry11a.o(.ARM.Collect$$$$0000000F)
    .ARM.Collect$$$$00002712                 0x08000140   Section        4  entry2.o(.ARM.Collect$$$$00002712)
    __lit__00000000                          0x08000140   Data           4  entry2.o(.ARM.Collect$$$$00002712)
    .text                                    0x08000144   Section       36  startup_stm32f10x_hd.o(.text)
    .text                                    0x08000168   Section        0  memcpya.o(.text)
    .text                                    0x0800018c   Section        0  memseta.o(.text)
    .text                                    0x080001b0   Section        0  strlen.o(.text)
    .text                                    0x080001be   Section        0  fadd.o(.text)
    .text                                    0x0800026e   Section        0  dadd.o(.text)
    .text                                    0x080003bc   Section        0  fflti.o(.text)
    .text                                    0x080003ce   Section        0  ffixi.o(.text)
    .text                                    0x08000400   Section        0  f2d.o(.text)
    .text                                    0x08000426   Section        0  d2f.o(.text)
    .text                                    0x08000460   Section       20  cfrcmple.o(.text)
    .text                                    0x08000474   Section        0  uidiv.o(.text)
    .text                                    0x080004a0   Section        0  uldiv.o(.text)
    .text                                    0x08000502   Section        0  llshl.o(.text)
    .text                                    0x08000520   Section        0  llsshr.o(.text)
    .text                                    0x08000544   Section        0  fepilogue.o(.text)
    .text                                    0x08000544   Section        0  iusefp.o(.text)
    .text                                    0x080005b2   Section        0  depilogue.o(.text)
    .text                                    0x0800066c   Section        0  dmul.o(.text)
    .text                                    0x08000750   Section        0  ddiv.o(.text)
    .text                                    0x0800082e   Section        0  dfixul.o(.text)
    .text                                    0x08000860   Section       48  cdrcmple.o(.text)
    .text                                    0x08000890   Section       36  init.o(.text)
    .text                                    0x080008b4   Section        0  llushr.o(.text)
    i.BusFault_Handler                       0x080008d4   Section        0  stm32f10x_it.o(i.BusFault_Handler)
    i.DebugMon_Handler                       0x080008d8   Section        0  stm32f10x_it.o(i.DebugMon_Handler)
    i.Delay_ms                               0x080008da   Section        0  delay.o(i.Delay_ms)
    i.GPIO_Init                              0x08000904   Section        0  stm32f10x_gpio.o(i.GPIO_Init)
    i.GPIO_ResetBits                         0x08000a1a   Section        0  stm32f10x_gpio.o(i.GPIO_ResetBits)
    i.HardFault_Handler                      0x08000a1e   Section        0  stm32f10x_it.o(i.HardFault_Handler)
    i.MemManage_Handler                      0x08000a22   Section        0  stm32f10x_it.o(i.MemManage_Handler)
    i.NMI_Handler                            0x08000a26   Section        0  stm32f10x_it.o(i.NMI_Handler)
    i.NVIC_Init                              0x08000a28   Section        0  misc.o(i.NVIC_Init)
    i.NVIC_PriorityGroupConfig               0x08000a98   Section        0  misc.o(i.NVIC_PriorityGroupConfig)
    i.PendSV_Handler                         0x08000aac   Section        0  stm32f10x_it.o(i.PendSV_Handler)
    i.RCC_APB2PeriphClockCmd                 0x08000ab0   Section        0  stm32f10x_rcc.o(i.RCC_APB2PeriphClockCmd)
    i.RCC_GetClocksFreq                      0x08000ad0   Section        0  stm32f10x_rcc.o(i.RCC_GetClocksFreq)
    i.SVC_Handler                            0x08000ba4   Section        0  stm32f10x_it.o(i.SVC_Handler)
    i.SetSysClock                            0x08000ba6   Section        0  system_stm32f10x.o(i.SetSysClock)
    SetSysClock                              0x08000ba7   Thumb Code     8  system_stm32f10x.o(i.SetSysClock)
    i.SetSysClockTo72                        0x08000bb0   Section        0  system_stm32f10x.o(i.SetSysClockTo72)
    SetSysClockTo72                          0x08000bb1   Thumb Code   214  system_stm32f10x.o(i.SetSysClockTo72)
    i.SysTick_CLKSourceConfig                0x08000c90   Section        0  misc.o(i.SysTick_CLKSourceConfig)
    i.SysTick_Handler                        0x08000cb8   Section        0  stm32f10x_it.o(i.SysTick_Handler)
    i.SystemInit                             0x08000cbc   Section        0  system_stm32f10x.o(i.SystemInit)
    i.USART1_IRQHandler                      0x08000d1c   Section        0  uart.o(i.USART1_IRQHandler)
    i.USART2_IRQHandler                      0x08000d80   Section        0  uart.o(i.USART2_IRQHandler)
    i.USART3_IRQHandler                      0x08000d82   Section        0  uart.o(i.USART3_IRQHandler)
    i.USART_ClearFlag                        0x08000d84   Section        0  stm32f10x_usart.o(i.USART_ClearFlag)
    i.USART_Cmd                              0x08000d96   Section        0  stm32f10x_usart.o(i.USART_Cmd)
    i.USART_GetFlagStatus                    0x08000dae   Section        0  stm32f10x_usart.o(i.USART_GetFlagStatus)
    i.USART_GetITStatus                      0x08000dc8   Section        0  stm32f10x_usart.o(i.USART_GetITStatus)
    i.USART_ITConfig                         0x08000e1c   Section        0  stm32f10x_usart.o(i.USART_ITConfig)
    i.USART_Init                             0x08000e68   Section        0  stm32f10x_usart.o(i.USART_Init)
    i.USART_ReceiveData                      0x08000f40   Section        0  stm32f10x_usart.o(i.USART_ReceiveData)
    i.USART_SendData                         0x08000f4a   Section        0  stm32f10x_usart.o(i.USART_SendData)
    i.UsageFault_Handler                     0x08000f52   Section        0  stm32f10x_it.o(i.UsageFault_Handler)
    i.__0sprintf                             0x08000f58   Section        0  printfa.o(i.__0sprintf)
    i.__scatterload_copy                     0x08000f80   Section       14  handlers.o(i.__scatterload_copy)
    i.__scatterload_null                     0x08000f8e   Section        2  handlers.o(i.__scatterload_null)
    i.__scatterload_zeroinit                 0x08000f90   Section       14  handlers.o(i.__scatterload_zeroinit)
    i._fp_digits                             0x08000fa0   Section        0  printfa.o(i._fp_digits)
    _fp_digits                               0x08000fa1   Thumb Code   366  printfa.o(i._fp_digits)
    i._printf_core                           0x08001124   Section        0  printfa.o(i._printf_core)
    _printf_core                             0x08001125   Thumb Code  1744  printfa.o(i._printf_core)
    i._printf_post_padding                   0x08001800   Section        0  printfa.o(i._printf_post_padding)
    _printf_post_padding                     0x08001801   Thumb Code    36  printfa.o(i._printf_post_padding)
    i._printf_pre_padding                    0x08001824   Section        0  printfa.o(i._printf_pre_padding)
    _printf_pre_padding                      0x08001825   Thumb Code    46  printfa.o(i._printf_pre_padding)
    i._sputc                                 0x08001852   Section        0  printfa.o(i._sputc)
    _sputc                                   0x08001853   Thumb Code    10  printfa.o(i._sputc)
    i.initCanvas                             0x0800185c   Section        0  canvas.o(i.initCanvas)
    i.initLED                                0x0800189c   Section        0  led.o(i.initLED)
    i.initNVIC                               0x080018d4   Section        0  nvic.o(i.initNVIC)
    i.initSysTick                            0x080018ec   Section        0  delay.o(i.initSysTick)
    i.initUART                               0x08001918   Section        0  uart.o(i.initUART)
    i.main                                   0x080019ac   Section        0  main.o(i.main)
    i.packProtocol                           0x08001c60   Section        0  protocol.o(i.packProtocol)
    i.processBytes                           0x08001cf4   Section        0  canvas.o(i.processBytes)
    i.sendBytes                              0x08001e2c   Section        0  canvas.o(i.sendBytes)
    sendBytes                                0x08001e2d   Thumb Code    16  canvas.o(i.sendBytes)
    i.sendUartByte                           0x08001e3c   Section        0  uart.o(i.sendUartByte)
    i.sendUartBytes                          0x08001e6c   Section        0  uart.o(i.sendUartBytes)
    i.setNVIC                                0x08001e8c   Section        0  nvic.o(i.setNVIC)
    i.unpackProtocol                         0x08001eae   Section        0  protocol.o(i.unpackProtocol)
    i.updateCanvas                           0x08001f4c   Section        0  canvas.o(i.updateCanvas)
    .data                                    0x20000000   Section        1  uart.o(.data)
    tail                                     0x20000000   Data           1  uart.o(.data)
    .data                                    0x20000002   Section        2  canvas.o(.data)
    size                                     0x20000002   Data           2  canvas.o(.data)
    .data                                    0x20000004   Section       20  stm32f10x_rcc.o(.data)
    APBAHBPrescTable                         0x20000004   Data          16  stm32f10x_rcc.o(.data)
    ADCPrescTable                            0x20000014   Data           4  stm32f10x_rcc.o(.data)
    .bss                                     0x20000018   Section      220  canvas.o(.bss)
    tbuffer                                  0x200000d6   Data          30  canvas.o(.bss)
    STACK                                    0x200000f8   Section     1024  startup_stm32f10x_hd.o(STACK)

    Global Symbols

    Symbol Name                              Value     Ov Type        Size  Object(Section)

    BuildAttributes$$THM_ISAv4$P$D$K$B$S$PE$A:L22UL41UL21$X:L11$S22US41US21$IEEE1$IW$USESV6$~STKCKD$USESV7$~SHL$OTIME$ROPI$EBA8$MICROLIB$REQ8$PRES8$EABIv2 0x00000000   Number         0  anon$$obj.o ABSOLUTE
    __ARM_use_no_argv                        0x00000000   Number         0  main.o ABSOLUTE
    _printf_a                                0x00000000   Number         0  stubs.o ABSOLUTE
    _printf_c                                0x00000000   Number         0  stubs.o ABSOLUTE
    _printf_charcount                        0x00000000   Number         0  stubs.o ABSOLUTE
    _printf_d                                0x00000000   Number         0  stubs.o ABSOLUTE
    _printf_e                                0x00000000   Number         0  stubs.o ABSOLUTE
    _printf_f                                0x00000000   Number         0  stubs.o ABSOLUTE
    _printf_flags                            0x00000000   Number         0  stubs.o ABSOLUTE
    _printf_fp_dec                           0x00000000   Number         0  stubs.o ABSOLUTE
    _printf_fp_hex                           0x00000000   Number         0  stubs.o ABSOLUTE
    _printf_g                                0x00000000   Number         0  stubs.o ABSOLUTE
    _printf_i                                0x00000000   Number         0  stubs.o ABSOLUTE
    _printf_int_dec                          0x00000000   Number         0  stubs.o ABSOLUTE
    _printf_l                                0x00000000   Number         0  stubs.o ABSOLUTE
    _printf_lc                               0x00000000   Number         0  stubs.o ABSOLUTE
    _printf_ll                               0x00000000   Number         0  stubs.o ABSOLUTE
    _printf_lld                              0x00000000   Number         0  stubs.o ABSOLUTE
    _printf_lli                              0x00000000   Number         0  stubs.o ABSOLUTE
    _printf_llo                              0x00000000   Number         0  stubs.o ABSOLUTE
    _printf_llu                              0x00000000   Number         0  stubs.o ABSOLUTE
    _printf_llx                              0x00000000   Number         0  stubs.o ABSOLUTE
    _printf_longlong_dec                     0x00000000   Number         0  stubs.o ABSOLUTE
    _printf_longlong_hex                     0x00000000   Number         0  stubs.o ABSOLUTE
    _printf_longlong_oct                     0x00000000   Number         0  stubs.o ABSOLUTE
    _printf_ls                               0x00000000   Number         0  stubs.o ABSOLUTE
    _printf_mbtowc                           0x00000000   Number         0  stubs.o ABSOLUTE
    _printf_n                                0x00000000   Number         0  stubs.o ABSOLUTE
    _printf_o                                0x00000000   Number         0  stubs.o ABSOLUTE
    _printf_p                                0x00000000   Number         0  stubs.o ABSOLUTE
    _printf_percent                          0x00000000   Number         0  stubs.o ABSOLUTE
    _printf_pre_padding                      0x00000000   Number         0  stubs.o ABSOLUTE
    _printf_return_value                     0x00000000   Number         0  stubs.o ABSOLUTE
    _printf_s                                0x00000000   Number         0  stubs.o ABSOLUTE
    _printf_sizespec                         0x00000000   Number         0  stubs.o ABSOLUTE
    _printf_str                              0x00000000   Number         0  stubs.o ABSOLUTE
    _printf_truncate_signed                  0x00000000   Number         0  stubs.o ABSOLUTE
    _printf_truncate_unsigned                0x00000000   Number         0  stubs.o ABSOLUTE
    _printf_u                                0x00000000   Number         0  stubs.o ABSOLUTE
    _printf_wc                               0x00000000   Number         0  stubs.o ABSOLUTE
    _printf_wctomb                           0x00000000   Number         0  stubs.o ABSOLUTE
    _printf_widthprec                        0x00000000   Number         0  stubs.o ABSOLUTE
    _printf_x                                0x00000000   Number         0  stubs.o ABSOLUTE
    __cpp_initialize__aeabi_                  - Undefined Weak Reference
    __cxa_finalize                            - Undefined Weak Reference
    __decompress                              - Undefined Weak Reference
    _clock_init                               - Undefined Weak Reference
    _microlib_exit                            - Undefined Weak Reference
    __Vectors_Size                           0x00000130   Number         0  startup_stm32f10x_hd.o ABSOLUTE
    __Vectors                                0x08000000   Data           4  startup_stm32f10x_hd.o(RESET)
    __Vectors_End                            0x08000130   Data           0  startup_stm32f10x_hd.o(RESET)
    __main                                   0x08000131   Thumb Code     0  entry.o(.ARM.Collect$$$$00000000)
    _main_stk                                0x08000131   Thumb Code     0  entry2.o(.ARM.Collect$$$$00000001)
    _main_scatterload                        0x08000135   Thumb Code     0  entry5.o(.ARM.Collect$$$$00000004)
    __main_after_scatterload                 0x08000139   Thumb Code     0  entry5.o(.ARM.Collect$$$$00000004)
    _main_clock                              0x08000139   Thumb Code     0  entry7b.o(.ARM.Collect$$$$00000008)
    _main_cpp_init                           0x08000139   Thumb Code     0  entry8b.o(.ARM.Collect$$$$0000000A)
    _main_init                               0x08000139   Thumb Code     0  entry9a.o(.ARM.Collect$$$$0000000B)
    __rt_final_cpp                           0x08000141   Thumb Code     0  entry10a.o(.ARM.Collect$$$$0000000D)
    __rt_final_exit                          0x08000141   Thumb Code     0  entry11a.o(.ARM.Collect$$$$0000000F)
    Reset_Handler                            0x08000145   Thumb Code     8  startup_stm32f10x_hd.o(.text)
    ADC1_2_IRQHandler                        0x0800015f   Thumb Code     0  startup_stm32f10x_hd.o(.text)
    ADC3_IRQHandler                          0x0800015f   Thumb Code     0  startup_stm32f10x_hd.o(.text)
    CAN1_RX1_IRQHandler                      0x0800015f   Thumb Code     0  startup_stm32f10x_hd.o(.text)
    CAN1_SCE_IRQHandler                      0x0800015f   Thumb Code     0  startup_stm32f10x_hd.o(.text)
    DMA1_Channel1_IRQHandler                 0x0800015f   Thumb Code     0  startup_stm32f10x_hd.o(.text)
    DMA1_Channel2_IRQHandler                 0x0800015f   Thumb Code     0  startup_stm32f10x_hd.o(.text)
    DMA1_Channel3_IRQHandler                 0x0800015f   Thumb Code     0  startup_stm32f10x_hd.o(.text)
    DMA1_Channel4_IRQHandler                 0x0800015f   Thumb Code     0  startup_stm32f10x_hd.o(.text)
    DMA1_Channel5_IRQHandler                 0x0800015f   Thumb Code     0  startup_stm32f10x_hd.o(.text)
    DMA1_Channel6_IRQHandler                 0x0800015f   Thumb Code     0  startup_stm32f10x_hd.o(.text)
    DMA1_Channel7_IRQHandler                 0x0800015f   Thumb Code     0  startup_stm32f10x_hd.o(.text)
    DMA2_Channel1_IRQHandler                 0x0800015f   Thumb Code     0  startup_stm32f10x_hd.o(.text)
    DMA2_Channel2_IRQHandler                 0x0800015f   Thumb Code     0  startup_stm32f10x_hd.o(.text)
    DMA2_Channel3_IRQHandler                 0x0800015f   Thumb Code     0  startup_stm32f10x_hd.o(.text)
    DMA2_Channel4_5_IRQHandler               0x0800015f   Thumb Code     0  startup_stm32f10x_hd.o(.text)
    EXTI0_IRQHandler                         0x0800015f   Thumb Code     0  startup_stm32f10x_hd.o(.text)
    EXTI15_10_IRQHandler                     0x0800015f   Thumb Code     0  startup_stm32f10x_hd.o(.text)
    EXTI1_IRQHandler                         0x0800015f   Thumb Code     0  startup_stm32f10x_hd.o(.text)
    EXTI2_IRQHandler                         0x0800015f   Thumb Code     0  startup_stm32f10x_hd.o(.text)
    EXTI3_IRQHandler                         0x0800015f   Thumb Code     0  startup_stm32f10x_hd.o(.text)
    EXTI4_IRQHandler                         0x0800015f   Thumb Code     0  startup_stm32f10x_hd.o(.text)
    EXTI9_5_IRQHandler                       0x0800015f   Thumb Code     0  startup_stm32f10x_hd.o(.text)
    FLASH_IRQHandler                         0x0800015f   Thumb Code     0  startup_stm32f10x_hd.o(.text)
    FSMC_IRQHandler                          0x0800015f   Thumb Code     0  startup_stm32f10x_hd.o(.text)
    I2C1_ER_IRQHandler                       0x0800015f   Thumb Code     0  startup_stm32f10x_hd.o(.text)
    I2C1_EV_IRQHandler                       0x0800015f   Thumb Code     0  startup_stm32f10x_hd.o(.text)
    I2C2_ER_IRQHandler                       0x0800015f   Thumb Code     0  startup_stm32f10x_hd.o(.text)
    I2C2_EV_IRQHandler                       0x0800015f   Thumb Code     0  startup_stm32f10x_hd.o(.text)
    PVD_IRQHandler                           0x0800015f   Thumb Code     0  startup_stm32f10x_hd.o(.text)
    RCC_IRQHandler                           0x0800015f   Thumb Code     0  startup_stm32f10x_hd.o(.text)
    RTCAlarm_IRQHandler                      0x0800015f   Thumb Code     0  startup_stm32f10x_hd.o(.text)
    RTC_IRQHandler                           0x0800015f   Thumb Code     0  startup_stm32f10x_hd.o(.text)
    SDIO_IRQHandler                          0x0800015f   Thumb Code     0  startup_stm32f10x_hd.o(.text)
    SPI1_IRQHandler                          0x0800015f   Thumb Code     0  startup_stm32f10x_hd.o(.text)
    SPI2_IRQHandler                          0x0800015f   Thumb Code     0  startup_stm32f10x_hd.o(.text)
    SPI3_IRQHandler                          0x0800015f   Thumb Code     0  startup_stm32f10x_hd.o(.text)
    TAMPER_IRQHandler                        0x0800015f   Thumb Code     0  startup_stm32f10x_hd.o(.text)
    TIM1_BRK_IRQHandler                      0x0800015f   Thumb Code     0  startup_stm32f10x_hd.o(.text)
    TIM1_CC_IRQHandler                       0x0800015f   Thumb Code     0  startup_stm32f10x_hd.o(.text)
    TIM1_TRG_COM_IRQHandler                  0x0800015f   Thumb Code     0  startup_stm32f10x_hd.o(.text)
    TIM1_UP_IRQHandler                       0x0800015f   Thumb Code     0  startup_stm32f10x_hd.o(.text)
    TIM2_IRQHandler                          0x0800015f   Thumb Code     0  startup_stm32f10x_hd.o(.text)
    TIM3_IRQHandler                          0x0800015f   Thumb Code     0  startup_stm32f10x_hd.o(.text)
    TIM4_IRQHandler                          0x0800015f   Thumb Code     0  startup_stm32f10x_hd.o(.text)
    TIM5_IRQHandler                          0x0800015f   Thumb Code     0  startup_stm32f10x_hd.o(.text)
    TIM6_IRQHandler                          0x0800015f   Thumb Code     0  startup_stm32f10x_hd.o(.text)
    TIM7_IRQHandler                          0x0800015f   Thumb Code     0  startup_stm32f10x_hd.o(.text)
    TIM8_BRK_IRQHandler                      0x0800015f   Thumb Code     0  startup_stm32f10x_hd.o(.text)
    TIM8_CC_IRQHandler                       0x0800015f   Thumb Code     0  startup_stm32f10x_hd.o(.text)
    TIM8_TRG_COM_IRQHandler                  0x0800015f   Thumb Code     0  startup_stm32f10x_hd.o(.text)
    TIM8_UP_IRQHandler                       0x0800015f   Thumb Code     0  startup_stm32f10x_hd.o(.text)
    UART4_IRQHandler                         0x0800015f   Thumb Code     0  startup_stm32f10x_hd.o(.text)
    UART5_IRQHandler                         0x0800015f   Thumb Code     0  startup_stm32f10x_hd.o(.text)
    USBWakeUp_IRQHandler                     0x0800015f   Thumb Code     0  startup_stm32f10x_hd.o(.text)
    USB_HP_CAN1_TX_IRQHandler                0x0800015f   Thumb Code     0  startup_stm32f10x_hd.o(.text)
    USB_LP_CAN1_RX0_IRQHandler               0x0800015f   Thumb Code     0  startup_stm32f10x_hd.o(.text)
    WWDG_IRQHandler                          0x0800015f   Thumb Code     0  startup_stm32f10x_hd.o(.text)
    __aeabi_memcpy                           0x08000169   Thumb Code    36  memcpya.o(.text)
    __aeabi_memcpy4                          0x08000169   Thumb Code     0  memcpya.o(.text)
    __aeabi_memcpy8                          0x08000169   Thumb Code     0  memcpya.o(.text)
    __aeabi_memset                           0x0800018d   Thumb Code    14  memseta.o(.text)
    __aeabi_memset4                          0x0800018d   Thumb Code     0  memseta.o(.text)
    __aeabi_memset8                          0x0800018d   Thumb Code     0  memseta.o(.text)
    __aeabi_memclr                           0x0800019b   Thumb Code     4  memseta.o(.text)
    __aeabi_memclr4                          0x0800019b   Thumb Code     0  memseta.o(.text)
    __aeabi_memclr8                          0x0800019b   Thumb Code     0  memseta.o(.text)
    _memset$wrapper                          0x0800019f   Thumb Code    18  memseta.o(.text)
    strlen                                   0x080001b1   Thumb Code    14  strlen.o(.text)
    __aeabi_fadd                             0x080001bf   Thumb Code   164  fadd.o(.text)
    __aeabi_fsub                             0x08000263   Thumb Code     6  fadd.o(.text)
    __aeabi_frsub                            0x08000269   Thumb Code     6  fadd.o(.text)
    __aeabi_dadd                             0x0800026f   Thumb Code   322  dadd.o(.text)
    __aeabi_dsub                             0x080003b1   Thumb Code     6  dadd.o(.text)
    __aeabi_drsub                            0x080003b7   Thumb Code     6  dadd.o(.text)
    __aeabi_i2f                              0x080003bd   Thumb Code    18  fflti.o(.text)
    __aeabi_f2iz                             0x080003cf   Thumb Code    50  ffixi.o(.text)
    __aeabi_f2d                              0x08000401   Thumb Code    38  f2d.o(.text)
    __aeabi_d2f                              0x08000427   Thumb Code    56  d2f.o(.text)
    __aeabi_cfrcmple                         0x08000461   Thumb Code    20  cfrcmple.o(.text)
    __aeabi_uidiv                            0x08000475   Thumb Code     0  uidiv.o(.text)
    __aeabi_uidivmod                         0x08000475   Thumb Code    44  uidiv.o(.text)
    __aeabi_uldivmod                         0x080004a1   Thumb Code    98  uldiv.o(.text)
    __aeabi_llsl                             0x08000503   Thumb Code    30  llshl.o(.text)
    _ll_shift_l                              0x08000503   Thumb Code     0  llshl.o(.text)
    __aeabi_lasr                             0x08000521   Thumb Code    36  llsshr.o(.text)
    _ll_sshift_r                             0x08000521   Thumb Code     0  llsshr.o(.text)
    __I$use$fp                               0x08000545   Thumb Code     0  iusefp.o(.text)
    _float_round                             0x08000545   Thumb Code    18  fepilogue.o(.text)
    _float_epilogue                          0x08000557   Thumb Code    92  fepilogue.o(.text)
    _double_round                            0x080005b3   Thumb Code    30  depilogue.o(.text)
    _double_epilogue                         0x080005d1   Thumb Code   156  depilogue.o(.text)
    __aeabi_dmul                             0x0800066d   Thumb Code   228  dmul.o(.text)
    __aeabi_ddiv                             0x08000751   Thumb Code   222  ddiv.o(.text)
    __aeabi_d2ulz                            0x0800082f   Thumb Code    48  dfixul.o(.text)
    __aeabi_cdrcmple                         0x08000861   Thumb Code    48  cdrcmple.o(.text)
    __scatterload                            0x08000891   Thumb Code    28  init.o(.text)
    __scatterload_rt2                        0x08000891   Thumb Code     0  init.o(.text)
    __aeabi_llsr                             0x080008b5   Thumb Code    32  llushr.o(.text)
    _ll_ushift_r                             0x080008b5   Thumb Code     0  llushr.o(.text)
    BusFault_Handler                         0x080008d5   Thumb Code     4  stm32f10x_it.o(i.BusFault_Handler)
    DebugMon_Handler                         0x080008d9   Thumb Code     2  stm32f10x_it.o(i.DebugMon_Handler)
    Delay_ms                                 0x080008db   Thumb Code    42  delay.o(i.Delay_ms)
    GPIO_Init                                0x08000905   Thumb Code   278  stm32f10x_gpio.o(i.GPIO_Init)
    GPIO_ResetBits                           0x08000a1b   Thumb Code     4  stm32f10x_gpio.o(i.GPIO_ResetBits)
    HardFault_Handler                        0x08000a1f   Thumb Code     4  stm32f10x_it.o(i.HardFault_Handler)
    MemManage_Handler                        0x08000a23   Thumb Code     4  stm32f10x_it.o(i.MemManage_Handler)
    NMI_Handler                              0x08000a27   Thumb Code     2  stm32f10x_it.o(i.NMI_Handler)
    NVIC_Init                                0x08000a29   Thumb Code   100  misc.o(i.NVIC_Init)
    NVIC_PriorityGroupConfig                 0x08000a99   Thumb Code    10  misc.o(i.NVIC_PriorityGroupConfig)
    PendSV_Handler                           0x08000aad   Thumb Code     2  stm32f10x_it.o(i.PendSV_Handler)
    RCC_APB2PeriphClockCmd                   0x08000ab1   Thumb Code    26  stm32f10x_rcc.o(i.RCC_APB2PeriphClockCmd)
    RCC_GetClocksFreq                        0x08000ad1   Thumb Code   192  stm32f10x_rcc.o(i.RCC_GetClocksFreq)
    SVC_Handler                              0x08000ba5   Thumb Code     2  stm32f10x_it.o(i.SVC_Handler)
    SysTick_CLKSourceConfig                  0x08000c91   Thumb Code    40  misc.o(i.SysTick_CLKSourceConfig)
    SysTick_Handler                          0x08000cb9   Thumb Code     2  stm32f10x_it.o(i.SysTick_Handler)
    SystemInit                               0x08000cbd   Thumb Code    78  system_stm32f10x.o(i.SystemInit)
    USART1_IRQHandler                        0x08000d1d   Thumb Code    92  uart.o(i.USART1_IRQHandler)
    USART2_IRQHandler                        0x08000d81   Thumb Code     2  uart.o(i.USART2_IRQHandler)
    USART3_IRQHandler                        0x08000d83   Thumb Code     2  uart.o(i.USART3_IRQHandler)
    USART_ClearFlag                          0x08000d85   Thumb Code    18  stm32f10x_usart.o(i.USART_ClearFlag)
    USART_Cmd                                0x08000d97   Thumb Code    24  stm32f10x_usart.o(i.USART_Cmd)
    USART_GetFlagStatus                      0x08000daf   Thumb Code    26  stm32f10x_usart.o(i.USART_GetFlagStatus)
    USART_GetITStatus                        0x08000dc9   Thumb Code    84  stm32f10x_usart.o(i.USART_GetITStatus)
    USART_ITConfig                           0x08000e1d   Thumb Code    74  stm32f10x_usart.o(i.USART_ITConfig)
    USART_Init                               0x08000e69   Thumb Code   210  stm32f10x_usart.o(i.USART_Init)
    USART_ReceiveData                        0x08000f41   Thumb Code    10  stm32f10x_usart.o(i.USART_ReceiveData)
    USART_SendData                           0x08000f4b   Thumb Code     8  stm32f10x_usart.o(i.USART_SendData)
    UsageFault_Handler                       0x08000f53   Thumb Code     4  stm32f10x_it.o(i.UsageFault_Handler)
    __0sprintf                               0x08000f59   Thumb Code    34  printfa.o(i.__0sprintf)
    __1sprintf                               0x08000f59   Thumb Code     0  printfa.o(i.__0sprintf)
    __2sprintf                               0x08000f59   Thumb Code     0  printfa.o(i.__0sprintf)
    __c89sprintf                             0x08000f59   Thumb Code     0  printfa.o(i.__0sprintf)
    sprintf                                  0x08000f59   Thumb Code     0  printfa.o(i.__0sprintf)
    __scatterload_copy                       0x08000f81   Thumb Code    14  handlers.o(i.__scatterload_copy)
    __scatterload_null                       0x08000f8f   Thumb Code     2  handlers.o(i.__scatterload_null)
    __scatterload_zeroinit                   0x08000f91   Thumb Code    14  handlers.o(i.__scatterload_zeroinit)
    initCanvas                               0x0800185d   Thumb Code    64  canvas.o(i.initCanvas)
    initLED                                  0x0800189d   Thumb Code    50  led.o(i.initLED)
    initNVIC                                 0x080018d5   Thumb Code    24  nvic.o(i.initNVIC)
    initSysTick                              0x080018ed   Thumb Code    42  delay.o(i.initSysTick)
    initUART                                 0x08001919   Thumb Code   138  uart.o(i.initUART)
    main                                     0x080019ad   Thumb Code   654  main.o(i.main)
    packProtocol                             0x08001c61   Thumb Code   146  protocol.o(i.packProtocol)
    processBytes                             0x08001cf5   Thumb Code   306  canvas.o(i.processBytes)
    sendUartByte                             0x08001e3d   Thumb Code    46  uart.o(i.sendUartByte)
    sendUartBytes                            0x08001e6d   Thumb Code    28  uart.o(i.sendUartBytes)
    setNVIC                                  0x08001e8d   Thumb Code    34  nvic.o(i.setNVIC)
    unpackProtocol                           0x08001eaf   Thumb Code   158  protocol.o(i.unpackProtocol)
    updateCanvas                             0x08001f4d   Thumb Code    60  canvas.o(i.updateCanvas)
    Region$$Table$$Base                      0x08001f90   Number         0  anon$$obj.o(Region$$Table)
    Region$$Table$$Limit                     0x08001fb0   Number         0  anon$$obj.o(Region$$Table)
    events                                   0x20000018   Data         190  canvas.o(.bss)
    __initial_sp                             0x200004f8   Data           0  startup_stm32f10x_hd.o(STACK)



==============================================================================

Memory Map of the image

  Image Entry point : 0x08000131

  Load Region LR_IROM1 (Base: 0x08000000, Size: 0x00001fc8, Max: 0x00010000, ABSOLUTE)

    Execution Region ER_IROM1 (Exec base: 0x08000000, Load base: 0x08000000, Size: 0x00001fb0, Max: 0x00010000, ABSOLUTE)

    Exec Addr    Load Addr    Size         Type   Attr      Idx    E Section Name        Object

    0x08000000   0x08000000   0x00000130   Data   RO         3427    RESET               startup_stm32f10x_hd.o
    0x08000130   0x08000130   0x00000000   Code   RO         3432  * .ARM.Collect$$$$00000000  mc_w.l(entry.o)
    0x08000130   0x08000130   0x00000004   Code   RO         3718    .ARM.Collect$$$$00000001  mc_w.l(entry2.o)
    0x08000134   0x08000134   0x00000004   Code   RO         3721    .ARM.Collect$$$$00000004  mc_w.l(entry5.o)
    0x08000138   0x08000138   0x00000000   Code   RO         3723    .ARM.Collect$$$$00000008  mc_w.l(entry7b.o)
    0x08000138   0x08000138   0x00000000   Code   RO         3725    .ARM.Collect$$$$0000000A  mc_w.l(entry8b.o)
    0x08000138   0x08000138   0x00000008   Code   RO         3726    .ARM.Collect$$$$0000000B  mc_w.l(entry9a.o)
    0x08000140   0x08000140   0x00000000   Code   RO         3728    .ARM.Collect$$$$0000000D  mc_w.l(entry10a.o)
    0x08000140   0x08000140   0x00000000   Code   RO         3730    .ARM.Collect$$$$0000000F  mc_w.l(entry11a.o)
    0x08000140   0x08000140   0x00000004   Code   RO         3719    .ARM.Collect$$$$00002712  mc_w.l(entry2.o)
    0x08000144   0x08000144   0x00000024   Code   RO         3428    .text               startup_stm32f10x_hd.o
    0x08000168   0x08000168   0x00000024   Code   RO         3435    .text               mc_w.l(memcpya.o)
    0x0800018c   0x0800018c   0x00000024   Code   RO         3437    .text               mc_w.l(memseta.o)
    0x080001b0   0x080001b0   0x0000000e   Code   RO         3439    .text               mc_w.l(strlen.o)
    0x080001be   0x080001be   0x000000b0   Code   RO         3704    .text               mf_w.l(fadd.o)
    0x0800026e   0x0800026e   0x0000014e   Code   RO         3706    .text               mf_w.l(dadd.o)
    0x080003bc   0x080003bc   0x00000012   Code   RO         3708    .text               mf_w.l(fflti.o)
    0x080003ce   0x080003ce   0x00000032   Code   RO         3710    .text               mf_w.l(ffixi.o)
    0x08000400   0x08000400   0x00000026   Code   RO         3712    .text               mf_w.l(f2d.o)
    0x08000426   0x08000426   0x00000038   Code   RO         3714    .text               mf_w.l(d2f.o)
    0x0800045e   0x0800045e   0x00000002   PAD
    0x08000460   0x08000460   0x00000014   Code   RO         3716    .text               mf_w.l(cfrcmple.o)
    0x08000474   0x08000474   0x0000002c   Code   RO         3733    .text               mc_w.l(uidiv.o)
    0x080004a0   0x080004a0   0x00000062   Code   RO         3735    .text               mc_w.l(uldiv.o)
    0x08000502   0x08000502   0x0000001e   Code   RO         3737    .text               mc_w.l(llshl.o)
    0x08000520   0x08000520   0x00000024   Code   RO         3739    .text               mc_w.l(llsshr.o)
    0x08000544   0x08000544   0x00000000   Code   RO         3741    .text               mc_w.l(iusefp.o)
    0x08000544   0x08000544   0x0000006e   Code   RO         3742    .text               mf_w.l(fepilogue.o)
    0x080005b2   0x080005b2   0x000000ba   Code   RO         3744    .text               mf_w.l(depilogue.o)
    0x0800066c   0x0800066c   0x000000e4   Code   RO         3746    .text               mf_w.l(dmul.o)
    0x08000750   0x08000750   0x000000de   Code   RO         3748    .text               mf_w.l(ddiv.o)
    0x0800082e   0x0800082e   0x00000030   Code   RO         3750    .text               mf_w.l(dfixul.o)
    0x0800085e   0x0800085e   0x00000002   PAD
    0x08000860   0x08000860   0x00000030   Code   RO         3752    .text               mf_w.l(cdrcmple.o)
    0x08000890   0x08000890   0x00000024   Code   RO         3754    .text               mc_w.l(init.o)
    0x080008b4   0x080008b4   0x00000020   Code   RO         3756    .text               mc_w.l(llushr.o)
    0x080008d4   0x080008d4   0x00000004   Code   RO          130    i.BusFault_Handler  stm32f10x_it.o
    0x080008d8   0x080008d8   0x00000002   Code   RO          131    i.DebugMon_Handler  stm32f10x_it.o
    0x080008da   0x080008da   0x0000002a   Code   RO          193    i.Delay_ms          delay.o
    0x08000904   0x08000904   0x00000116   Code   RO         1564    i.GPIO_Init         stm32f10x_gpio.o
    0x08000a1a   0x08000a1a   0x00000004   Code   RO         1571    i.GPIO_ResetBits    stm32f10x_gpio.o
    0x08000a1e   0x08000a1e   0x00000004   Code   RO          132    i.HardFault_Handler  stm32f10x_it.o
    0x08000a22   0x08000a22   0x00000004   Code   RO          133    i.MemManage_Handler  stm32f10x_it.o
    0x08000a26   0x08000a26   0x00000002   Code   RO          134    i.NMI_Handler       stm32f10x_it.o
    0x08000a28   0x08000a28   0x00000070   Code   RO          413    i.NVIC_Init         misc.o
    0x08000a98   0x08000a98   0x00000014   Code   RO          414    i.NVIC_PriorityGroupConfig  misc.o
    0x08000aac   0x08000aac   0x00000002   Code   RO          135    i.PendSV_Handler    stm32f10x_it.o
    0x08000aae   0x08000aae   0x00000002   PAD
    0x08000ab0   0x08000ab0   0x00000020   Code   RO         1982    i.RCC_APB2PeriphClockCmd  stm32f10x_rcc.o
    0x08000ad0   0x08000ad0   0x000000d4   Code   RO         1990    i.RCC_GetClocksFreq  stm32f10x_rcc.o
    0x08000ba4   0x08000ba4   0x00000002   Code   RO          136    i.SVC_Handler       stm32f10x_it.o
    0x08000ba6   0x08000ba6   0x00000008   Code   RO         3391    i.SetSysClock       system_stm32f10x.o
    0x08000bae   0x08000bae   0x00000002   PAD
    0x08000bb0   0x08000bb0   0x000000e0   Code   RO         3392    i.SetSysClockTo72   system_stm32f10x.o
    0x08000c90   0x08000c90   0x00000028   Code   RO          417    i.SysTick_CLKSourceConfig  misc.o
    0x08000cb8   0x08000cb8   0x00000002   Code   RO          137    i.SysTick_Handler   stm32f10x_it.o
    0x08000cba   0x08000cba   0x00000002   PAD
    0x08000cbc   0x08000cbc   0x00000060   Code   RO         3394    i.SystemInit        system_stm32f10x.o
    0x08000d1c   0x08000d1c   0x00000064   Code   RO          286    i.USART1_IRQHandler  uart.o
    0x08000d80   0x08000d80   0x00000002   Code   RO          287    i.USART2_IRQHandler  uart.o
    0x08000d82   0x08000d82   0x00000002   Code   RO          288    i.USART3_IRQHandler  uart.o
    0x08000d84   0x08000d84   0x00000012   Code   RO         3146    i.USART_ClearFlag   stm32f10x_usart.o
    0x08000d96   0x08000d96   0x00000018   Code   RO         3150    i.USART_Cmd         stm32f10x_usart.o
    0x08000dae   0x08000dae   0x0000001a   Code   RO         3153    i.USART_GetFlagStatus  stm32f10x_usart.o
    0x08000dc8   0x08000dc8   0x00000054   Code   RO         3154    i.USART_GetITStatus  stm32f10x_usart.o
    0x08000e1c   0x08000e1c   0x0000004a   Code   RO         3156    i.USART_ITConfig    stm32f10x_usart.o
    0x08000e66   0x08000e66   0x00000002   PAD
    0x08000e68   0x08000e68   0x000000d8   Code   RO         3157    i.USART_Init        stm32f10x_usart.o
    0x08000f40   0x08000f40   0x0000000a   Code   RO         3164    i.USART_ReceiveData  stm32f10x_usart.o
    0x08000f4a   0x08000f4a   0x00000008   Code   RO         3167    i.USART_SendData    stm32f10x_usart.o
    0x08000f52   0x08000f52   0x00000004   Code   RO          138    i.UsageFault_Handler  stm32f10x_it.o
    0x08000f56   0x08000f56   0x00000002   PAD
    0x08000f58   0x08000f58   0x00000028   Code   RO         3678    i.__0sprintf        mc_w.l(printfa.o)
    0x08000f80   0x08000f80   0x0000000e   Code   RO         3760    i.__scatterload_copy  mc_w.l(handlers.o)
    0x08000f8e   0x08000f8e   0x00000002   Code   RO         3761    i.__scatterload_null  mc_w.l(handlers.o)
    0x08000f90   0x08000f90   0x0000000e   Code   RO         3762    i.__scatterload_zeroinit  mc_w.l(handlers.o)
    0x08000f9e   0x08000f9e   0x00000002   PAD
    0x08000fa0   0x08000fa0   0x00000184   Code   RO         3683    i._fp_digits        mc_w.l(printfa.o)
    0x08001124   0x08001124   0x000006dc   Code   RO         3684    i._printf_core      mc_w.l(printfa.o)
    0x08001800   0x08001800   0x00000024   Code   RO         3685    i._printf_post_padding  mc_w.l(printfa.o)
    0x08001824   0x08001824   0x0000002e   Code   RO         3686    i._printf_pre_padding  mc_w.l(printfa.o)
    0x08001852   0x08001852   0x0000000a   Code   RO         3688    i._sputc            mc_w.l(printfa.o)
    0x0800185c   0x0800185c   0x00000040   Code   RO          359    i.initCanvas        canvas.o
    0x0800189c   0x0800189c   0x00000038   Code   RO          219    i.initLED           led.o
    0x080018d4   0x080018d4   0x00000018   Code   RO          338    i.initNVIC          nvic.o
    0x080018ec   0x080018ec   0x0000002a   Code   RO          195    i.initSysTick       delay.o
    0x08001916   0x08001916   0x00000002   PAD
    0x08001918   0x08001918   0x00000094   Code   RO          290    i.initUART          uart.o
    0x080019ac   0x080019ac   0x000002b4   Code   RO            1    i.main              main.o
    0x08001c60   0x08001c60   0x00000092   Code   RO          395    i.packProtocol      protocol.o
    0x08001cf2   0x08001cf2   0x00000002   PAD
    0x08001cf4   0x08001cf4   0x00000138   Code   RO          360    i.processBytes      canvas.o
    0x08001e2c   0x08001e2c   0x00000010   Code   RO          361    i.sendBytes         canvas.o
    0x08001e3c   0x08001e3c   0x0000002e   Code   RO          291    i.sendUartByte      uart.o
    0x08001e6a   0x08001e6a   0x00000002   PAD
    0x08001e6c   0x08001e6c   0x00000020   Code   RO          292    i.sendUartBytes     uart.o
    0x08001e8c   0x08001e8c   0x00000022   Code   RO          339    i.setNVIC           nvic.o
    0x08001eae   0x08001eae   0x0000009e   Code   RO          396    i.unpackProtocol    protocol.o
    0x08001f4c   0x08001f4c   0x00000044   Code   RO          362    i.updateCanvas      canvas.o
    0x08001f90   0x08001f90   0x00000020   Data   RO         3758    Region$$Table       anon$$obj.o


    Execution Region RW_IRAM1 (Exec base: 0x20000000, Load base: 0x08001fb0, Size: 0x000004f8, Max: 0x00005000, ABSOLUTE)

    Exec Addr    Load Addr    Size         Type   Attr      Idx    E Section Name        Object

    0x20000000   0x08001fb0   0x00000001   Data   RW          293    .data               uart.o
    0x20000001   0x08001fb1   0x00000001   PAD
    0x20000002   0x08001fb2   0x00000002   Data   RW          364    .data               canvas.o
    0x20000004   0x08001fb4   0x00000014   Data   RW         2010    .data               stm32f10x_rcc.o
    0x20000018        -       0x000000dc   Zero   RW          363    .bss                canvas.o
    0x200000f4   0x08001fc8   0x00000004   PAD
    0x200000f8        -       0x00000400   Zero   RW         3425    STACK               startup_stm32f10x_hd.o


==============================================================================

Image component sizes


      Code (inc. data)   RO Data    RW Data    ZI Data      Debug   Object Name

       460         14          0          2        220       3480   canvas.o
         0          0          0          0          0         32   core_cm3.o
        84          0          0          0          0        937   delay.o
        56          6          0          0          0        482   led.o
       692         38          0          0          0     242135   main.o
       172         22          0          0          0       2021   misc.o
        58          0          0          0          0       1217   nvic.o
       304          0          0          0          0       2540   protocol.o
        36          8        304          0       1024        816   startup_stm32f10x_hd.o
       282          0          0          0          0       2473   stm32f10x_gpio.o
        26          0          0          0          0       3850   stm32f10x_it.o
       244         26          0         20          0       3829   stm32f10x_rcc.o
       460          6          0          0          0       6655   stm32f10x_usart.o
       328         28          0          0          0       1885   system_stm32f10x.o
       330         22          0          1          0       3642   uart.o

    ----------------------------------------------------------------------
      3548        170        336         24       1248     275994   Object Totals
         0          0         32          0          0          0   (incl. Generated)
        16          0          0          1          4          0   (incl. Padding)

    ----------------------------------------------------------------------

      Code (inc. data)   RO Data    RW Data    ZI Data      Debug   Library Member Name

         0          0          0          0          0          0   entry.o
         0          0          0          0          0          0   entry10a.o
         0          0          0          0          0          0   entry11a.o
         8          4          0          0          0          0   entry2.o
         4          0          0          0          0          0   entry5.o
         0          0          0          0          0          0   entry7b.o
         0          0          0          0          0          0   entry8b.o
         8          4          0          0          0          0   entry9a.o
        30          0          0          0          0          0   handlers.o
        36          8          0          0          0         68   init.o
         0          0          0          0          0          0   iusefp.o
        30          0          0          0          0         68   llshl.o
        36          0          0          0          0         68   llsshr.o
        32          0          0          0          0         68   llushr.o
        36          0          0          0          0         68   memcpya.o
        36          0          0          0          0        108   memseta.o
      2276         86          0          0          0        520   printfa.o
        14          0          0          0          0         68   strlen.o
        44          0          0          0          0         80   uidiv.o
        98          0          0          0          0         92   uldiv.o
        48          0          0          0          0         68   cdrcmple.o
        20          0          0          0          0         68   cfrcmple.o
        56          0          0          0          0         88   d2f.o
       334          0          0          0          0        148   dadd.o
       222          0          0          0          0        100   ddiv.o
       186          0          0          0          0        176   depilogue.o
        48          0          0          0          0         68   dfixul.o
       228          0          0          0          0         96   dmul.o
        38          0          0          0          0         68   f2d.o
       176          0          0          0          0        140   fadd.o
       110          0          0          0          0        168   fepilogue.o
        50          0          0          0          0         68   ffixi.o
        18          0          0          0          0         68   fflti.o

    ----------------------------------------------------------------------
      4228        102          0          0          0       2532   Library Totals
         6          0          0          0          0          0   (incl. Padding)

    ----------------------------------------------------------------------

      Code (inc. data)   RO Data    RW Data    ZI Data      Debug   Library Name

      2688        102          0          0          0       1208   mc_w.l
      1534          0          0          0          0       1324   mf_w.l

    ----------------------------------------------------------------------
      4228        102          0          0          0       2532   Library Totals

    ----------------------------------------------------------------------

==============================================================================


      Code (inc. data)   RO Data    RW Data    ZI Data      Debug   

      7776        272        336         24       1248     275194   Grand Totals
      7776        272        336         24       1248     275194   ELF Image Totals
      7776        272        336         24          0          0   ROM Totals

==============================================================================

    Total RO  Size (Code + RO Data)                 8112 (   7.92kB)
    Total RW  Size (RW Data + ZI Data)              1272 (   1.24kB)
    Total ROM Size (Code + RO Data + RW Data)       8136 (   7.95kB)

==============================================================================

