:020000040800F2
:1000000000050020450100087F0300087703000871
:100010007B03000853020008AB0800080000000042
:10002000000000000000000000000000FD040008C7
:10003000570200080000000005040008110600082F
:100040005F0100085F0100085F0100085F01000810
:100050005F0100085F0100085F0100085F01000800
:100060005F0100085F0100085F0100085F010008F0
:100070005F0100085F0100085F0100085F010008E0
:100080005F0100085F0100085F0100085F010008D0
:100090005F0100085F0100085F0100085F010008C0
:1000A0005F0100085F0100085F0100085F010008B0
:1000B0005F0100085F0100085F0100085F010008A0
:1000C0005F0100085F0100085F0100085F01000890
:1000D0005F01000875060008D9060008DB06000865
:1000E0005F0100085F0100085F0100085F01000870
:1000F0005F0100085F0100085F0100085F01000860
:100100005F0100085F0100085F0100085F0100084F
:100110005F0100085F0100085F0100085F0100083F
:100120005F0100085F0100085F0100085F0100082F
:10013000DFF80CD000F05CF800480047E50E00083E
:10014000000500200648804706480047FEE7FEE716
:10015000FEE7FEE7FEE7FEE7FEE7FEE7FEE7FEE777
:10016000150600083101000840EA01039B0703D08F
:1001700009E008C9121F08C0042AFAD203E011F8E6
:10018000013B00F8013B521EF9D270472DE9F05FA8
:100190000546002092469B468846064681464024F6
:1001A0001BE0284641464746224600F042F85346A7
:1001B0005A46C01A914110D311461846224600F003
:1001C00029F82D1A67EB01084F462246012000212D
:1001D00000F020F817EB00094E41201EA4F10104A5
:1001E000DFDC484631462A464346BDE8F09F000022
:1001F000064C074D06E0E06840F0010394E8070074
:1002000098471034AC42F6D3FFF796FFC4170008A6
:10021000E4170008202A04DB203A00FA02F100204B
:1002200070479140C2F1200320FA03F31943904034
:100230007047202A04DB203A21FA02F0002170479F
:1002400021FA02F3D040C2F120029140084319463E
:10025000704700BFFEE770472DE9F04102460025D8
:100260000026002000230024002791F803C00CF092
:100270000F0591F803C00CF0100CBCF1000F03D077
:1002800091F802C04CEA050591F800C0BCF1000FDE
:1002900031D0146800202BE04FF0010C0CFA00F371
:1002A000B1F800C00CEA03069E4220D183004FF053
:1002B0000F0C0CFA03F7BC4305FA03FC4CEA0404E8
:1002C00091F803C0BCF1280F06D14FF0010C0CFAD5
:1002D00000FCC2F814C00AE091F803C0BCF1480F5A
:1002E00005D14FF0010C0CFA00FCC2F810C0401C04
:1002F0000828D1D31460B1F800C0BCF1FF0F34DD81
:10030000546800202EE000F1080C4FF0010808FAB4
:100310000CF3B1F800C00CEA03069E4221D1830021
:100320004FF00F0C0CFA03F7BC4305FA03FC4CEA40
:10033000040491F803C0BCF1280F05D100F1080CAA
:1003400008FA0CF8C2F8148091F803C0BCF1480F09
:1003500007D100F1080C4FF0010808FA0CF8C2F8B8
:100360001080401C0828CED35460BDE8F081416164
:1003700070470161704700BFFEE700BFFEE77047AE
:1003800070B5002100230F22C47804B3154C2468F3
:1003900004F4E064C4F5E064210AC1F10403CA4036
:1003A000447804FA03F184781440214309010E4C87
:1003B0000678A155047804F01F050124AC400578A7
:1003C0006D11AD0005F1E025C5F8004109E00478A4
:1003D00004F01F050124AC40044D0678761145F861
:1003E000264070BD0CED00E000E400E080E100E09C
:1003F00002490143024A1160704700000000FA05FB
:100400000CED00E07047000029B1064A92690243F2
:10041000044B9A6104E0034A92698243014B9A615A
:10042000704700000010024030B500210022002477
:1004300000232D4D6D6805F00C0121B1042905D074
:10044000082923D105E0294D056022E0274D0560EC
:100450001FE0254D6D6805F47012234D6D6805F49D
:100460008034022505EB92421CB9214D55430560AD
:100470000BE01D4D6D6805F400351DB11C4D554355
:10048000056002E0194D5543056002E0174D056017
:1004900000BF00BF144D6D6805F0F0010909154D4E
:1004A0006B5C0568DD4045600F4D6D6805F4E061EB
:1004B000090A104D6B5C4568DD4085600A4D6D682A
:1004C00005F46051C90A0B4D6B5C4568DD40C560A1
:1004D000054D6D6805F44041890B074D6B5CC5689F
:1004E000B5FBF3F5056130BD0010024000127A0043
:1004F00000093D000500002015000020704710B5E0
:1005000000F002F810BD00000CB500200190009032
:100510003348006840F480303149086000BF3048FB
:10052000006800F4003000900198401C0190009891
:1005300018B90198B0F5A06FF1D12948006800F40E
:10054000003010B10120009001E0002000900098E0
:10055000012843D12348006840F010002149086079
:100560000846006820F0030008600846006840F074
:10057000020008601A484068194948600846406807
:1005800048600846406840F480604860084640681B
:1005900020F47C1048600846406840F4E810486049
:1005A0000846006840F08070086000BF0C48006892
:1005B00000F000700028F9D00948406820F00300DE
:1005C000074948600846406840F00200486000BFA4
:1005D0000348406800F00C000828F9D10CBD000069
:1005E0000010024000200240042808D14FF0E02112
:1005F000096941F004014FF0E022116107E04FF07A
:10060000E021096921F004014FF0E02211617047F7
:100610007047000010B51348006840F00100114910
:10062000086008464068104908400E49486008467E
:1006300000680E4908400B4908600846006820F42D
:10064000802008600846406820F4FE0048604FF4AF
:100650001F008860FFF753FF4FF0006004490860F7
:1006600010BD0000001002400000FFF8FFFFF6FE82
:1006700008ED00E000B599B040F22551144800F0B3
:100680004FF890B1124800F007F9C1B21148027852
:100690000078401C0F4B18700DF8021018460078B7
:1006A000642802DB00201946087040F22441084803
:1006B00000F036F850B1064800F0EEF80548017831
:1006C000684600F083FF00200249087019B000BDA1
:1006D00000380140040000207047704701F40072A8
:1006E000B2F5007F00D100BFCA430280704721B13C
:1006F000828942F40052828104E082894DF6FF73C0
:100700001A408281704702460020B1F5007F00D177
:1007100000BF13880B400BB1012000E000207047A0
:1007200070B50246002400230025002040F66A161A
:10073000B14200D100BFC1F3421501F01F030126F1
:1007400006FA03F3012D02D19689334006E0022D0B
:1007500002D1168A334001E0968A33400C120126FA
:1007600006FA04F41688344013B10CB1012000E0FD
:10077000002070BDF0B503460024002600250020AF
:1007800040F66A17B94200D100BF1846C1F34214BF
:1007900001F01F06012707FA06F5012C01D10C30E4
:1007A00004E0022C01D1103000E014301AB10768C7
:1007B0002F43076002E00768AF430760F0BD000009
:1007C0002DE9F04786B005460E460024A24600BF3C
:1007D000A1460027B08900B100BF2F462C8A4CF6F5
:1007E000FF700440F08804432C82AC894EF6F3106D
:1007F0000440B08831890843718908430443AC81BF
:10080000AC8A4FF6FF400440B0890443AC8201A893
:10081000FFF70AFE1F48874202D1DDF810A001E071
:10082000DDF80CA0A88900F4004040B10AEBCA0032
:1008300000EB0A1031684900B0FBF1F807E00AEB61
:10084000CA0000EB0A1031688900B0FBF1F864209F
:10085000B8FBF0F004012009642101FB1089A8898C
:1008600000F4004040B1322000EBC900B0FBF1F0D1
:1008700000F00700044308E0322000EB0910642177
:10088000B0FBF1F000F00F0004432C8106B0BDE88E
:10089000F08700000038014001468888C0F3080056
:1008A0007047C1F308028280704700BFFEE7000076
:1008B0000FB4054B10B503A9044A029800F018F8CC
:1008C00010BC5DF814FB0000690D00081C0000203E
:1008D00002E008C8121F08C1002AFAD17047704709
:1008E000002001E001C1121F002AFBD17047000067
:1008F0002DE9FF4F8DB00F460546002606E025285E
:100900000BD0DDE90F1290476D1C761C287800286B
:10091000F5D111B03046BDE8F08F0024A246A146C3
:100920000122EC4900E0044315F8013F203B02FAA4
:1009300003F00842F7D128782A2810D06FF02F0250
:100940002878A0F13001092914D80AEB8A0102EBBA
:10095000410144F0020400EB010A6D1CF0E701CFF5
:100960005FEA000A03D544F40054CAF1000A44F0D7
:1009700002046D1C28782E2817D115F8010F44F0B9
:1009800004042A280ED06FF02F022878A0F130013D
:1009900009290AD809EB890102EB410100EB0109A1
:1009A0006D1CF2E757F8049B6D1C28786C280FD05B
:1009B00006DC4C2817D068280DD06A2814D104E032
:1009C000742810D07A280FD10DE044F400140AE006
:1009D00044F4801401E044F440146978814202D167
:1009E00004F580146D1C6D1C2A786E2A1FD00CDC57
:1009F000632A31D004DC002A8BD0582A11D1A3E01D
:100A0000642A68D0692A0CD165E0732A2ED004DCF0
:100A10006F2A73D0702A04D19BE0752A6FD0782A90
:100A20006ED01046DDE90F129047761C50E1C4F3FA
:100A30000250022806D0032809D0042801CF09D08B
:100A4000066045E101CFF117C0E9006140E101CF47
:100A500006803DE106703BE117F8040B8DF80000BD
:100A600000208DF80100EB46012003E057F804BB9D
:100A70004FF0FF3061074FF0000102D40DE008F1A4
:100A80000101884649450FDA8045F8DB1BF808105C
:100A90000029F4D108E008F1010188468142FADB1F
:100AA0001BF808100029F6D1DDE90F23AAEB080096
:100AB0008146214600F036F9304400EB080604E098
:100AC000DDE90F121BF8010B9047B8F10108F7D2CE
:100AD00021464846F7E00A21C4F302534FF0000BC9
:100AE0000891022B04D001CFC117032B09D00AE0D3
:100AF000FF1D27F00707F7E8020108E032E01FE0DA
:100B000020E000B2C117042B01D140B2C117031E6F
:100B100071F1000307DA4FF0000CD0EB0C006CEB26
:100B200001012D2302E0230504D52B238DF8243069
:100B3000012303E0E30701D02023F7E7984658E0BC
:100B40000A2110E010210EE010204FF0000B089059
:100B50000CE010214FF0000B44F004044FF00809A2
:100B6000089103E008214FF0000B0891C4F30253F1
:100B7000022B04D001CF0021032B06D006E0FF1D7D
:100B800027F00707F7E8020103E080B2042B00D149
:100B9000C0B24FF0000823072BD5702A07D0DDF82C
:100BA00020C08CF0100C5CEA0B0C05D00EE040234A
:100BB0008DF82430012308E050EA010306D03023E9
:100BC0008DF824308DF8252002239846DDF820C0CA
:100BD0008CF0080C5CEA0B0C0BD150EA010301D13C
:100BE000630706D530238DF824304FF00108A9F1B2
:100BF0000109582A04D038A20B9208AA0A920BE0E5
:100C00003AA2F9E75B46089AFFF7C0FA0B9B9B5C98
:100C10000A9A521E0A92137050EA0102F2D10A98FF
:100C2000ADEB000000F1200B600702D524F4803406
:100C300001E04FF00109D94502DDA9EB0B0000E00E
:100C4000002000EB0B0141440890AAEB010AE003ED
:100C500006D4DDE90F232146504600F063F8064430
:100C60004FF0000908E009A911F80900DDE90F12A9
:100C7000904709F10109761CC145F4DBE0030CD56E
:100C8000DDE90F232146504600F04CF8064404E00D
:100C9000DDE90F1230209047761C0899481E089015
:100CA0000029F5DC08E00A980A990078491C0A91A5
:100CB000DDE90F129047761CBBF10001ABF1010B8F
:100CC000F1DC21465046DDE90F2300F019F8064417
:100CD0006D1C1BE6092801003031323334353637BC
:100CE0003839616263646566000000003031323378
:100CF0003435363738394142434445460000000018
:100D00002DE9F041044600251E461746880404D408
:100D100005E039462020B0476D1C641EF9D52846F1
:100D2000BDE8F0812DE9F041044600251E469046BD
:100D3000C80301D5302700E02027880404D505E04A
:100D400041463846B0476D1C641EF9D52846BDE8BB
:100D5000F081000010B54FF400510248FFF709FB85
:100D600010BD00000010014070B504460D46E1B210
:100D70000748FFF796FD00BF40210548FFF7C3FC79
:100D80000028F9D040210248FFF7A8FC204670BD9A
:100D9000003801400146002019E04FF0FF3200EB1F
:100DA000400303EB001301EB43035A80002200EBE6
:100DB000400303EB001321F81320FF2200EB400354
:100DC00003EB001301EB43031A71421CD0B2052858
:100DD000E3DB704708B501211020FFF715FB4FF446
:100DE0000050ADF8000010208DF8030003208DF8AE
:100DF000020069460448FFF72FFA4FF400510248F9
:100E0000FFF7B5FA08BD00000010014010B5044618
:100E10002046FFF7EDFA01231A460021252000F0B5
:100E200071FC10BD10B56FF00400FFF7DDFB4FF053
:100E3000E020006940F002004FF0E0210861084620
:100E4000006940F0010008610920486110BD000000
:100E500000B585B0012144F20400FFF7D5FA4FF444
:100E60000070ADF8100018208DF8130003208DF8E5
:100E7000120004A91948FFF7EFF94FF48060ADF8AC
:100E8000100004208DF8130004A91448FFF7E4F9BA
:100E90004FF4E13000900020ADF80400ADF80600FA
:100EA000ADF80800ADF80C000C20ADF80A0069465A
:100EB0000B48FFF785FC01210948FFF718FC0122C8
:100EC00040F225510648FFF755FC012240F224412B
:100ED0000348FFF74FFC05B000BD000000080140CB
:100EE0000038014000BF00BFFFF79CFF4FF4A06037
:100EF000FFF78CFFFFF7ACFFFFF76CFFF948FFF738
:100F000049FF1DE3002418E304EB440000EB041048
:100F1000F44901EB4000B0F90200401C00287CD0ED
:100F200004EB440000EB041001EB4000B0F90200B8
:100F3000042873D006DC01280CD002286FD00328C7
:100F40006ED19EE1A0F50C502938002869D0012807
:100F5000F6D191E204EB440000EB0410E14931F8D2
:100F6000100000285ED104EB440000EB041001EBFC
:100F70004000007918BBDCA0FFF79AFCE0A0FFF767
:100F800097FC00250DE004EB440000EB0410D54A6B
:100F900002EB4000401D415DDBA0FFF789FC681CAF
:100FA00085B204EB440000EB0410CE4901EB400095
:100FB000808CA842E7DCD6A0FFF77AFC94E004EB33
:100FC000440000EB0410C74901EB40000079012800
:100FD000F4D1D0A0FFF76CFCC9A0FFF769FC002595
:100FE0000DE004EB440000EB0410BE4A02EB4000AD
:100FF000401D415DC4A0FFF75BFC681C85B204EB9B
:10100000440000EB0410B74901EB4000808CA8427B
:10101000E7DCBFA0FFF74CFC66E08CE2DEE164E0B9
:1010200066E20EE204EB440000EB0410AD4931F837
:101030001000012858D104EB440000EB041001EB30
:101040004000007918BBB9A0FFF732FCACA0FFF755
:101050002FFC00250DE004EB440000EB0410A14A36
:1010600002EB4000401D415DA7A0FFF721FC681C7A
:1010700085B204EB440000EB04109A4901EB4000F8
:10108000808CA842E7DCA2A0FFF712FC2CE004EB66
:10109000440000EB0410934901EB40000079012863
:1010A00022D1A8A0FFF704FC95A0FFF701FC0025C2
:1010B0000DE004EB440000EB04108A4A02EB400010
:1010C000401D415D90A0FFF7F3FB681C85B204EB67
:1010D000440000EB0410834901EB4000808CA842DF
:1010E000E7DC8BA0FFF7E4FB03E204EB440000EB3A
:1010F00004107C4931F8100000285AD104EB440058
:1011000000EB041001EB40000079032823D193A0E9
:10111000FFF7CEFB7AA0FFF7CBFB00250DE004EB39
:10112000440000EB04106F4A02EB4000401D415D9B
:1011300075A0FFF7BDFB681C85B204EB440000EB13
:101140000410684901EB4000808CA842E7DC70A0E5
:10115000FFF7AEFB94E004EB440000EB04106149A0
:1011600001EB400000790228F4D181A0FFF7A0FB39
:1011700063A0FFF79DFB00250DE004EB440000EBAE
:101180000410584A02EB4000401D415D5EA0FFF78D
:101190008FFB681C85B204EB440000EB041051493E
:1011A00001EB4000808CA842E7DC59A0FFF780FBF0
:1011B00066E004EB440000EB04104A4931F81000EB
:1011C00001285DD104EB440000EB041001EB40006A
:1011D0000079032825D100F0EFF96BA0FFF768FB39
:1011E00047A0FFF765FB00250DE004EB440000EB92
:1011F00004103C4A02EB4000401D415D42A0FFF755
:1012000057FB681C85B204EB440000EB0410354921
:1012100001EB4000808CA842E7DC3DA0FFF748FBD3
:101220002EE004EB440000EB04102E4901EB4000DB
:101230000079022824D1FFF78DFD58A0FFF738FB75
:101240002FA0FFF735FB00250DE004EB440000EB79
:101250000410244A02EB4000401D415D2AA0FFF724
:1012600027FB681C85B204EB440000EB04101D4909
:1012700001EB4000808CA842E7DC25A0FFF718FBBB
:1012800037E104EB440000EB0410164931F810007C
:1012900078B904EB440000EB04100A4602EB40006E
:1012A000D0F8051043A0FFF703FB19A0FFF700FBE0
:1012B00017E004EB440000EB04100A4931F8100079
:1012C00001280ED104EB440000EB04100A4602EBA7
:1012D0004000D0F805103CA0FFF7EAFA0CA0FFF799
:1012E000E7FA06E120000020505553484255545477
:1012F0004F4E203020505245535345442C2000007F
:101300004D5347203A2000002532582000000000AD
:101310000D0A000050555348425554544F4E20304A
:101320002052454C45415345442C200050555348CC
:10133000425554544F4E203120505245535345444A
:101340002C20000050555348425554544F4E2031E4
:101350002052454C45415345442C20005357495495
:101360004348425554544F4E2030204F4E2C2000BD
:10137000535749544348425554544F4E2030204F00
:1013800046462C200000000053574954434842551C
:1013900054544F4E2031204F4E2C20005357495467
:1013A0004348425554544F4E2031204F46462C203E
:1013B00000000000534C4944455220302C20564137
:1013C0004C55453A25640000534C49444552203160
:1013D0002C2056414C55453A2564000004EB44004E
:1013E00000EB0410574931F8100080B904EB4400B9
:1013F00000EB04100A4602EB4000D0F8051052A0A2
:10140000FFF756FAAFF2F800FFF752FA18E004EBD4
:10141000440000EB04104B4931F8100001280FD1B3
:1014200004EB440000EB04100A4602EB4000D0F845
:1014300005104AA0FFF73CFAAFF22C10FFF738FA7C
:1014400057E004EB440000EB04103E4901EB400080
:1014500000790A280FD104EB440000EB04100A467F
:1014600002EB4000D0F8051041A0FFF721FAAFF2DF
:101470006010FFF71DFA3CE004EB440000EB0410A1
:10148000304901EB400000790B2810D104EB4400F7
:1014900000EB04100A4602EB4000D0F8051039A01A
:1014A000FFF706FAAFF29810FFF702FA1FE004EB1D
:1014B000440000EB0410234901EB400000790C28A4
:1014C00015D104EB440000EB041001EB4000D0F810
:1014D0000500324909680844304908600846016837
:1014E0002FA0FFF7E5F9AFF2D810FFF7E1F900E020
:1014F00000BF00BF4FF0FF3004EB440101EB0411CB
:10150000104A02EB41014880002004EB440101EB4A
:10151000041122F81100FF2004EB440101EB041137
:1015200002EB41010871002004EB440101EB0411BE
:1015300002EB41018884601CC4B2052CFFF6E4ACC8
:10154000E0E40000200000204449414C20302C20E1
:1015500056414C55453A2564000000004449414C31
:1015600020312C2056414C55453A2564000000009E
:101570004B4559424F4152442C2056414C55453A17
:10158000256400004D4F5553452050524553532C70
:101590002056414C55453A256400000000000020CB
:1015A0004D4F55534520574845454C2C2056414CEE
:1015B00055453A256400000010B54FF4005102482B
:1015C000FEF7D5FE10BD000000100140F0B595B04B
:1015D00006460F46002501A802AB3A463146009068
:1015E0000AA800F0A0F800287ED100247FE004EBD8
:1015F000440000EB0410424901EB4000B0F9020046
:10160000BDF93010884230D1BDF8300004EB440100
:1016100001EB04113A4A02EB41014880BDF8320067
:1016200004EB440101EB041122F811009DF8340091
:1016300004EB440101EB041102EB41010871BDF818
:10164000040004EB440101EB041102EB4101888426
:1016500004EB440101EB041102EB4101481DBDF80C
:10166000042002A9FEF780FD44E004EB440000EBF7
:101670000410234901EB4000B0F90200401C00B9FE
:101680002546042C2FD1BDF8300005EB450101EBB8
:1016900005111B4A02EB41014880BDF8320005EB01
:1016A000450101EB051122F811009DF8340005EB0E
:1016B000450101EB051102EB41010871BDF8040081
:1016C00005EB450101EB051102EB4101888405EBB7
:1016D000450101EB051102EB4101481DBDF8042055
:1016E00002A9FEF741FD00E005E0601CC4B2052C34
:1016F000FFF67DAF01E015B0F0BD00BFFBE70000D5
:1017000020000020F8B504460D4616461F468DF809
:1017100000408DF801508DF802608DF80370684626
:10172000FEF72EFEF8BDF0B504461D46059E08885E
:1017300045F65827B84201D0FF20F0BDA2F11107AD
:10174000C889874201DDFF20F7E70023002004E07D
:101750000F5C1F44FBB2471CF8B2571E8742F7DCF0
:10176000501E085C984201D0FF20E6E788781028D8
:1017700026D1A2F110001E2801DDFF20DDE7B1F81F
:1017800003006080B1F80500A080B1F80700E08098
:10179000B1F8090000B22081B1F80B006081487BEC
:1017A00040B22073C8893080002005E000F11007A6
:1017B000CF5D2F54471CF8B2A2F110078742F5DC29
:1017C0000020BAE7E4170008000000202000000015
:1017D000D00800080418000820000020E0040000E1
:1017E000E008000800000000000000000001020303
:1017F00004010203040607080902040608000000A9
:0418000000000000E4
:0400000508000131BD
:00000001FF
