:020000040800F2
:10000000F8040020450100087B0300087303000882
:100010007703000853020008A7080008000000004A
:10002000000000000000000000000000F9040008CB
:100030005702000800000000010400080D06000837
:100040005F0100085F0100085F0100085F01000810
:100050005F0100085F0100085F0100085F01000800
:100060005F0100085F0100085F0100085F010008F0
:100070005F0100085F0100085F0100085F010008E0
:100080005F0100085F0100085F0100085F010008D0
:100090005F0100085F0100085F0100085F010008C0
:1000A0005F0100085F0100085F0100085F010008B0
:1000B0005F0100085F0100085F0100085F010008A0
:1000C0005F0100085F0100085F0100085F01000890
:1000D0005F01000871060008D5060008D706000871
:1000E0005F0100085F0100085F0100085F01000870
:1000F0005F0100085F0100085F0100085F01000860
:100100005F0100085F0100085F0100085F0100084F
:100110005F0100085F0100085F0100085F0100083F
:100120005F0100085F0100085F0100085F0100082F
:10013000DFF80CD000F05CF800480047CD0E000856
:10014000F80400200648804706480047FEE7FEE71F
:10015000FEE7FEE7FEE7FEE7FEE7FEE7FEE7FEE777
:10016000110600083101000840EA01039B0703D093
:1001700009E008C9121F08C0042AFAD203E011F8E6
:10018000013B00F8013B521EF9D270472DE9F05FA8
:100190000546002092469B468846064681464024F6
:1001A0001BE0284641464746224600F042F85346A7
:1001B0005A46C01A914110D311461846224600F003
:1001C00029F82D1A67EB01084F462246012000212D
:1001D00000F020F817EB00094E41201EA4F10104A5
:1001E000DFDC484631462A464346BDE8F09F000022
:1001F000064C074D06E0E06840F0010394E8070074
:1002000098471034AC42F6D3FFF796FFC0130008AE
:10021000E0130008202A04DB203A00FA02F1002053
:1002200070479140C2F1200320FA03F31943904034
:100230007047202A04DB203A21FA02F0002170479F
:1002400021FA02F3D040C2F120029140084319463E
:10025000704700BFFEE770472DE9F04102460025D8
:100260000026002000230024002791F803C00CF092
:100270000F0591F803C00CF0100CBCF1000F03D077
:1002800091F802C04CEA050591F800C0BCF1000FDE
:1002900031D0146800202BE04FF0010C0CFA00F371
:1002A000B1F800C00CEA03069E4220D183004FF053
:1002B0000F0C0CFA03F7BC4305FA03FC4CEA0404E8
:1002C00091F803C0BCF1280F06D14FF0010C0CFAD5
:1002D00000FCC2F814C00AE091F803C0BCF1480F5A
:1002E00005D14FF0010C0CFA00FCC2F810C0401C04
:1002F0000828D1D31460B1F800C0BCF1FF0F34DD81
:10030000546800202EE000F1080C4FF0010808FAB4
:100310000CF3B1F800C00CEA03069E4221D1830021
:100320004FF00F0C0CFA03F7BC4305FA03FC4CEA40
:10033000040491F803C0BCF1280F05D100F1080CAA
:1003400008FA0CF8C2F8148091F803C0BCF1480F09
:1003500007D100F1080C4FF0010808FA0CF8C2F8B8
:100360001080401C0828CED35460BDE8F081416164
:10037000704700BFFEE700BFFEE7704770B5002181
:1003800000230F22C47804B3154C246804F4E064FD
:10039000C4F5E064210AC1F10403CA40447804FAB8
:1003A00003F184781440214309010E4C0678A155CD
:1003B000047804F01F050124AC4005786D11AD00F0
:1003C00005F1E025C5F8004109E0047804F01F05B7
:1003D0000124AC40044D0678761145F8264070BDE6
:1003E0000CED00E000E400E080E100E002490143A0
:1003F000024A1160704700000000FA050CED00E0B1
:100400007047000029B1064A92690243044B9A6181
:1004100004E0034A92698243014B9A6170470000ED
:100420000010024030B500210022002400232D4D91
:100430006D6805F00C0121B1042905D0082923D1EC
:1004400005E0294D056022E0274D05601FE0254DA0
:100450006D6805F47012234D6D6805F48034022533
:1004600005EB92421CB9214D554305600BE01D4D33
:100470006D6805F400351DB11C4D5543056002E063
:10048000194D5543056002E0174D056000BF00BFE0
:10049000144D6D6805F0F0010909154D6B5C056898
:1004A000DD4045600F4D6D6805F4E061090A104DAF
:1004B0006B5C4568DD4085600A4D6D6805F46051F0
:1004C000C90A0B4D6B5C4568DD40C560054D6D6824
:1004D00005F44041890B074D6B5CC568B5FBF3F52E
:1004E000056130BD0010024000127A0000093D0095
:1004F0000100002011000020704710B500F002F844
:1005000010BD00000CB50020019000903348006839
:1005100040F480303149086000BF3048006800F482
:10052000003000900198401C0190009818B9019883
:10053000B0F5A06FF1D12948006800F4003010B187
:100540000120009001E0002000900098012843D194
:100550002348006840F01000214908600846006800
:1005600020F0030008600846006840F002000860C0
:100570001A4840681949486008464068486008467B
:10058000406840F4806048600846406820F47C1071
:1005900048600846406840F4E81048600846006833
:1005A00040F08070086000BF0C48006800F00070E8
:1005B0000028F9D00948406820F003000749486046
:1005C0000846406840F00200486000BF03484068A9
:1005D00000F00C000828F9D10CBD0000001002400A
:1005E00000200240042808D14FF0E021096941F0C1
:1005F00004014FF0E022116107E04FF0E0210969AA
:1006000021F004014FF0E0221161704770470000B3
:1006100010B51348006840F0010011490860084611
:100620004068104908400E494860084600680E4975
:1006300008400B4908600846006820F480200860E4
:100640000846406820F4FE0048604FF41F008860B0
:10065000FFF753FF4FF000600449086010BD000031
:10066000001002400000FFF8FFFFF6FE08ED00E07A
:1006700000B599B040F22551144800F04FF890B100
:10068000124800F007F9C1B2114802780078401C06
:100690000F4B18700DF8021018460078642802DB22
:1006A00000201946087040F22441084800F036F84E
:1006B00050B1064800F0EEF805480178684600F0B1
:1006C00083FD00200249087019B000BD00380140C8
:1006D000000000207047704701F40072B2F5007FFF
:1006E00000D100BFCA430280704721B1828942F421
:1006F0000052828104E082894DF6FF731A408281A4
:10070000704702460020B1F5007F00D100BF13887A
:100710000B400BB1012000E00020704770B502468D
:10072000002400230025002040F66A16B14200D1C3
:1007300000BFC1F3421501F01F03012606FA03F3BF
:10074000012D02D19689334006E0022D02D1168A8E
:10075000334001E0968A33400C12012606FA04F475
:100760001688344013B10CB1012000E0002070BDA8
:10077000F0B50346002400260025002040F66A1745
:10078000B94200D100BF1846C1F3421401F01F0660
:10079000012707FA06F5012C01D10C3004E0022CE8
:1007A00001D1103000E014301AB107682F43076000
:1007B00002E00768AF430760F0BD00002DE9F04795
:1007C00086B005460E460024A24600BFA14600277B
:1007D000B08900B100BF2F462C8A4CF6FF70044050
:1007E000F08804432C82AC894EF6F3100440B088A4
:1007F00031890843718908430443AC81AC8A4FF6C0
:10080000FF400440B0890443AC8201A8FFF70AFE10
:100810001F48874202D1DDF810A001E0DDF80CA0EE
:10082000A88900F4004040B10AEBCA0000EB0A10AE
:1008300031684900B0FBF1F807E00AEBCA0000EBB1
:100840000A1031688900B0FBF1F86420B8FBF0F0C1
:1008500004012009642101FB1089A88900F40040EB
:1008600040B1322000EBC900B0FBF1F000F007000E
:10087000044308E0322000EB09106421B0FBF1F0E2
:1008800000F00F0004432C8106B0BDE8F0870000A3
:100890000038014001468888C0F308007047C1F362
:1008A00008028280704700BFFEE700000FB4054BCE
:1008B00010B503A9044A029800F018F810BC5DF8BE
:1008C00014FB0000510D00081800002002E008C8C9
:1008D000121F08C1002AFAD170477047002001E0BA
:1008E00001C1121F002AFBD1704700002DE9FF4F04
:1008F0008DB00F460546002606E025280BD0DDE921
:100900000F1290476D1C761C28780028F5D111B085
:100910003046BDE8F08F0024A246A1460122EC49F2
:1009200000E0044315F8013F203B02FA03F00842BF
:10093000F7D128782A2810D06FF02F022878A0F15C
:100940003001092914D80AEB8A0102EB410144F075
:10095000020400EB010A6D1CF0E701CF5FEA000A18
:1009600003D544F40054CAF1000A44F002046D1C9B
:1009700028782E2817D115F8010F44F004042A28EE
:100980000ED06FF02F022878A0F1300109290AD883
:1009900009EB890102EB410100EB01096D1CF2E753
:1009A00057F8049B6D1C28786C280FD006DC4C2867
:1009B00017D068280DD06A2814D104E0742810D00C
:1009C0007A280FD10DE044F400140AE044F48014B6
:1009D00001E044F440146978814202D104F58014A6
:1009E0006D1C6D1C2A786E2A1FD00CDC632A31D056
:1009F00004DC002A8BD0582A11D1A3E0642A68D0E5
:100A0000692A0CD165E0732A2ED004DC6F2A73D0DA
:100A1000702A04D19BE0752A6FD0782A6ED01046D8
:100A2000DDE90F129047761C50E1C4F30250022812
:100A300006D0032809D0042801CF09D0066045E17B
:100A400001CFF117C0E9006140E101CF06803DE12F
:100A500006703BE117F8040B8DF8000000208DF8BC
:100A60000100EB46012003E057F804BB4FF0FF30D4
:100A700061074FF0000102D40DE008F10101884642
:100A800049450FDA8045F8DB1BF808100029F4D13E
:100A900008E008F1010188468142FADB1BF80810E2
:100AA0000029F6D1DDE90F23AAEB08008146214693
:100AB00000F036F9304400EB080604E0DDE90F12DF
:100AC0001BF8010B9047B8F10108F7D221464846C0
:100AD000F7E00A21C4F302534FF0000B0891022BF8
:100AE00004D001CFC117032B09D00AE0FF1D27F066
:100AF0000707F7E8020108E032E01FE020E000B25B
:100B0000C117042B01D140B2C117031E71F10003BC
:100B100007DA4FF0000CD0EB0C006CEB01012D2339
:100B200002E0230504D52B238DF82430012303E0B4
:100B3000E30701D02023F7E7984658E00A2110E0A8
:100B400010210EE010204FF0000B08900CE0102157
:100B50004FF0000B44F004044FF00809089103E043
:100B600008214FF0000B0891C4F30253022B04D06C
:100B700001CF0021032B06D006E0FF1D27F0070759
:100B8000F7E8020103E080B2042B00D1C0B24FF0BD
:100B9000000823072BD5702A07D0DDF820C08CF081
:100BA000100C5CEA0B0C05D00EE040238DF82430CD
:100BB000012308E050EA010306D030238DF82430E9
:100BC0008DF8252002239846DDF820C08CF0080C13
:100BD0005CEA0B0C0BD150EA010301D1630706D587
:100BE00030238DF824304FF00108A9F10109582A6B
:100BF00004D038A20B9208AA0A920BE03AA2F9E7B5
:100C00005B46089AFFF7C2FA0B9B9B5C0A9A521E3E
:100C10000A92137050EA0102F2D10A98ADEB00007B
:100C200000F1200B600702D524F4803401E04FF07E
:100C30000109D94502DDA9EB0B0000E0002000EB23
:100C40000B0141440890AAEB010AE00306D4DDE958
:100C50000F232146504600F063F806444FF0000988
:100C600008E009A911F80900DDE90F12904709F120
:100C70000109761CC145F4DBE0030CD5DDE90F2347
:100C80002146504600F04CF8064404E0DDE90F121E
:100C900030209047761C0899481E08900029F5DC02
:100CA00008E00A980A990078491C0A91DDE90F12B8
:100CB0009047761CBBF10001ABF1010BF1DC214642
:100CC0005046DDE90F2300F019F806446D1C1BE6C1
:100CD0000928010030313233343536373839616212
:100CE00063646566000000003031323334353637D6
:100CF0003839414243444546000000002DE9F041A7
:100D0000044600251E461746880404D405E03946EB
:100D10002020B0476D1C641EF9D52846BDE8F0813F
:100D20002DE9F041044600251E469046C80301D532
:100D3000302700E02027880404D505E041463846E6
:100D4000B0476D1C641EF9D52846BDE8F08100004F
:100D500070B504460D46E1B20748FFF7A0FD00BF9D
:100D600040210548FFF7CDFC0028F9D0402102487A
:100D7000FFF7B2FC204670BD00380140014600205C
:100D800019E04FF0FF3200EB400303EB001301EBDF
:100D900043035A80002200EB400303EB001321F8C9
:100DA0001320FF2200EB400303EB001301EB43038E
:100DB0001A71421CD0B20528E3DB704708B5012147
:100DC0001020FFF71FFB4FF40050ADF8000010207B
:100DD0008DF8030003208DF8020069460448FFF7F0
:100DE0003BFA4FF400510248FFF7C1FA08BD00007A
:100DF0000010014010B504462046FFF7F7FA012322
:100E00001A460021252000F07BFA10BD10B56FF0C6
:100E10000400FFF7E7FB4FF0E020006940F002001C
:100E20004FF0E02108610846006940F001000861C8
:100E30000920486110BD000000B585B0012144F2D1
:100E40000400FFF7DFFA4FF40070ADF8100018202F
:100E50008DF8130003208DF8120004A91948FFF73C
:100E6000FBF94FF48060ADF8100004208DF81300FA
:100E700004A91448FFF7F0F94FF4E1300090002086
:100E8000ADF80400ADF80600ADF80800ADF80C00B0
:100E90000C20ADF80A0069460B48FFF78FFC0121D2
:100EA0000948FFF722FC012240F225510648FFF7CE
:100EB0005FFC012240F224410348FFF759FC05B0D2
:100EC00000BD000000080140003801400EB500BF21
:100ED00000BFFFF79BFF4FF4A060FFF78BFFFFF70A
:100EE000ABFFFFF76BFF9548FFF748FF24E10024B5
:100EF0001FE104EB440000EB0410904901EB4000BB
:100F0000B0F90200401C00287ED004EB440000EB46
:100F1000041001EB4000B0F90200B0F57B7F03D074
:100F2000B0F57D7F71D17BE004EB440000EB041051
:100F3000824931F81000002871D104EB440000EB25
:100F4000041001EB40000079062838D17CA0FFF79F
:100F5000ADFC04EB440000EB0410784901EB4000C9
:100F6000C17A04EB440000EB0410744A02EB400029
:100F7000807A04EB440202EB0412704B03EB420252
:100F8000527ACDE90020029104EB440000EB0410FA
:100F90001D4605EB4000037A04EB440000EB04100F
:100FA00005EB4000C27904EB440000EB041005EBB4
:100FB0004000B0F9051067A0FFF778FC2FE004EBC4
:100FC000440000EB04105D4901EB40000079072864
:100FD00025D168A0FFF76AFC6AA0FFF767FC00252F
:100FE0000DE004EB440000EB0410544A02EB400017
:100FF000401D415D65A0FFF759FC681C85B204EBFC
:10100000440000EB041001E091E06DE04B4901EB7E
:101010004000808CA842E4DC5EA0FFF747FC64E05F
:1010200004EB440000EB0410444931F810000028A0
:1010300059D104EB440000EB041001EB40000079AF
:10104000082823D154A0FFF731FC4EA0FFF72EFC57
:1010500000250DE004EB440000EB0410374A02EBDE
:101060004000401D415D49A0FFF720FC681C85B28F
:1010700004EB440000EB0410304901EB4000808C8D
:10108000A842E7DC43A0FFF711FC2CE004EB44008E
:1010900000EB0410294901EB40000079092822D116
:1010A00043A0FFF703FC37A0FFF700FC00250DE08D
:1010B00004EB440000EB0410204A02EB4000401D0A
:1010C000415D32A0FFF7F2FB681C85B204EB4400DF
:1010D00000EB0410194901EB4000808CA842E7DCCA
:1010E0002CA0FFF7E3FB00E000BF00BF4FF0FF3094
:1010F00004EB440101EB0411104A02EB410148806A
:10110000002004EB440101EB041122F81100FF2040
:1011100004EB440101EB041102EB410108710020D2
:1011200004EB440101EB041102EB41018884601CD3
:10113000C4B2052CFFF6DDAED9E600001C0000208D
:10114000434C4F434B203020504552494F442C20B4
:10115000000000004441544554494D45203A2025A3
:10116000642D25642D2564202025643A25643A25C4
:10117000640D0A00434C4F434B203020414C4152F8
:101180004D2C20004D5347203A2000002532582096
:10119000000000000D0A00004C43444441544554F3
:1011A000494D45203020504552494F442C200000E5
:1011B0004C43444441544554494D45203020414C12
:1011C00041524D2C20000000F0B595B006460F4668
:1011D000002501A802AB3A46314600900AA800F06B
:1011E000A0F800287ED100247FE004EB440000EB4F
:1011F0000410424901EB4000B0F90200BDF9301083
:10120000884230D1BDF8300004EB440101EB0411F9
:101210003A4A02EB41014880BDF8320004EB440138
:1012200001EB041122F811009DF8340004EB440195
:1012300001EB041102EB41010871BDF8040004EB5D
:10124000440101EB041102EB4101888404EB4401E9
:1012500001EB041102EB4101481DBDF8042002A975
:10126000FEF782FF44E004EB440000EB0410234946
:1012700001EB4000B0F90200401C00B92546042CE7
:101280002FD1BDF8300005EB450101EB05111B4ADC
:1012900002EB41014880BDF8320005EB450101EB4E
:1012A000051122F811009DF8340005EB450101EB12
:1012B000051102EB41010871BDF8040005EB450181
:1012C00001EB051102EB4101888405EB450101EBBF
:1012D000051102EB4101481DBDF8042002A9FEF7EB
:1012E00043FF00E005E0601CC4B2052CFFF67DAFB3
:1012F00001E015B0F0BD00BFFBE700001C000020BE
:10130000F8B504460D4616461F468DF800408DF888
:1013100001508DF802608DF803706846FFF72EF8D3
:10132000F8BDF0B504461D46059E088845F65827C9
:10133000B84201D0FF20F0BDA2F11107C889874251
:1013400001DDFF20F7E70023002004E00F5C1F44CD
:10135000FBB2471CF8B2571E8742F7DC501E085CF0
:10136000984201D0FF20E6E78878102826D1A2F124
:1013700010001E2801DDFF20DDE7B1F803006080CA
:10138000B1F80500A080B1F80700E080B1F80900CD
:1013900000B22081B1F80B006081487B40B220731D
:1013A000C8893080002005E000F11007CF5D2F5480
:1013B000471CF8B2A2F110078742F5DC0020BAE71B
:1013C000E0130008000000201C000000CC0800080A
:1013D000FC1300081C000020DC040000DC080008EE
:1013E00000000000000102030401020304060708D4
:0C13F000090204060800000000000000D4
:0400000508000131BD
:00000001FF
