Component: ARM Compiler 5.06 update 5 (build 528) Tool: armlink [4d35e2]

==============================================================================

Section Cross References

    main.o(i.main) refers to delay.o(i.initSysTick) for initSysTick
    main.o(i.main) refers to nvic.o(i.initNVIC) for initNVIC
    main.o(i.main) refers to uart.o(i.initUART) for initUART
    main.o(i.main) refers to led.o(i.initLED) for initLED
    main.o(i.main) refers to canvas.o(i.initCanvas) for initCanvas
    main.o(i.main) refers to printf8.o(i.__0printf$8) for __2printf
    main.o(i.main) refers to led.o(i.openLED) for openLED
    main.o(i.main) refers to led.o(i.closeLED) for closeLED
    main.o(i.main) refers to canvas.o(.bss) for events
    main.o(i.main) refers to main.o(.data) for wheel
    delay.o(i.initSysTick) refers to misc.o(i.SysTick_CLKSourceConfig) for SysTick_CLKSourceConfig
    led.o(i.blinkLED) refers to stm32f10x_gpio.o(i.GPIO_ResetBits) for GPIO_ResetBits
    led.o(i.blinkLED) refers to led.o(i.toggleLED) for toggleLED
    led.o(i.blinkLED) refers to delay.o(i.Delay_ms) for Delay_ms
    led.o(i.closeLED) refers to stm32f10x_gpio.o(i.GPIO_SetBits) for GPIO_SetBits
    led.o(i.initLED) refers to stm32f10x_rcc.o(i.RCC_APB2PeriphClockCmd) for RCC_APB2PeriphClockCmd
    led.o(i.initLED) refers to stm32f10x_gpio.o(i.GPIO_Init) for GPIO_Init
    led.o(i.initLED) refers to stm32f10x_gpio.o(i.GPIO_ResetBits) for GPIO_ResetBits
==============================================================================

Removing Unused input sections from the image.

    Removing delay.o(i.Delay_ms), (42 bytes).
    Removing delay.o(i.Delay_us), (32 bytes).
    Removing led.o(i.blinkLED), (60 bytes).
    Removing led.o(i.toggleLED), (20 bytes).
    Removing dht11.o(i.initDHT11), (64 bytes).
    Removing dht11.o(i.readByte), (120 bytes).
    Removing dht11.o(i.readDHT11), (196 bytes).
    Removing dht11.o(i.setLineIn), (32 bytes).
    Removing dht11.o(i.setLineOut), (48 bytes).
    Removing uart.o(i.sendUartByte), (46 bytes).
    Removing uart.o(i.sendUartBytes), (32 bytes).
    Removing canvas.o(i.sendBytes), (2 bytes).
    Removing canvas.o(i.updateCanvas), (68 bytes).
    Removing canvas.o(.data), (2 bytes).
    Removing protocol.o(i.packProtocol), (146 bytes).
    Removing misc.o(i.NVIC_SetVectorTable), (20 bytes).
    Removing misc.o(i.NVIC_SystemLPConfig), (32 bytes).
    Removing stm32f10x_adc.o(i.ADC_AnalogWatchdogCmd), (20 bytes).
==============================================================================

Image Symbol Table

    Local Symbols

    Symbol Name                              Value     Ov Type        Size  Object(Section)

    ../clib/microlib/division.c              0x00000000   Number         0  uldiv.o ABSOLUTE
    ../clib/microlib/division.c              0x00000000   Number         0  uidiv.o ABSOLUTE
    ../clib/microlib/init/entry.s            0x00000000   Number         0  entry.o ABSOLUTE
    ../clib/microlib/init/entry.s            0x00000000   Number         0  entry11b.o ABSOLUTE
    ../clib/microlib/init/entry.s            0x00000000   Number         0  entry2.o ABSOLUTE
    ../clib/microlib/init/entry.s            0x00000000   Number         0  entry10b.o ABSOLUTE
    ../clib/microlib/init/entry.s            0x00000000   Number         0  entry9a.o ABSOLUTE
    ../clib/microlib/init/entry.s            0x00000000   Number         0  entry9b.o ABSOLUTE
    ../clib/microlib/init/entry.s            0x00000000   Number         0  entry10a.o ABSOLUTE
    ../clib/microlib/init/entry.s            0x00000000   Number         0  entry7a.o ABSOLUTE
    ../clib/microlib/init/entry.s            0x00000000   Number         0  entry11a.o ABSOLUTE
    ../clib/microlib/init/entry.s            0x00000000   Number         0  entry5.o ABSOLUTE
    ../clib/microlib/init/entry.s            0x00000000   Number         0  entry8b.o ABSOLUTE
    ../clib/microlib/init/entry.s            0x00000000   Number         0  entry8a.o ABSOLUTE
    ../clib/microlib/init/entry.s            0x00000000   Number         0  entry7b.o ABSOLUTE
    ../clib/microlib/longlong.c              0x00000000   Number         0  llshl.o ABSOLUTE
    ../clib/microlib/longlong.c              0x00000000   Number         0  llsshr.o ABSOLUTE
    ../clib/microlib/longlong.c              0x00000000   Number         0  llushr.o ABSOLUTE
    ../clib/microlib/printf/printf.c         0x00000000   Number         0  printfb.o ABSOLUTE
    ../clib/microlib/printf/printf.c         0x00000000   Number         0  printf7.o ABSOLUTE
    ../clib/microlib/printf/printf.c         0x00000000   Number         0  printf2.o ABSOLUTE
    ../clib/microlib/printf/printf.c         0x00000000   Number         0  printf0.o ABSOLUTE
    ../clib/microlib/printf/printf.c         0x00000000   Number         0  printf6.o ABSOLUTE
    ../clib/microlib/printf/printf.c         0x00000000   Number         0  printfa.o ABSOLUTE
    ../clib/microlib/printf/printf.c         0x00000000   Number         0  printf8.o ABSOLUTE
    ../clib/microlib/printf/printf.c         0x00000000   Number         0  printf1.o ABSOLUTE
    ../clib/microlib/printf/printf.c         0x00000000   Number         0  printf5.o ABSOLUTE
    ../clib/microlib/printf/printf.c         0x00000000   Number         0  printf4.o ABSOLUTE
    ../clib/microlib/printf/printf.c         0x00000000   Number         0  printf3.o ABSOLUTE
    ../clib/microlib/printf/stubs.s          0x00000000   Number         0  stubs.o ABSOLUTE
    ../clib/microlib/stdio/streams.c         0x00000000   Number         0  stdout.o ABSOLUTE
    ../clib/microlib/string/memcpy.c         0x00000000   Number         0  memcpya.o ABSOLUTE
    ../clib/microlib/string/memcpy.c         0x00000000   Number         0  memcpyb.o ABSOLUTE
    ../clib/microlib/stubs.s                 0x00000000   Number         0  iusefp.o ABSOLUTE
    ../fplib/microlib/fpadd.c                0x00000000   Number         0  dadd.o ABSOLUTE
    ../fplib/microlib/fpdiv.c                0x00000000   Number         0  ddiv.o ABSOLUTE
    ../fplib/microlib/fpepilogue.c           0x00000000   Number         0  depilogue.o ABSOLUTE
    ../fplib/microlib/fpfix.c                0x00000000   Number         0  dfixul.o ABSOLUTE
    ../fplib/microlib/fpmul.c                0x00000000   Number         0  dmul.o ABSOLUTE
    ..\..\..\..\sdk\src\canvas.c             0x00000000   Number         0  canvas.o ABSOLUTE
    ..\..\..\..\sdk\src\protocol.c           0x00000000   Number         0  protocol.o ABSOLUTE
    ..\CMSIS\core_cm3.c                      0x00000000   Number         0  core_cm3.o ABSOLUTE
    ..\CMSIS\startup\startup_stm32f10x_hd.s  0x00000000   Number         0  startup_stm32f10x_hd.o ABSOLUTE
    ..\CMSIS\system_stm32f10x.c              0x00000000   Number         0  system_stm32f10x.o ABSOLUTE
    ..\DRIVER\DELAY\Delay.c                  0x00000000   Number         0  delay.o ABSOLUTE
    ..\DRIVER\DHT11\DHT11.c                  0x00000000   Number         0  dht11.o ABSOLUTE
    ..\DRIVER\LED\LED.c                      0x00000000   Number         0  led.o ABSOLUTE
    ..\DRIVER\NVIC\NVIC.c                    0x00000000   Number         0  nvic.o ABSOLUTE
    ..\DRIVER\UART\uart.c                    0x00000000   Number         0  uart.o ABSOLUTE
    ..\STLibraries\src\misc.c                0x00000000   Number         0  misc.o ABSOLUTE
    ..\STLibraries\src\stm32f10x_adc.c       0x00000000   Number         0  stm32f10x_adc.o ABSOLUTE
    ..\STLibraries\src\stm32f10x_bkp.c       0x00000000   Number         0  stm32f10x_bkp.o ABSOLUTE
    ..\STLibraries\src\stm32f10x_can.c       0x00000000   Number         0  stm32f10x_can.o ABSOLUTE
    ..\STLibraries\src\stm32f10x_cec.c       0x00000000   Number         0  stm32f10x_cec.o ABSOLUTE
    ..\STLibraries\src\stm32f10x_crc.c       0x00000000   Number         0  stm32f10x_crc.o ABSOLUTE
    ..\STLibraries\src\stm32f10x_dac.c       0x00000000   Number         0  stm32f10x_dac.o ABSOLUTE
    ..\STLibraries\src\stm32f10x_dbgmcu.c    0x00000000   Number         0  stm32f10x_dbgmcu.o ABSOLUTE
    ..\STLibraries\src\stm32f10x_dma.c       0x00000000   Number         0  stm32f10x_dma.o ABSOLUTE
    ..\STLibraries\src\stm32f10x_exti.c      0x00000000   Number         0  stm32f10x_exti.o ABSOLUTE
    ..\STLibraries\src\stm32f10x_flash.c     0x00000000   Number         0  stm32f10x_flash.o ABSOLUTE
    ..\STLibraries\src\stm32f10x_fsmc.c      0x00000000   Number         0  stm32f10x_fsmc.o ABSOLUTE
    ..\STLibraries\src\stm32f10x_gpio.c      0x00000000   Number         0  stm32f10x_gpio.o ABSOLUTE
    ..\STLibraries\src\stm32f10x_i2c.c       0x00000000   Number         0  stm32f10x_i2c.o ABSOLUTE
    ..\STLibraries\src\stm32f10x_iwdg.c      0x00000000   Number         0  stm32f10x_iwdg.o ABSOLUTE
    ..\STLibraries\src\stm32f10x_pwr.c       0x00000000   Number         0  stm32f10x_pwr.o ABSOLUTE
    ..\STLibraries\src\stm32f10x_rcc.c       0x00000000   Number         0  stm32f10x_rcc.o ABSOLUTE
    ..\STLibraries\src\stm32f10x_rtc.c       0x00000000   Number         0  stm32f10x_rtc.o ABSOLUTE
    ..\STLibraries\src\stm32f10x_sdio.c      0x00000000   Number         0  stm32f10x_sdio.o ABSOLUTE
    ..\STLibraries\src\stm32f10x_spi.c       0x00000000   Number         0  stm32f10x_spi.o ABSOLUTE
    ..\STLibraries\src\stm32f10x_tim.c       0x00000000   Number         0  stm32f10x_tim.o ABSOLUTE
    ..\STLibraries\src\stm32f10x_usart.c     0x00000000   Number         0  stm32f10x_usart.o ABSOLUTE
    ..\STLibraries\src\stm32f10x_wwdg.c      0x00000000   Number         0  stm32f10x_wwdg.o ABSOLUTE
    ..\USR\main.c                            0x00000000   Number         0  main.o ABSOLUTE
    ..\USR\stm32f10x_it.c                    0x00000000   Number         0  stm32f10x_it.o ABSOLUTE
    ..\\CMSIS\\core_cm3.c                    0x00000000   Number         0  core_cm3.o ABSOLUTE
    cdrcmple.s                               0x00000000   Number         0  cdrcmple.o ABSOLUTE
    dc.s                                     0x00000000   Number         0  dc.o ABSOLUTE
    handlers.s                               0x00000000   Number         0  handlers.o ABSOLUTE
    init.s                                   0x00000000   Number         0  init.o ABSOLUTE
    RESET                                    0x08000000   Section      304  startup_stm32f10x_hd.o(RESET)
    .ARM.Collect$$$$00000000                 0x08000130   Section        0  entry.o(.ARM.Collect$$$$00000000)
    .ARM.Collect$$$$00000001                 0x08000130   Section        4  entry2.o(.ARM.Collect$$$$00000001)
    .ARM.Collect$$$$00000004                 0x08000134   Section        4  entry5.o(.ARM.Collect$$$$00000004)
    .ARM.Collect$$$$00000008                 0x08000138   Section        0  entry7b.o(.ARM.Collect$$$$00000008)
    .ARM.Collect$$$$0000000A                 0x08000138   Section        0  entry8b.o(.ARM.Collect$$$$0000000A)
    .ARM.Collect$$$$0000000B                 0x08000138   Section        8  entry9a.o(.ARM.Collect$$$$0000000B)
    .ARM.Collect$$$$0000000D                 0x08000140   Section        0  entry10a.o(.ARM.Collect$$$$0000000D)
    .ARM.Collect$$$$0000000F                 0x08000140   Section        0  entry11a.o(.ARM.Collect$$$$0000000F)
    .ARM.Collect$$$$00002712                 0x08000140   Section        4  entry2.o(.ARM.Collect$$$$00002712)
    __lit__00000000                          0x08000140   Data           4  entry2.o(.ARM.Collect$$$$00002712)
    .text                                    0x08000144   Section       36  startup_stm32f10x_hd.o(.text)
    .text                                    0x08000168   Section        0  memcpya.o(.text)
    .text                                    0x0800018c   Section        0  uldiv.o(.text)
    .text                                    0x080001f0   Section       36  init.o(.text)
    .text                                    0x08000214   Section        0  llshl.o(.text)
    .text                                    0x08000232   Section        0  llushr.o(.text)
    i.BusFault_Handler                       0x08000252   Section        0  stm32f10x_it.o(i.BusFault_Handler)
    i.DebugMon_Handler                       0x08000256   Section        0  stm32f10x_it.o(i.DebugMon_Handler)
    i.GPIO_Init                              0x08000258   Section        0  stm32f10x_gpio.o(i.GPIO_Init)
    i.GPIO_ResetBits                         0x0800036e   Section        0  stm32f10x_gpio.o(i.GPIO_ResetBits)
    i.GPIO_SetBits                           0x08000372   Section        0  stm32f10x_gpio.o(i.GPIO_SetBits)
    i.HardFault_Handler                      0x08000376   Section        0  stm32f10x_it.o(i.HardFault_Handler)
    i.MemManage_Handler                      0x0800037a   Section        0  stm32f10x_it.o(i.MemManage_Handler)
    i.NMI_Handler                            0x0800037e   Section        0  stm32f10x_it.o(i.NMI_Handler)
    i.NVIC_Init                              0x08000380   Section        0  misc.o(i.NVIC_Init)
    i.NVIC_PriorityGroupConfig               0x080003f0   Section        0  misc.o(i.NVIC_PriorityGroupConfig)
    i.PendSV_Handler                         0x08000404   Section        0  stm32f10x_it.o(i.PendSV_Handler)
    i.RCC_APB2PeriphClockCmd                 0x08000408   Section        0  stm32f10x_rcc.o(i.RCC_APB2PeriphClockCmd)
    i.RCC_GetClocksFreq                      0x08000428   Section        0  stm32f10x_rcc.o(i.RCC_GetClocksFreq)
    i.SVC_Handler                            0x080004fc   Section        0  stm32f10x_it.o(i.SVC_Handler)
    i.SetSysClock                            0x080004fe   Section        0  system_stm32f10x.o(i.SetSysClock)
    SetSysClock                              0x080004ff   Thumb Code     8  system_stm32f10x.o(i.SetSysClock)
    i.SetSysClockTo72                        0x08000508   Section        0  system_stm32f10x.o(i.SetSysClockTo72)
    SetSysClockTo72                          0x08000509   Thumb Code   214  system_stm32f10x.o(i.SetSysClockTo72)
    i.SysTick_CLKSourceConfig                0x080005e8   Section        0  misc.o(i.SysTick_CLKSourceConfig)
    i.SysTick_Handler                        0x08000610   Section        0  stm32f10x_it.o(i.SysTick_Handler)
    i.SystemInit                             0x08000614   Section        0  system_stm32f10x.o(i.SystemInit)
    i.USART1_IRQHandler                      0x08000674   Section        0  uart.o(i.USART1_IRQHandler)
    i.USART2_IRQHandler                      0x080006d8   Section        0  uart.o(i.USART2_IRQHandler)
    i.USART3_IRQHandler                      0x080006da   Section        0  uart.o(i.USART3_IRQHandler)
    i.USART_ClearFlag                        0x080006dc   Section        0  stm32f10x_usart.o(i.USART_ClearFlag)
    i.USART_Cmd                              0x080006ee   Section        0  stm32f10x_usart.o(i.USART_Cmd)
    i.USART_GetFlagStatus                    0x08000706   Section        0  stm32f10x_usart.o(i.USART_GetFlagStatus)
    i.USART_GetITStatus                      0x08000720   Section        0  stm32f10x_usart.o(i.USART_GetITStatus)
    i.USART_ITConfig                         0x08000774   Section        0  stm32f10x_usart.o(i.USART_ITConfig)
    i.USART_Init                             0x080007c0   Section        0  stm32f10x_usart.o(i.USART_Init)
    i.USART_ReceiveData                      0x08000898   Section        0  stm32f10x_usart.o(i.USART_ReceiveData)
    i.USART_SendData                         0x080008a2   Section        0  stm32f10x_usart.o(i.USART_SendData)
    i.UsageFault_Handler                     0x080008aa   Section        0  stm32f10x_it.o(i.UsageFault_Handler)
    i.__0printf$8                            0x080008b0   Section        0  printf8.o(i.__0printf$8)
    i.__scatterload_copy                     0x080008d0   Section       14  handlers.o(i.__scatterload_copy)
    i.__scatterload_null                     0x080008de   Section        2  handlers.o(i.__scatterload_null)
    i.__scatterload_zeroinit                 0x080008e0   Section       14  handlers.o(i.__scatterload_zeroinit)
    i._printf_core                           0x080008f0   Section        0  printf8.o(i._printf_core)
    _printf_core                             0x080008f1   Thumb Code   996  printf8.o(i._printf_core)
    i._printf_post_padding                   0x08000d00   Section        0  printf8.o(i._printf_post_padding)
    _printf_post_padding                     0x08000d01   Thumb Code    36  printf8.o(i._printf_post_padding)
    i._printf_pre_padding                    0x08000d24   Section        0  printf8.o(i._printf_pre_padding)
    _printf_pre_padding                      0x08000d25   Thumb Code    46  printf8.o(i._printf_pre_padding)
    i.closeLED                               0x08000d54   Section        0  led.o(i.closeLED)
    i.fputc                                  0x08000d68   Section        0  uart.o(i.fputc)
    i.initCanvas                             0x08000d94   Section        0  canvas.o(i.initCanvas)
    i.initLED                                0x08000dd4   Section        0  led.o(i.initLED)
    i.initNVIC                               0x08000e0c   Section        0  nvic.o(i.initNVIC)
    i.initSysTick                            0x08000e24   Section        0  delay.o(i.initSysTick)
    i.initUART                               0x08000e50   Section        0  uart.o(i.initUART)
    i.main                                   0x08000ee4   Section        0  main.o(i.main)
    i.openLED                                0x080015b8   Section        0  led.o(i.openLED)
    i.processBytes                           0x080015cc   Section        0  canvas.o(i.processBytes)
    i.setNVIC                                0x08001704   Section        0  nvic.o(i.setNVIC)
    i.unpackProtocol                         0x08001726   Section        0  protocol.o(i.unpackProtocol)
    .data                                    0x20000000   Section        4  main.o(.data)
    wheel                                    0x20000000   Data           4  main.o(.data)
    .data                                    0x20000004   Section        1  uart.o(.data)
    tail                                     0x20000004   Data           1  uart.o(.data)
    .data                                    0x20000005   Section       20  stm32f10x_rcc.o(.data)
    APBAHBPrescTable                         0x20000005   Data          16  stm32f10x_rcc.o(.data)
    ADCPrescTable                            0x20000015   Data           4  stm32f10x_rcc.o(.data)
    .data                                    0x2000001c   Section        4  stdout.o(.data)
    .bss                                     0x20000020   Section      220  canvas.o(.bss)
    tbuffer                                  0x200000de   Data          30  canvas.o(.bss)
    STACK                                    0x20000100   Section     1024  startup_stm32f10x_hd.o(STACK)

    Global Symbols

    Symbol Name                              Value     Ov Type        Size  Object(Section)

    BuildAttributes$$THM_ISAv4$P$D$K$B$S$PE$A:L22UL41UL21$X:L11$S22US41US21$IEEE1$IW$USESV6$~STKCKD$USESV7$~SHL$OSPACE$ROPI$EBA8$MICROLIB$REQ8$PRES8$EABIv2 0x00000000   Number         0  anon$$obj.o ABSOLUTE
    __ARM_use_no_argv                        0x00000000   Number         0  main.o ABSOLUTE
    _printf_a                                0x00000000   Number         0  stubs.o ABSOLUTE
    _printf_c                                0x00000000   Number         0  stubs.o ABSOLUTE
    _printf_charcount                        0x00000000   Number         0  stubs.o ABSOLUTE
    _printf_d                                0x00000000   Number         0  stubs.o ABSOLUTE
    _printf_e                                0x00000000   Number         0  stubs.o ABSOLUTE
    _printf_f                                0x00000000   Number         0  stubs.o ABSOLUTE
    _printf_flags                            0x00000000   Number         0  stubs.o ABSOLUTE
    _printf_fp_dec                           0x00000000   Number         0  stubs.o ABSOLUTE
    _printf_fp_hex                           0x00000000   Number         0  stubs.o ABSOLUTE
    _printf_g                                0x00000000   Number         0  stubs.o ABSOLUTE
    _printf_i                                0x00000000   Number         0  stubs.o ABSOLUTE
    _printf_int_dec                          0x00000000   Number         0  stubs.o ABSOLUTE
    _printf_l                                0x00000000   Number         0  stubs.o ABSOLUTE
    _printf_lc                               0x00000000   Number         0  stubs.o ABSOLUTE
    _printf_ll                               0x00000000   Number         0  stubs.o ABSOLUTE
    _printf_lld                              0x00000000   Number         0  stubs.o ABSOLUTE
    _printf_lli                              0x00000000   Number         0  stubs.o ABSOLUTE
    _printf_llo                              0x00000000   Number         0  stubs.o ABSOLUTE
    _printf_llu                              0x00000000   Number         0  stubs.o ABSOLUTE
    _printf_llx                              0x00000000   Number         0  stubs.o ABSOLUTE
    _printf_longlong_dec                     0x00000000   Number         0  stubs.o ABSOLUTE
    _printf_longlong_hex                     0x00000000   Number         0  stubs.o ABSOLUTE
    _printf_longlong_oct                     0x00000000   Number         0  stubs.o ABSOLUTE
    _printf_ls                               0x00000000   Number         0  stubs.o ABSOLUTE
    _printf_mbtowc                           0x00000000   Number         0  stubs.o ABSOLUTE
    _printf_n                                0x00000000   Number         0  stubs.o ABSOLUTE
    _printf_o                                0x00000000   Number         0  stubs.o ABSOLUTE
    _printf_p                                0x00000000   Number         0  stubs.o ABSOLUTE
    _printf_percent                          0x00000000   Number         0  stubs.o ABSOLUTE
    _printf_pre_padding                      0x00000000   Number         0  stubs.o ABSOLUTE
    _printf_return_value                     0x00000000   Number         0  stubs.o ABSOLUTE
    _printf_s                                0x00000000   Number         0  stubs.o ABSOLUTE
    _printf_sizespec                         0x00000000   Number         0  stubs.o ABSOLUTE
    _printf_str                              0x00000000   Number         0  stubs.o ABSOLUTE
    _printf_truncate_signed                  0x00000000   Number         0  stubs.o ABSOLUTE
    _printf_truncate_unsigned                0x00000000   Number         0  stubs.o ABSOLUTE
    _printf_u                                0x00000000   Number         0  stubs.o ABSOLUTE
    _printf_wc                               0x00000000   Number         0  stubs.o ABSOLUTE
    _printf_wctomb                           0x00000000   Number         0  stubs.o ABSOLUTE
    _printf_widthprec                        0x00000000   Number         0  stubs.o ABSOLUTE
    _printf_x                                0x00000000   Number         0  stubs.o ABSOLUTE
    __cpp_initialize__aeabi_                  - Undefined Weak Reference
    __cxa_finalize                            - Undefined Weak Reference
    __decompress                              - Undefined Weak Reference
    _clock_init                               - Undefined Weak Reference
    _microlib_exit                            - Undefined Weak Reference
    __Vectors_Size                           0x00000130   Number         0  startup_stm32f10x_hd.o ABSOLUTE
    __Vectors                                0x08000000   Data           4  startup_stm32f10x_hd.o(RESET)
    __Vectors_End                            0x08000130   Data           0  startup_stm32f10x_hd.o(RESET)
    __main                                   0x08000131   Thumb Code     0  entry.o(.ARM.Collect$$$$00000000)
    _main_stk                                0x08000131   Thumb Code     0  entry2.o(.ARM.Collect$$$$00000001)
    _main_scatterload                        0x08000135   Thumb Code     0  entry5.o(.ARM.Collect$$$$00000004)
    __main_after_scatterload                 0x08000139   Thumb Code     0  entry5.o(.ARM.Collect$$$$00000004)
    _main_clock                              0x08000139   Thumb Code     0  entry7b.o(.ARM.Collect$$$$00000008)
    _main_cpp_init                           0x08000139   Thumb Code     0  entry8b.o(.ARM.Collect$$$$0000000A)
    _main_init                               0x08000139   Thumb Code     0  entry9a.o(.ARM.Collect$$$$0000000B)
    __rt_final_cpp                           0x08000141   Thumb Code     0  entry10a.o(.ARM.Collect$$$$0000000D)
    __rt_final_exit                          0x08000141   Thumb Code     0  entry11a.o(.ARM.Collect$$$$0000000F)
    Reset_Handler                            0x08000145   Thumb Code     8  startup_stm32f10x_hd.o(.text)
    ADC1_2_IRQHandler                        0x0800015f   Thumb Code     0  startup_stm32f10x_hd.o(.text)
    ADC3_IRQHandler                          0x0800015f   Thumb Code     0  startup_stm32f10x_hd.o(.text)
    CAN1_RX1_IRQHandler                      0x0800015f   Thumb Code     0  startup_stm32f10x_hd.o(.text)
    CAN1_SCE_IRQHandler                      0x0800015f   Thumb Code     0  startup_stm32f10x_hd.o(.text)
    DMA1_Channel1_IRQHandler                 0x0800015f   Thumb Code     0  startup_stm32f10x_hd.o(.text)
    DMA1_Channel2_IRQHandler                 0x0800015f   Thumb Code     0  startup_stm32f10x_hd.o(.text)
    DMA1_Channel3_IRQHandler                 0x0800015f   Thumb Code     0  startup_stm32f10x_hd.o(.text)
    DMA1_Channel4_IRQHandler                 0x0800015f   Thumb Code     0  startup_stm32f10x_hd.o(.text)
    DMA1_Channel5_IRQHandler                 0x0800015f   Thumb Code     0  startup_stm32f10x_hd.o(.text)
    DMA1_Channel6_IRQHandler                 0x0800015f   Thumb Code     0  startup_stm32f10x_hd.o(.text)
    DMA1_Channel7_IRQHandler                 0x0800015f   Thumb Code     0  startup_stm32f10x_hd.o(.text)
    DMA2_Channel1_IRQHandler                 0x0800015f   Thumb Code     0  startup_stm32f10x_hd.o(.text)
    DMA2_Channel2_IRQHandler                 0x0800015f   Thumb Code     0  startup_stm32f10x_hd.o(.text)
    DMA2_Channel3_IRQHandler                 0x0800015f   Thumb Code     0  startup_stm32f10x_hd.o(.text)
    DMA2_Channel4_5_IRQHandler               0x0800015f   Thumb Code     0  startup_stm32f10x_hd.o(.text)
    EXTI0_IRQHandler                         0x0800015f   Thumb Code     0  startup_stm32f10x_hd.o(.text)
    EXTI15_10_IRQHandler                     0x0800015f   Thumb Code     0  startup_stm32f10x_hd.o(.text)
    EXTI1_IRQHandler                         0x0800015f   Thumb Code     0  startup_stm32f10x_hd.o(.text)
    EXTI2_IRQHandler                         0x0800015f   Thumb Code     0  startup_stm32f10x_hd.o(.text)
    EXTI3_IRQHandler                         0x0800015f   Thumb Code     0  startup_stm32f10x_hd.o(.text)
    EXTI4_IRQHandler                         0x0800015f   Thumb Code     0  startup_stm32f10x_hd.o(.text)
    EXTI9_5_IRQHandler                       0x0800015f   Thumb Code     0  startup_stm32f10x_hd.o(.text)
    FLASH_IRQHandler                         0x0800015f   Thumb Code     0  startup_stm32f10x_hd.o(.text)
    FSMC_IRQHandler                          0x0800015f   Thumb Code     0  startup_stm32f10x_hd.o(.text)
    I2C1_ER_IRQHandler                       0x0800015f   Thumb Code     0  startup_stm32f10x_hd.o(.text)
    I2C1_EV_IRQHandler                       0x0800015f   Thumb Code     0  startup_stm32f10x_hd.o(.text)
    I2C2_ER_IRQHandler                       0x0800015f   Thumb Code     0  startup_stm32f10x_hd.o(.text)
    I2C2_EV_IRQHandler                       0x0800015f   Thumb Code     0  startup_stm32f10x_hd.o(.text)
    PVD_IRQHandler                           0x0800015f   Thumb Code     0  startup_stm32f10x_hd.o(.text)
    RCC_IRQHandler                           0x0800015f   Thumb Code     0  startup_stm32f10x_hd.o(.text)
    RTCAlarm_IRQHandler                      0x0800015f   Thumb Code     0  startup_stm32f10x_hd.o(.text)
    RTC_IRQHandler                           0x0800015f   Thumb Code     0  startup_stm32f10x_hd.o(.text)
    SDIO_IRQHandler                          0x0800015f   Thumb Code     0  startup_stm32f10x_hd.o(.text)
    SPI1_IRQHandler                          0x0800015f   Thumb Code     0  startup_stm32f10x_hd.o(.text)
    SPI2_IRQHandler                          0x0800015f   Thumb Code     0  startup_stm32f10x_hd.o(.text)
    SPI3_IRQHandler                          0x0800015f   Thumb Code     0  startup_stm32f10x_hd.o(.text)
    TAMPER_IRQHandler                        0x0800015f   Thumb Code     0  startup_stm32f10x_hd.o(.text)
    TIM1_BRK_IRQHandler                      0x0800015f   Thumb Code     0  startup_stm32f10x_hd.o(.text)
    TIM1_CC_IRQHandler                       0x0800015f   Thumb Code     0  startup_stm32f10x_hd.o(.text)
    TIM1_TRG_COM_IRQHandler                  0x0800015f   Thumb Code     0  startup_stm32f10x_hd.o(.text)
    TIM1_UP_IRQHandler                       0x0800015f   Thumb Code     0  startup_stm32f10x_hd.o(.text)
    TIM2_IRQHandler                          0x0800015f   Thumb Code     0  startup_stm32f10x_hd.o(.text)
    TIM3_IRQHandler                          0x0800015f   Thumb Code     0  startup_stm32f10x_hd.o(.text)
    TIM4_IRQHandler                          0x0800015f   Thumb Code     0  startup_stm32f10x_hd.o(.text)
    TIM5_IRQHandler                          0x0800015f   Thumb Code     0  startup_stm32f10x_hd.o(.text)
    TIM6_IRQHandler                          0x0800015f   Thumb Code     0  startup_stm32f10x_hd.o(.text)
    TIM7_IRQHandler                          0x0800015f   Thumb Code     0  startup_stm32f10x_hd.o(.text)
    TIM8_BRK_IRQHandler                      0x0800015f   Thumb Code     0  startup_stm32f10x_hd.o(.text)
    TIM8_CC_IRQHandler                       0x0800015f   Thumb Code     0  startup_stm32f10x_hd.o(.text)
    TIM8_TRG_COM_IRQHandler                  0x0800015f   Thumb Code     0  startup_stm32f10x_hd.o(.text)
    TIM8_UP_IRQHandler                       0x0800015f   Thumb Code     0  startup_stm32f10x_hd.o(.text)
    UART4_IRQHandler                         0x0800015f   Thumb Code     0  startup_stm32f10x_hd.o(.text)
    UART5_IRQHandler                         0x0800015f   Thumb Code     0  startup_stm32f10x_hd.o(.text)
    USBWakeUp_IRQHandler                     0x0800015f   Thumb Code     0  startup_stm32f10x_hd.o(.text)
    USB_HP_CAN1_TX_IRQHandler                0x0800015f   Thumb Code     0  startup_stm32f10x_hd.o(.text)
    USB_LP_CAN1_RX0_IRQHandler               0x0800015f   Thumb Code     0  startup_stm32f10x_hd.o(.text)
    WWDG_IRQHandler                          0x0800015f   Thumb Code     0  startup_stm32f10x_hd.o(.text)
    __aeabi_memcpy                           0x08000169   Thumb Code    36  memcpya.o(.text)
    __aeabi_memcpy4                          0x08000169   Thumb Code     0  memcpya.o(.text)
    __aeabi_memcpy8                          0x08000169   Thumb Code     0  memcpya.o(.text)
    __aeabi_uldivmod                         0x0800018d   Thumb Code    98  uldiv.o(.text)
    __scatterload                            0x080001f1   Thumb Code    28  init.o(.text)
    __scatterload_rt2                        0x080001f1   Thumb Code     0  init.o(.text)
    __aeabi_llsl                             0x08000215   Thumb Code    30  llshl.o(.text)
    _ll_shift_l                              0x08000215   Thumb Code     0  llshl.o(.text)
    __aeabi_llsr                             0x08000233   Thumb Code    32  llushr.o(.text)
    _ll_ushift_r                             0x08000233   Thumb Code     0  llushr.o(.text)
    BusFault_Handler                         0x08000253   Thumb Code     4  stm32f10x_it.o(i.BusFault_Handler)
    DebugMon_Handler                         0x08000257   Thumb Code     2  stm32f10x_it.o(i.DebugMon_Handler)
    GPIO_Init                                0x08000259   Thumb Code   278  stm32f10x_gpio.o(i.GPIO_Init)
    GPIO_ResetBits                           0x0800036f   Thumb Code     4  stm32f10x_gpio.o(i.GPIO_ResetBits)
    GPIO_SetBits                             0x08000373   Thumb Code     4  stm32f10x_gpio.o(i.GPIO_SetBits)
    HardFault_Handler                        0x08000377   Thumb Code     4  stm32f10x_it.o(i.HardFault_Handler)
    MemManage_Handler                        0x0800037b   Thumb Code     4  stm32f10x_it.o(i.MemManage_Handler)
    NMI_Handler                              0x0800037f   Thumb Code     2  stm32f10x_it.o(i.NMI_Handler)
    NVIC_Init                                0x08000381   Thumb Code   100  misc.o(i.NVIC_Init)
    NVIC_PriorityGroupConfig                 0x080003f1   Thumb Code    10  misc.o(i.NVIC_PriorityGroupConfig)
    PendSV_Handler                           0x08000405   Thumb Code     2  stm32f10x_it.o(i.PendSV_Handler)
    RCC_APB2PeriphClockCmd                   0x08000409   Thumb Code    26  stm32f10x_rcc.o(i.RCC_APB2PeriphClockCmd)
    RCC_GetClocksFreq                        0x08000429   Thumb Code   192  stm32f10x_rcc.o(i.RCC_GetClocksFreq)
    SVC_Handler                              0x080004fd   Thumb Code     2  stm32f10x_it.o(i.SVC_Handler)
    SysTick_CLKSourceConfig                  0x080005e9   Thumb Code    40  misc.o(i.SysTick_CLKSourceConfig)
    SysTick_Handler                          0x08000611   Thumb Code     2  stm32f10x_it.o(i.SysTick_Handler)
    SystemInit                               0x08000615   Thumb Code    78  system_stm32f10x.o(i.SystemInit)
    USART1_IRQHandler                        0x08000675   Thumb Code    92  uart.o(i.USART1_IRQHandler)
    USART2_IRQHandler                        0x080006d9   Thumb Code     2  uart.o(i.USART2_IRQHandler)
    USART3_IRQHandler                        0x080006db   Thumb Code     2  uart.o(i.USART3_IRQHandler)
    USART_ClearFlag                          0x080006dd   Thumb Code    18  stm32f10x_usart.o(i.USART_ClearFlag)
    USART_Cmd                                0x080006ef   Thumb Code    24  stm32f10x_usart.o(i.USART_Cmd)
    USART_GetFlagStatus                      0x08000707   Thumb Code    26  stm32f10x_usart.o(i.USART_GetFlagStatus)
    USART_GetITStatus                        0x08000721   Thumb Code    84  stm32f10x_usart.o(i.USART_GetITStatus)
    USART_ITConfig                           0x08000775   Thumb Code    74  stm32f10x_usart.o(i.USART_ITConfig)
    USART_Init                               0x080007c1   Thumb Code   210  stm32f10x_usart.o(i.USART_Init)
    USART_ReceiveData                        0x08000899   Thumb Code    10  stm32f10x_usart.o(i.USART_ReceiveData)
    USART_SendData                           0x080008a3   Thumb Code     8  stm32f10x_usart.o(i.USART_SendData)
    UsageFault_Handler                       0x080008ab   Thumb Code     4  stm32f10x_it.o(i.UsageFault_Handler)
    __0printf$8                              0x080008b1   Thumb Code    22  printf8.o(i.__0printf$8)
    __1printf$8                              0x080008b1   Thumb Code     0  printf8.o(i.__0printf$8)
    __2printf                                0x080008b1   Thumb Code     0  printf8.o(i.__0printf$8)
    __scatterload_copy                       0x080008d1   Thumb Code    14  handlers.o(i.__scatterload_copy)
    __scatterload_null                       0x080008df   Thumb Code     2  handlers.o(i.__scatterload_null)
    __scatterload_zeroinit                   0x080008e1   Thumb Code    14  handlers.o(i.__scatterload_zeroinit)
    closeLED                                 0x08000d55   Thumb Code    14  led.o(i.closeLED)
    fputc                                    0x08000d69   Thumb Code    40  uart.o(i.fputc)
    initCanvas                               0x08000d95   Thumb Code    64  canvas.o(i.initCanvas)
    initLED                                  0x08000dd5   Thumb Code    50  led.o(i.initLED)
    initNVIC                                 0x08000e0d   Thumb Code    24  nvic.o(i.initNVIC)
    initSysTick                              0x08000e25   Thumb Code    42  delay.o(i.initSysTick)
    initUART                                 0x08000e51   Thumb Code   138  uart.o(i.initUART)
    main                                     0x08000ee5   Thumb Code  1630  main.o(i.main)
    openLED                                  0x080015b9   Thumb Code    14  led.o(i.openLED)
    processBytes                             0x080015cd   Thumb Code   306  canvas.o(i.processBytes)
    setNVIC                                  0x08001705   Thumb Code    34  nvic.o(i.setNVIC)
    unpackProtocol                           0x08001727   Thumb Code   158  protocol.o(i.unpackProtocol)
    Region$$Table$$Base                      0x080017c4   Number         0  anon$$obj.o(Region$$Table)
    Region$$Table$$Limit                     0x080017e4   Number         0  anon$$obj.o(Region$$Table)
    __stdout                                 0x2000001c   Data           4  stdout.o(.data)
    events                                   0x20000020   Data         190  canvas.o(.bss)
    __initial_sp                             0x20000500   Data           0  startup_stm32f10x_hd.o(STACK)



==============================================================================

Memory Map of the image

  Image Entry point : 0x08000131

  Load Region LR_IROM1 (Base: 0x08000000, Size: 0x00001804, Max: 0x00010000, ABSOLUTE)

    Execution Region ER_IROM1 (Exec base: 0x08000000, Load base: 0x08000000, Size: 0x000017e4, Max: 0x00010000, ABSOLUTE)

    Exec Addr    Load Addr    Size         Type   Attr      Idx    E Section Name        Object

    0x08000000   0x08000000   0x00000130   Data   RO         3425    RESET               startup_stm32f10x_hd.o
    0x08000130   0x08000130   0x00000000   Code   RO         3430  * .ARM.Collect$$$$00000000  mc_w.l(entry.o)
    0x08000130   0x08000130   0x00000004   Code   RO         3698    .ARM.Collect$$$$00000001  mc_w.l(entry2.o)
    0x08000134   0x08000134   0x00000004   Code   RO         3701    .ARM.Collect$$$$00000004  mc_w.l(entry5.o)
    0x08000138   0x08000138   0x00000000   Code   RO         3703    .ARM.Collect$$$$00000008  mc_w.l(entry7b.o)
    0x08000138   0x08000138   0x00000000   Code   RO         3705    .ARM.Collect$$$$0000000A  mc_w.l(entry8b.o)
    0x08000138   0x08000138   0x00000008   Code   RO         3706    .ARM.Collect$$$$0000000B  mc_w.l(entry9a.o)
    0x08000140   0x08000140   0x00000000   Code   RO         3708    .ARM.Collect$$$$0000000D  mc_w.l(entry10a.o)
    0x08000140   0x08000140   0x00000000   Code   RO         3710    .ARM.Collect$$$$0000000F  mc_w.l(entry11a.o)
    0x08000140   0x08000140   0x00000004   Code   RO         3699    .ARM.Collect$$$$00002712  mc_w.l(entry2.o)
    0x08000144   0x08000144   0x00000024   Code   RO         3426    .text               startup_stm32f10x_hd.o
    0x08000168   0x08000168   0x00000024   Code   RO         3433    .text               mc_w.l(memcpya.o)
    0x0800018c   0x0800018c   0x00000062   Code   RO         3715    .text               mc_w.l(uldiv.o)
    0x080001ee   0x080001ee   0x00000002   PAD
    0x080001f0   0x080001f0   0x00000024   Code   RO         3728    .text               mc_w.l(init.o)
    0x08000214   0x08000214   0x0000001e   Code   RO         3730    .text               mc_w.l(llshl.o)
    0x08000232   0x08000232   0x00000020   Code   RO         3732    .text               mc_w.l(llushr.o)
    0x08000252   0x08000252   0x00000004   Code   RO          128    i.BusFault_Handler  stm32f10x_it.o
    0x08000256   0x08000256   0x00000002   Code   RO          129    i.DebugMon_Handler  stm32f10x_it.o
    0x08000258   0x08000258   0x00000116   Code   RO         1562    i.GPIO_Init         stm32f10x_gpio.o
    0x0800036e   0x0800036e   0x00000004   Code   RO         1569    i.GPIO_ResetBits    stm32f10x_gpio.o
    0x08000372   0x08000372   0x00000004   Code   RO         1570    i.GPIO_SetBits      stm32f10x_gpio.o
    0x08000376   0x08000376   0x00000004   Code   RO          130    i.HardFault_Handler  stm32f10x_it.o
    0x0800037a   0x0800037a   0x00000004   Code   RO          131    i.MemManage_Handler  stm32f10x_it.o
    0x0800037e   0x0800037e   0x00000002   Code   RO          132    i.NMI_Handler       stm32f10x_it.o
    0x08000380   0x08000380   0x00000070   Code   RO          411    i.NVIC_Init         misc.o
    0x080003f0   0x080003f0   0x00000014   Code   RO          412    i.NVIC_PriorityGroupConfig  misc.o
    0x08000404   0x08000404   0x00000002   Code   RO          133    i.PendSV_Handler    stm32f10x_it.o
    0x08000406   0x08000406   0x00000002   PAD
    0x08000408   0x08000408   0x00000020   Code   RO         1980    i.RCC_APB2PeriphClockCmd  stm32f10x_rcc.o
    0x08000428   0x08000428   0x000000d4   Code   RO         1988    i.RCC_GetClocksFreq  stm32f10x_rcc.o
    0x080004fc   0x080004fc   0x00000002   Code   RO          134    i.SVC_Handler       stm32f10x_it.o
    0x080004fe   0x080004fe   0x00000008   Code   RO         3389    i.SetSysClock       system_stm32f10x.o
    0x08000506   0x08000506   0x00000002   PAD
    0x08000508   0x08000508   0x000000e0   Code   RO         3390    i.SetSysClockTo72   system_stm32f10x.o
    0x080005e8   0x080005e8   0x00000028   Code   RO          415    i.SysTick_CLKSourceConfig  misc.o
    0x08000610   0x08000610   0x00000002   Code   RO          135    i.SysTick_Handler   stm32f10x_it.o
    0x08000612   0x08000612   0x00000002   PAD
    0x08000614   0x08000614   0x00000060   Code   RO         3392    i.SystemInit        system_stm32f10x.o
    0x08000674   0x08000674   0x00000064   Code   RO          284    i.USART1_IRQHandler  uart.o
    0x080006d8   0x080006d8   0x00000002   Code   RO          285    i.USART2_IRQHandler  uart.o
    0x080006da   0x080006da   0x00000002   Code   RO          286    i.USART3_IRQHandler  uart.o
    0x080006dc   0x080006dc   0x00000012   Code   RO         3144    i.USART_ClearFlag   stm32f10x_usart.o
    0x080006ee   0x080006ee   0x00000018   Code   RO         3148    i.USART_Cmd         stm32f10x_usart.o
    0x08000706   0x08000706   0x0000001a   Code   RO         3151    i.USART_GetFlagStatus  stm32f10x_usart.o
    0x08000720   0x08000720   0x00000054   Code   RO         3152    i.USART_GetITStatus  stm32f10x_usart.o
    0x08000774   0x08000774   0x0000004a   Code   RO         3154    i.USART_ITConfig    stm32f10x_usart.o
    0x080007be   0x080007be   0x00000002   PAD
    0x080007c0   0x080007c0   0x000000d8   Code   RO         3155    i.USART_Init        stm32f10x_usart.o
    0x08000898   0x08000898   0x0000000a   Code   RO         3162    i.USART_ReceiveData  stm32f10x_usart.o
    0x080008a2   0x080008a2   0x00000008   Code   RO         3165    i.USART_SendData    stm32f10x_usart.o
    0x080008aa   0x080008aa   0x00000004   Code   RO          136    i.UsageFault_Handler  stm32f10x_it.o
    0x080008ae   0x080008ae   0x00000002   PAD
    0x080008b0   0x080008b0   0x00000020   Code   RO         3644    i.__0printf$8       mc_w.l(printf8.o)
    0x080008d0   0x080008d0   0x0000000e   Code   RO         3740    i.__scatterload_copy  mc_w.l(handlers.o)
    0x080008de   0x080008de   0x00000002   Code   RO         3741    i.__scatterload_null  mc_w.l(handlers.o)
    0x080008e0   0x080008e0   0x0000000e   Code   RO         3742    i.__scatterload_zeroinit  mc_w.l(handlers.o)
    0x080008ee   0x080008ee   0x00000002   PAD
    0x080008f0   0x080008f0   0x00000410   Code   RO         3651    i._printf_core      mc_w.l(printf8.o)
    0x08000d00   0x08000d00   0x00000024   Code   RO         3652    i._printf_post_padding  mc_w.l(printf8.o)
    0x08000d24   0x08000d24   0x0000002e   Code   RO         3653    i._printf_pre_padding  mc_w.l(printf8.o)
    0x08000d52   0x08000d52   0x00000002   PAD
    0x08000d54   0x08000d54   0x00000014   Code   RO          216    i.closeLED          led.o
    0x08000d68   0x08000d68   0x0000002c   Code   RO          287    i.fputc             uart.o
    0x08000d94   0x08000d94   0x00000040   Code   RO          357    i.initCanvas        canvas.o
    0x08000dd4   0x08000dd4   0x00000038   Code   RO          217    i.initLED           led.o
    0x08000e0c   0x08000e0c   0x00000018   Code   RO          336    i.initNVIC          nvic.o
    0x08000e24   0x08000e24   0x0000002a   Code   RO          193    i.initSysTick       delay.o
    0x08000e4e   0x08000e4e   0x00000002   PAD
    0x08000e50   0x08000e50   0x00000094   Code   RO          288    i.initUART          uart.o
    0x08000ee4   0x08000ee4   0x000006d4   Code   RO            1    i.main              main.o
    0x080015b8   0x080015b8   0x00000014   Code   RO          218    i.openLED           led.o
    0x080015cc   0x080015cc   0x00000138   Code   RO          358    i.processBytes      canvas.o
    0x08001704   0x08001704   0x00000022   Code   RO          337    i.setNVIC           nvic.o
    0x08001726   0x08001726   0x0000009e   Code   RO          394    i.unpackProtocol    protocol.o
    0x080017c4   0x080017c4   0x00000020   Data   RO         3738    Region$$Table       anon$$obj.o


    Execution Region RW_IRAM1 (Exec base: 0x20000000, Load base: 0x080017e4, Size: 0x00000500, Max: 0x00005000, ABSOLUTE)

    Exec Addr    Load Addr    Size         Type   Attr      Idx    E Section Name        Object

    0x20000000   0x080017e4   0x00000004   Data   RW            2    .data               main.o
    0x20000004   0x080017e8   0x00000001   Data   RW          291    .data               uart.o
    0x20000005   0x080017e9   0x00000014   Data   RW         2008    .data               stm32f10x_rcc.o
    0x20000019   0x080017fd   0x00000003   PAD
    0x2000001c   0x08001800   0x00000004   Data   RW         3712    .data               mc_w.l(stdout.o)
    0x20000020        -       0x000000dc   Zero   RW          361    .bss                canvas.o
    0x200000fc   0x08001804   0x00000004   PAD
    0x20000100        -       0x00000400   Zero   RW         3423    STACK               startup_stm32f10x_hd.o


==============================================================================

Image component sizes


      Code (inc. data)   RO Data    RW Data    ZI Data      Debug   Object Name

       376          6          0          0        220       2852   canvas.o
         0          0          0          0          0         32   core_cm3.o
        42          0          0          0          0        462   delay.o
        96         18          0          0          0       1351   led.o
      1748        366          0          4          0     244099   main.o
       172         22          0          0          0       2029   misc.o
        58          0          0          0          0       1221   nvic.o
       158          0          0          0          0       1397   protocol.o
        36          8        304          0       1024        816   startup_stm32f10x_hd.o
       286          0          0          0          0       3008   stm32f10x_gpio.o
        26          0          0          0          0       3870   stm32f10x_it.o
       244         26          0         20          0       3845   stm32f10x_rcc.o
       460          6          0          0          0       6663   stm32f10x_usart.o
       328         28          0          0          0       1885   system_stm32f10x.o
       296         22          0          1          0       2615   uart.o

    ----------------------------------------------------------------------
      4338        502        336         28       1248     276145   Object Totals
         0          0         32          0          0          0   (incl. Generated)
        12          0          0          3          4          0   (incl. Padding)

    ----------------------------------------------------------------------

      Code (inc. data)   RO Data    RW Data    ZI Data      Debug   Library Member Name

         0          0          0          0          0          0   entry.o
         0          0          0          0          0          0   entry10a.o
         0          0          0          0          0          0   entry11a.o
         8          4          0          0          0          0   entry2.o
         4          0          0          0          0          0   entry5.o
         0          0          0          0          0          0   entry7b.o
         0          0          0          0          0          0   entry8b.o
         8          4          0          0          0          0   entry9a.o
        30          0          0          0          0          0   handlers.o
        36          8          0          0          0         68   init.o
        30          0          0          0          0         68   llshl.o
        32          0          0          0          0         68   llushr.o
        36          0          0          0          0         68   memcpya.o
      1154         54          0          0          0        352   printf8.o
         0          0          0          4          0          0   stdout.o
        98          0          0          0          0         92   uldiv.o

    ----------------------------------------------------------------------
      1442         70          0          4          0        716   Library Totals
         6          0          0          0          0          0   (incl. Padding)

    ----------------------------------------------------------------------

      Code (inc. data)   RO Data    RW Data    ZI Data      Debug   Library Name

      1436         70          0          4          0        716   mc_w.l

    ----------------------------------------------------------------------
      1442         70          0          4          0        716   Library Totals

    ----------------------------------------------------------------------

==============================================================================


      Code (inc. data)   RO Data    RW Data    ZI Data      Debug   

      5780        572        336         32       1248     274621   Grand Totals
      5780        572        336         32       1248     274621   ELF Image Totals
      5780        572        336         32          0          0   ROM Totals

==============================================================================

    Total RO  Size (Code + RO Data)                 6116 (   5.97kB)
    Total RW  Size (RW Data + ZI Data)              1280 (   1.25kB)
    Total ROM Size (Code + RO Data + RW Data)       6148 (   6.00kB)

==============================================================================

