Component: ARM Compiler 5.06 update 6 (build 750) Tool: armlink [4d35ed]

==============================================================================

Section Cross References

    main.o(i.main) refers to delay.o(i.initSysTick) for initSysTick
    main.o(i.main) refers to nvic.o(i.initNVIC) for initNVIC
    main.o(i.main) refers to uart.o(i.initUART) for initUART
    main.o(i.main) refers to led.o(i.initLED) for initLED
    main.o(i.main) refers to dht11.o(i.initDHT11) for initDHT11
    main.o(i.main) refers to canvas.o(i.initCanvas) for initCanvas
    main.o(i.main) refers to dht11.o(i.readDHT11) for readDHT11
    main.o(i.main) refers to fflti.o(.text) for __aeabi_i2f
    main.o(i.main) refers to canvas.o(i.updateCanvas) for updateCanvas
    main.o(i.main) refers to delay.o(i.Delay_ms) for Delay_ms
    main.o(i.main) refers to led.o(i.toggleLED) for toggleLED
    main.o(i.main) refers to canvas.o(.bss) for events
    delay.o(i.initSysTick) refers to misc.o(i.SysTick_CLKSourceConfig) for SysTick_CLKSourceConfig
    led.o(i.blinkLED) refers to stm32f10x_gpio.o(i.GPIO_ResetBits) for GPIO_ResetBits
    led.o(i.blinkLED) refers to led.o(i.toggleLED) for toggleLED
    led.o(i.blinkLED) refers to delay.o(i.Delay_ms) for Delay_ms
    led.o(i.closeLED) refers to stm32f10x_gpio.o(i.GPIO_SetBits) for GPIO_SetBits
    led.o(i.initLED) refers to stm32f10x_rcc.o(i.RCC_APB2PeriphClockCmd) for RCC_APB2PeriphClockCmd
==============================================================================

Removing Unused input sections from the image.

    Removing led.o(i.blinkLED), (60 bytes).
    Removing led.o(i.closeLED), (20 bytes).
    Removing led.o(i.openLED), (20 bytes).
    Removing uart.o(i.fputc), (44 bytes).
    Removing misc.o(i.NVIC_SetVectorTable), (20 bytes).
    Removing misc.o(i.NVIC_SystemLPConfig), (32 bytes).
    Removing stm32f10x_adc.o(i.ADC_AnalogWatchdogCmd), (20 bytes).
    Removing stm32f10x_adc.o(i.ADC_AnalogWatchdogSingleChannelConfig), (16 bytes).
    Removing stm32f10x_adc.o(i.ADC_AnalogWatchdogThresholdsConfig), (6 bytes).
    Removing stm32f10x_adc.o(i.ADC_AutoInjectedConvCmd), (22 bytes).
    Removing stm32f10x_adc.o(i.ADC_ClearFlag), (6 bytes).
    Removing stm32f10x_adc.o(i.ADC_ClearITPendingBit), (10 bytes).
    Removing stm32f10x_adc.o(i.ADC_Cmd), (22 bytes).
    Removing stm32f10x_adc.o(i.ADC_DMACmd), (22 bytes).
    Removing stm32f10x_adc.o(i.ADC_DeInit), (92 bytes).
    Removing stm32f10x_adc.o(i.ADC_DiscModeChannelCountConfig), (24 bytes).
    Removing stm32f10x_adc.o(i.ADC_DiscModeCmd), (22 bytes).
    Removing stm32f10x_adc.o(i.ADC_ExternalTrigConvCmd), (22 bytes).
==============================================================================

Image Symbol Table

    Local Symbols

    Symbol Name                              Value     Ov Type        Size  Object(Section)

    ../clib/microlib/init/entry.s            0x00000000   Number         0  entry8b.o ABSOLUTE
    ../clib/microlib/init/entry.s            0x00000000   Number         0  entry9b.o ABSOLUTE
    ../clib/microlib/init/entry.s            0x00000000   Number         0  entry11a.o ABSOLUTE
    ../clib/microlib/init/entry.s            0x00000000   Number         0  entry9a.o ABSOLUTE
    ../clib/microlib/init/entry.s            0x00000000   Number         0  entry10a.o ABSOLUTE
    ../clib/microlib/init/entry.s            0x00000000   Number         0  entry.o ABSOLUTE
    ../clib/microlib/init/entry.s            0x00000000   Number         0  entry7a.o ABSOLUTE
    ../clib/microlib/init/entry.s            0x00000000   Number         0  entry8a.o ABSOLUTE
    ../clib/microlib/init/entry.s            0x00000000   Number         0  entry10b.o ABSOLUTE
    ../clib/microlib/init/entry.s            0x00000000   Number         0  entry7b.o ABSOLUTE
    ../clib/microlib/init/entry.s            0x00000000   Number         0  entry5.o ABSOLUTE
    ../clib/microlib/init/entry.s            0x00000000   Number         0  entry2.o ABSOLUTE
    ../clib/microlib/init/entry.s            0x00000000   Number         0  entry11b.o ABSOLUTE
    ../clib/microlib/string/memcpy.c         0x00000000   Number         0  memcpyb.o ABSOLUTE
    ../clib/microlib/string/memcpy.c         0x00000000   Number         0  memcpya.o ABSOLUTE
    ../clib/microlib/stubs.s                 0x00000000   Number         0  iusefp.o ABSOLUTE
    ../fplib/microlib/fpepilogue.c           0x00000000   Number         0  fepilogue.o ABSOLUTE
    ../fplib/microlib/fpflt.c                0x00000000   Number         0  fflti.o ABSOLUTE
    ..\..\..\..\sdk\src\canvas.c             0x00000000   Number         0  canvas.o ABSOLUTE
    ..\..\..\..\sdk\src\protocol.c           0x00000000   Number         0  protocol.o ABSOLUTE
    ..\CMSIS\core_cm3.c                      0x00000000   Number         0  core_cm3.o ABSOLUTE
    ..\CMSIS\startup\startup_stm32f10x_hd.s  0x00000000   Number         0  startup_stm32f10x_hd.o ABSOLUTE
    ..\CMSIS\system_stm32f10x.c              0x00000000   Number         0  system_stm32f10x.o ABSOLUTE
    ..\DRIVER\DELAY\Delay.c                  0x00000000   Number         0  delay.o ABSOLUTE
    ..\DRIVER\DHT11\DHT11.c                  0x00000000   Number         0  dht11.o ABSOLUTE
    ..\DRIVER\LED\LED.c                      0x00000000   Number         0  led.o ABSOLUTE
    ..\DRIVER\NVIC\NVIC.c                    0x00000000   Number         0  nvic.o ABSOLUTE
    ..\DRIVER\UART\uart.c                    0x00000000   Number         0  uart.o ABSOLUTE
    ..\STLibraries\src\misc.c                0x00000000   Number         0  misc.o ABSOLUTE
    ..\STLibraries\src\stm32f10x_adc.c       0x00000000   Number         0  stm32f10x_adc.o ABSOLUTE
    ..\STLibraries\src\stm32f10x_bkp.c       0x00000000   Number         0  stm32f10x_bkp.o ABSOLUTE
    ..\STLibraries\src\stm32f10x_can.c       0x00000000   Number         0  stm32f10x_can.o ABSOLUTE
    ..\STLibraries\src\stm32f10x_cec.c       0x00000000   Number         0  stm32f10x_cec.o ABSOLUTE
    ..\STLibraries\src\stm32f10x_crc.c       0x00000000   Number         0  stm32f10x_crc.o ABSOLUTE
    ..\STLibraries\src\stm32f10x_dac.c       0x00000000   Number         0  stm32f10x_dac.o ABSOLUTE
    ..\STLibraries\src\stm32f10x_dbgmcu.c    0x00000000   Number         0  stm32f10x_dbgmcu.o ABSOLUTE
    ..\STLibraries\src\stm32f10x_dma.c       0x00000000   Number         0  stm32f10x_dma.o ABSOLUTE
    ..\STLibraries\src\stm32f10x_exti.c      0x00000000   Number         0  stm32f10x_exti.o ABSOLUTE
    ..\STLibraries\src\stm32f10x_flash.c     0x00000000   Number         0  stm32f10x_flash.o ABSOLUTE
    ..\STLibraries\src\stm32f10x_fsmc.c      0x00000000   Number         0  stm32f10x_fsmc.o ABSOLUTE
    ..\STLibraries\src\stm32f10x_gpio.c      0x00000000   Number         0  stm32f10x_gpio.o ABSOLUTE
    ..\STLibraries\src\stm32f10x_i2c.c       0x00000000   Number         0  stm32f10x_i2c.o ABSOLUTE
    ..\STLibraries\src\stm32f10x_iwdg.c      0x00000000   Number         0  stm32f10x_iwdg.o ABSOLUTE
    ..\STLibraries\src\stm32f10x_pwr.c       0x00000000   Number         0  stm32f10x_pwr.o ABSOLUTE
    ..\STLibraries\src\stm32f10x_rcc.c       0x00000000   Number         0  stm32f10x_rcc.o ABSOLUTE
    ..\STLibraries\src\stm32f10x_rtc.c       0x00000000   Number         0  stm32f10x_rtc.o ABSOLUTE
    ..\STLibraries\src\stm32f10x_sdio.c      0x00000000   Number         0  stm32f10x_sdio.o ABSOLUTE
    ..\STLibraries\src\stm32f10x_spi.c       0x00000000   Number         0  stm32f10x_spi.o ABSOLUTE
    ..\STLibraries\src\stm32f10x_tim.c       0x00000000   Number         0  stm32f10x_tim.o ABSOLUTE
    ..\STLibraries\src\stm32f10x_usart.c     0x00000000   Number         0  stm32f10x_usart.o ABSOLUTE
    ..\STLibraries\src\stm32f10x_wwdg.c      0x00000000   Number         0  stm32f10x_wwdg.o ABSOLUTE
    ..\USR\main.c                            0x00000000   Number         0  main.o ABSOLUTE
    ..\USR\stm32f10x_it.c                    0x00000000   Number         0  stm32f10x_it.o ABSOLUTE
    ..\\CMSIS\\core_cm3.c                    0x00000000   Number         0  core_cm3.o ABSOLUTE
    dc.s                                     0x00000000   Number         0  dc.o ABSOLUTE
    handlers.s                               0x00000000   Number         0  handlers.o ABSOLUTE
    init.s                                   0x00000000   Number         0  init.o ABSOLUTE
    RESET                                    0x08000000   Section      304  startup_stm32f10x_hd.o(RESET)
    .ARM.Collect$$$$00000000                 0x08000130   Section        0  entry.o(.ARM.Collect$$$$00000000)
    .ARM.Collect$$$$00000001                 0x08000130   Section        4  entry2.o(.ARM.Collect$$$$00000001)
    .ARM.Collect$$$$00000004                 0x08000134   Section        4  entry5.o(.ARM.Collect$$$$00000004)
    .ARM.Collect$$$$00000008                 0x08000138   Section        0  entry7b.o(.ARM.Collect$$$$00000008)
    .ARM.Collect$$$$0000000A                 0x08000138   Section        0  entry8b.o(.ARM.Collect$$$$0000000A)
    .ARM.Collect$$$$0000000B                 0x08000138   Section        8  entry9a.o(.ARM.Collect$$$$0000000B)
    .ARM.Collect$$$$0000000D                 0x08000140   Section        0  entry10a.o(.ARM.Collect$$$$0000000D)
    .ARM.Collect$$$$0000000F                 0x08000140   Section        0  entry11a.o(.ARM.Collect$$$$0000000F)
    .ARM.Collect$$$$00002712                 0x08000140   Section        4  entry2.o(.ARM.Collect$$$$00002712)
    __lit__00000000                          0x08000140   Data           4  entry2.o(.ARM.Collect$$$$00002712)
    .text                                    0x08000144   Section       36  startup_stm32f10x_hd.o(.text)
    .text                                    0x08000168   Section        0  memcpya.o(.text)
    .text                                    0x0800018c   Section        0  fflti.o(.text)
    .text                                    0x0800019e   Section        0  iusefp.o(.text)
    .text                                    0x0800019e   Section        0  fepilogue.o(.text)
    .text                                    0x0800020c   Section       36  init.o(.text)
    i.BusFault_Handler                       0x08000230   Section        0  stm32f10x_it.o(i.BusFault_Handler)
    i.DebugMon_Handler                       0x08000234   Section        0  stm32f10x_it.o(i.DebugMon_Handler)
    i.Delay_ms                               0x08000236   Section        0  delay.o(i.Delay_ms)
    i.Delay_us                               0x08000260   Section        0  delay.o(i.Delay_us)
    i.GPIO_Init                              0x08000280   Section        0  stm32f10x_gpio.o(i.GPIO_Init)
    i.GPIO_ReadInputDataBit                  0x08000396   Section        0  stm32f10x_gpio.o(i.GPIO_ReadInputDataBit)
    i.GPIO_ResetBits                         0x080003a8   Section        0  stm32f10x_gpio.o(i.GPIO_ResetBits)
    i.GPIO_SetBits                           0x080003ac   Section        0  stm32f10x_gpio.o(i.GPIO_SetBits)
    i.HardFault_Handler                      0x080003b0   Section        0  stm32f10x_it.o(i.HardFault_Handler)
    i.MemManage_Handler                      0x080003b4   Section        0  stm32f10x_it.o(i.MemManage_Handler)
    i.NMI_Handler                            0x080003b8   Section        0  stm32f10x_it.o(i.NMI_Handler)
    i.NVIC_Init                              0x080003bc   Section        0  misc.o(i.NVIC_Init)
    i.NVIC_PriorityGroupConfig               0x0800042c   Section        0  misc.o(i.NVIC_PriorityGroupConfig)
    i.PendSV_Handler                         0x08000440   Section        0  stm32f10x_it.o(i.PendSV_Handler)
    i.RCC_APB2PeriphClockCmd                 0x08000444   Section        0  stm32f10x_rcc.o(i.RCC_APB2PeriphClockCmd)
    i.RCC_GetClocksFreq                      0x08000464   Section        0  stm32f10x_rcc.o(i.RCC_GetClocksFreq)
    i.SVC_Handler                            0x08000538   Section        0  stm32f10x_it.o(i.SVC_Handler)
    i.SetSysClock                            0x0800053a   Section        0  system_stm32f10x.o(i.SetSysClock)
    SetSysClock                              0x0800053b   Thumb Code     8  system_stm32f10x.o(i.SetSysClock)
    i.SetSysClockTo72                        0x08000544   Section        0  system_stm32f10x.o(i.SetSysClockTo72)
    SetSysClockTo72                          0x08000545   Thumb Code   214  system_stm32f10x.o(i.SetSysClockTo72)
    i.SysTick_CLKSourceConfig                0x08000624   Section        0  misc.o(i.SysTick_CLKSourceConfig)
    i.SysTick_Handler                        0x0800064c   Section        0  stm32f10x_it.o(i.SysTick_Handler)
    i.SystemInit                             0x08000650   Section        0  system_stm32f10x.o(i.SystemInit)
    i.USART1_IRQHandler                      0x080006b0   Section        0  uart.o(i.USART1_IRQHandler)
    i.USART2_IRQHandler                      0x08000714   Section        0  uart.o(i.USART2_IRQHandler)
    i.USART3_IRQHandler                      0x08000716   Section        0  uart.o(i.USART3_IRQHandler)
    i.USART_ClearFlag                        0x08000718   Section        0  stm32f10x_usart.o(i.USART_ClearFlag)
    i.USART_Cmd                              0x0800072a   Section        0  stm32f10x_usart.o(i.USART_Cmd)
    i.USART_GetFlagStatus                    0x08000742   Section        0  stm32f10x_usart.o(i.USART_GetFlagStatus)
    i.USART_GetITStatus                      0x0800075c   Section        0  stm32f10x_usart.o(i.USART_GetITStatus)
    i.USART_ITConfig                         0x080007b0   Section        0  stm32f10x_usart.o(i.USART_ITConfig)
    i.USART_Init                             0x080007fc   Section        0  stm32f10x_usart.o(i.USART_Init)
    i.USART_ReceiveData                      0x080008d4   Section        0  stm32f10x_usart.o(i.USART_ReceiveData)
    i.USART_SendData                         0x080008de   Section        0  stm32f10x_usart.o(i.USART_SendData)
    i.UsageFault_Handler                     0x080008e6   Section        0  stm32f10x_it.o(i.UsageFault_Handler)
    i.__scatterload_copy                     0x080008ea   Section       14  handlers.o(i.__scatterload_copy)
    i.__scatterload_null                     0x080008f8   Section        2  handlers.o(i.__scatterload_null)
    i.__scatterload_zeroinit                 0x080008fa   Section       14  handlers.o(i.__scatterload_zeroinit)
    i.initCanvas                             0x08000908   Section        0  canvas.o(i.initCanvas)
    i.initDHT11                              0x08000948   Section        0  dht11.o(i.initDHT11)
    i.initLED                                0x08000988   Section        0  led.o(i.initLED)
    i.initNVIC                               0x080009c0   Section        0  nvic.o(i.initNVIC)
    i.initSysTick                            0x080009d8   Section        0  delay.o(i.initSysTick)
    i.initUART                               0x08000a04   Section        0  uart.o(i.initUART)
    i.main                                   0x08000a98   Section        0  main.o(i.main)
    i.packProtocol                           0x08000b08   Section        0  protocol.o(i.packProtocol)
    i.processBytes                           0x08000b9c   Section        0  canvas.o(i.processBytes)
    i.readByte                               0x08000cd4   Section        0  dht11.o(i.readByte)
    readByte                                 0x08000cd5   Thumb Code   116  dht11.o(i.readByte)
    i.readDHT11                              0x08000d4c   Section        0  dht11.o(i.readDHT11)
    i.sendBytes                              0x08000e10   Section        0  canvas.o(i.sendBytes)
    sendBytes                                0x08000e11   Thumb Code    16  canvas.o(i.sendBytes)
    i.sendUartByte                           0x08000e20   Section        0  uart.o(i.sendUartByte)
    i.sendUartBytes                          0x08000e50   Section        0  uart.o(i.sendUartBytes)
    i.setLineIn                              0x08000e70   Section        0  dht11.o(i.setLineIn)
    setLineIn                                0x08000e71   Thumb Code    26  dht11.o(i.setLineIn)
    i.setLineOut                             0x08000e90   Section        0  dht11.o(i.setLineOut)
    setLineOut                               0x08000e91   Thumb Code    42  dht11.o(i.setLineOut)
    i.setNVIC                                0x08000ec0   Section        0  nvic.o(i.setNVIC)
    i.toggleLED                              0x08000ee4   Section        0  led.o(i.toggleLED)
    i.unpackProtocol                         0x08000ef8   Section        0  protocol.o(i.unpackProtocol)
    i.updateCanvas                           0x08000f98   Section        0  canvas.o(i.updateCanvas)
    .data                                    0x20000000   Section        1  uart.o(.data)
    tail                                     0x20000000   Data           1  uart.o(.data)
    .data                                    0x20000002   Section        2  canvas.o(.data)
    size                                     0x20000002   Data           2  canvas.o(.data)
    .data                                    0x20000004   Section       20  stm32f10x_rcc.o(.data)
    APBAHBPrescTable                         0x20000004   Data          16  stm32f10x_rcc.o(.data)
    ADCPrescTable                            0x20000014   Data           4  stm32f10x_rcc.o(.data)
    .bss                                     0x20000018   Section      220  canvas.o(.bss)
    tbuffer                                  0x200000d6   Data          30  canvas.o(.bss)
    STACK                                    0x200000f8   Section     1024  startup_stm32f10x_hd.o(STACK)

    Global Symbols

    Symbol Name                              Value     Ov Type        Size  Object(Section)

    BuildAttributes$$THM_ISAv4$P$D$K$B$S$PE$A:L22UL41UL21$X:L11$S22US41US21$IEEE1$IW$USESV6$~STKCKD$USESV7$~SHL$OTIME$ROPI$EBA8$MICROLIB$REQ8$PRES8$EABIv2 0x00000000   Number         0  anon$$obj.o ABSOLUTE
    __ARM_use_no_argv                        0x00000000   Number         0  main.o ABSOLUTE
    __cpp_initialize__aeabi_                  - Undefined Weak Reference
    __cxa_finalize                            - Undefined Weak Reference
    __decompress                              - Undefined Weak Reference
    _clock_init                               - Undefined Weak Reference
    _microlib_exit                            - Undefined Weak Reference
    __Vectors_Size                           0x00000130   Number         0  startup_stm32f10x_hd.o ABSOLUTE
    __Vectors                                0x08000000   Data           4  startup_stm32f10x_hd.o(RESET)
    __Vectors_End                            0x08000130   Data           0  startup_stm32f10x_hd.o(RESET)
    __main                                   0x08000131   Thumb Code     0  entry.o(.ARM.Collect$$$$00000000)
    _main_stk                                0x08000131   Thumb Code     0  entry2.o(.ARM.Collect$$$$00000001)
    _main_scatterload                        0x08000135   Thumb Code     0  entry5.o(.ARM.Collect$$$$00000004)
    __main_after_scatterload                 0x08000139   Thumb Code     0  entry5.o(.ARM.Collect$$$$00000004)
    _main_clock                              0x08000139   Thumb Code     0  entry7b.o(.ARM.Collect$$$$00000008)
    _main_cpp_init                           0x08000139   Thumb Code     0  entry8b.o(.ARM.Collect$$$$0000000A)
    _main_init                               0x08000139   Thumb Code     0  entry9a.o(.ARM.Collect$$$$0000000B)
    __rt_final_cpp                           0x08000141   Thumb Code     0  entry10a.o(.ARM.Collect$$$$0000000D)
    __rt_final_exit                          0x08000141   Thumb Code     0  entry11a.o(.ARM.Collect$$$$0000000F)
    Reset_Handler                            0x08000145   Thumb Code     8  startup_stm32f10x_hd.o(.text)
    ADC1_2_IRQHandler                        0x0800015f   Thumb Code     0  startup_stm32f10x_hd.o(.text)
    ADC3_IRQHandler                          0x0800015f   Thumb Code     0  startup_stm32f10x_hd.o(.text)
    CAN1_RX1_IRQHandler                      0x0800015f   Thumb Code     0  startup_stm32f10x_hd.o(.text)
    CAN1_SCE_IRQHandler                      0x0800015f   Thumb Code     0  startup_stm32f10x_hd.o(.text)
    DMA1_Channel1_IRQHandler                 0x0800015f   Thumb Code     0  startup_stm32f10x_hd.o(.text)
    DMA1_Channel2_IRQHandler                 0x0800015f   Thumb Code     0  startup_stm32f10x_hd.o(.text)
    DMA1_Channel3_IRQHandler                 0x0800015f   Thumb Code     0  startup_stm32f10x_hd.o(.text)
    DMA1_Channel4_IRQHandler                 0x0800015f   Thumb Code     0  startup_stm32f10x_hd.o(.text)
    DMA1_Channel5_IRQHandler                 0x0800015f   Thumb Code     0  startup_stm32f10x_hd.o(.text)
    DMA1_Channel6_IRQHandler                 0x0800015f   Thumb Code     0  startup_stm32f10x_hd.o(.text)
    DMA1_Channel7_IRQHandler                 0x0800015f   Thumb Code     0  startup_stm32f10x_hd.o(.text)
    DMA2_Channel1_IRQHandler                 0x0800015f   Thumb Code     0  startup_stm32f10x_hd.o(.text)
    DMA2_Channel2_IRQHandler                 0x0800015f   Thumb Code     0  startup_stm32f10x_hd.o(.text)
    DMA2_Channel3_IRQHandler                 0x0800015f   Thumb Code     0  startup_stm32f10x_hd.o(.text)
    DMA2_Channel4_5_IRQHandler               0x0800015f   Thumb Code     0  startup_stm32f10x_hd.o(.text)
    EXTI0_IRQHandler                         0x0800015f   Thumb Code     0  startup_stm32f10x_hd.o(.text)
    EXTI15_10_IRQHandler                     0x0800015f   Thumb Code     0  startup_stm32f10x_hd.o(.text)
    EXTI1_IRQHandler                         0x0800015f   Thumb Code     0  startup_stm32f10x_hd.o(.text)
    EXTI2_IRQHandler                         0x0800015f   Thumb Code     0  startup_stm32f10x_hd.o(.text)
    EXTI3_IRQHandler                         0x0800015f   Thumb Code     0  startup_stm32f10x_hd.o(.text)
    EXTI4_IRQHandler                         0x0800015f   Thumb Code     0  startup_stm32f10x_hd.o(.text)
    EXTI9_5_IRQHandler                       0x0800015f   Thumb Code     0  startup_stm32f10x_hd.o(.text)
    FLASH_IRQHandler                         0x0800015f   Thumb Code     0  startup_stm32f10x_hd.o(.text)
    FSMC_IRQHandler                          0x0800015f   Thumb Code     0  startup_stm32f10x_hd.o(.text)
    I2C1_ER_IRQHandler                       0x0800015f   Thumb Code     0  startup_stm32f10x_hd.o(.text)
    I2C1_EV_IRQHandler                       0x0800015f   Thumb Code     0  startup_stm32f10x_hd.o(.text)
    I2C2_ER_IRQHandler                       0x0800015f   Thumb Code     0  startup_stm32f10x_hd.o(.text)
    I2C2_EV_IRQHandler                       0x0800015f   Thumb Code     0  startup_stm32f10x_hd.o(.text)
    PVD_IRQHandler                           0x0800015f   Thumb Code     0  startup_stm32f10x_hd.o(.text)
    RCC_IRQHandler                           0x0800015f   Thumb Code     0  startup_stm32f10x_hd.o(.text)
    RTCAlarm_IRQHandler                      0x0800015f   Thumb Code     0  startup_stm32f10x_hd.o(.text)
    RTC_IRQHandler                           0x0800015f   Thumb Code     0  startup_stm32f10x_hd.o(.text)
    SDIO_IRQHandler                          0x0800015f   Thumb Code     0  startup_stm32f10x_hd.o(.text)
    SPI1_IRQHandler                          0x0800015f   Thumb Code     0  startup_stm32f10x_hd.o(.text)
    SPI2_IRQHandler                          0x0800015f   Thumb Code     0  startup_stm32f10x_hd.o(.text)
    SPI3_IRQHandler                          0x0800015f   Thumb Code     0  startup_stm32f10x_hd.o(.text)
    TAMPER_IRQHandler                        0x0800015f   Thumb Code     0  startup_stm32f10x_hd.o(.text)
    TIM1_BRK_IRQHandler                      0x0800015f   Thumb Code     0  startup_stm32f10x_hd.o(.text)
    TIM1_CC_IRQHandler                       0x0800015f   Thumb Code     0  startup_stm32f10x_hd.o(.text)
    TIM1_TRG_COM_IRQHandler                  0x0800015f   Thumb Code     0  startup_stm32f10x_hd.o(.text)
    TIM1_UP_IRQHandler                       0x0800015f   Thumb Code     0  startup_stm32f10x_hd.o(.text)
    TIM2_IRQHandler                          0x0800015f   Thumb Code     0  startup_stm32f10x_hd.o(.text)
    TIM3_IRQHandler                          0x0800015f   Thumb Code     0  startup_stm32f10x_hd.o(.text)
    TIM4_IRQHandler                          0x0800015f   Thumb Code     0  startup_stm32f10x_hd.o(.text)
    TIM5_IRQHandler                          0x0800015f   Thumb Code     0  startup_stm32f10x_hd.o(.text)
    TIM6_IRQHandler                          0x0800015f   Thumb Code     0  startup_stm32f10x_hd.o(.text)
    TIM7_IRQHandler                          0x0800015f   Thumb Code     0  startup_stm32f10x_hd.o(.text)
    TIM8_BRK_IRQHandler                      0x0800015f   Thumb Code     0  startup_stm32f10x_hd.o(.text)
    TIM8_CC_IRQHandler                       0x0800015f   Thumb Code     0  startup_stm32f10x_hd.o(.text)
    TIM8_TRG_COM_IRQHandler                  0x0800015f   Thumb Code     0  startup_stm32f10x_hd.o(.text)
    TIM8_UP_IRQHandler                       0x0800015f   Thumb Code     0  startup_stm32f10x_hd.o(.text)
    UART4_IRQHandler                         0x0800015f   Thumb Code     0  startup_stm32f10x_hd.o(.text)
    UART5_IRQHandler                         0x0800015f   Thumb Code     0  startup_stm32f10x_hd.o(.text)
    USBWakeUp_IRQHandler                     0x0800015f   Thumb Code     0  startup_stm32f10x_hd.o(.text)
    USB_HP_CAN1_TX_IRQHandler                0x0800015f   Thumb Code     0  startup_stm32f10x_hd.o(.text)
    USB_LP_CAN1_RX0_IRQHandler               0x0800015f   Thumb Code     0  startup_stm32f10x_hd.o(.text)
    WWDG_IRQHandler                          0x0800015f   Thumb Code     0  startup_stm32f10x_hd.o(.text)
    __aeabi_memcpy                           0x08000169   Thumb Code    36  memcpya.o(.text)
    __aeabi_memcpy4                          0x08000169   Thumb Code     0  memcpya.o(.text)
    __aeabi_memcpy8                          0x08000169   Thumb Code     0  memcpya.o(.text)
    __aeabi_i2f                              0x0800018d   Thumb Code    18  fflti.o(.text)
    __I$use$fp                               0x0800019f   Thumb Code     0  iusefp.o(.text)
    _float_round                             0x0800019f   Thumb Code    18  fepilogue.o(.text)
    _float_epilogue                          0x080001b1   Thumb Code    92  fepilogue.o(.text)
    __scatterload                            0x0800020d   Thumb Code    28  init.o(.text)
    __scatterload_rt2                        0x0800020d   Thumb Code     0  init.o(.text)
    BusFault_Handler                         0x08000231   Thumb Code     4  stm32f10x_it.o(i.BusFault_Handler)
    DebugMon_Handler                         0x08000235   Thumb Code     2  stm32f10x_it.o(i.DebugMon_Handler)
    Delay_ms                                 0x08000237   Thumb Code    42  delay.o(i.Delay_ms)
    Delay_us                                 0x08000261   Thumb Code    32  delay.o(i.Delay_us)
    GPIO_Init                                0x08000281   Thumb Code   278  stm32f10x_gpio.o(i.GPIO_Init)
    GPIO_ReadInputDataBit                    0x08000397   Thumb Code    18  stm32f10x_gpio.o(i.GPIO_ReadInputDataBit)
    GPIO_ResetBits                           0x080003a9   Thumb Code     4  stm32f10x_gpio.o(i.GPIO_ResetBits)
    GPIO_SetBits                             0x080003ad   Thumb Code     4  stm32f10x_gpio.o(i.GPIO_SetBits)
    HardFault_Handler                        0x080003b1   Thumb Code     4  stm32f10x_it.o(i.HardFault_Handler)
    MemManage_Handler                        0x080003b5   Thumb Code     4  stm32f10x_it.o(i.MemManage_Handler)
    NMI_Handler                              0x080003b9   Thumb Code     2  stm32f10x_it.o(i.NMI_Handler)
    NVIC_Init                                0x080003bd   Thumb Code   100  misc.o(i.NVIC_Init)
    NVIC_PriorityGroupConfig                 0x0800042d   Thumb Code    10  misc.o(i.NVIC_PriorityGroupConfig)
    PendSV_Handler                           0x08000441   Thumb Code     2  stm32f10x_it.o(i.PendSV_Handler)
    RCC_APB2PeriphClockCmd                   0x08000445   Thumb Code    26  stm32f10x_rcc.o(i.RCC_APB2PeriphClockCmd)
    RCC_GetClocksFreq                        0x08000465   Thumb Code   192  stm32f10x_rcc.o(i.RCC_GetClocksFreq)
    SVC_Handler                              0x08000539   Thumb Code     2  stm32f10x_it.o(i.SVC_Handler)
    SysTick_CLKSourceConfig                  0x08000625   Thumb Code    40  misc.o(i.SysTick_CLKSourceConfig)
    SysTick_Handler                          0x0800064d   Thumb Code     2  stm32f10x_it.o(i.SysTick_Handler)
    SystemInit                               0x08000651   Thumb Code    78  system_stm32f10x.o(i.SystemInit)
    USART1_IRQHandler                        0x080006b1   Thumb Code    92  uart.o(i.USART1_IRQHandler)
    USART2_IRQHandler                        0x08000715   Thumb Code     2  uart.o(i.USART2_IRQHandler)
    USART3_IRQHandler                        0x08000717   Thumb Code     2  uart.o(i.USART3_IRQHandler)
    USART_ClearFlag                          0x08000719   Thumb Code    18  stm32f10x_usart.o(i.USART_ClearFlag)
    USART_Cmd                                0x0800072b   Thumb Code    24  stm32f10x_usart.o(i.USART_Cmd)
    USART_GetFlagStatus                      0x08000743   Thumb Code    26  stm32f10x_usart.o(i.USART_GetFlagStatus)
    USART_GetITStatus                        0x0800075d   Thumb Code    84  stm32f10x_usart.o(i.USART_GetITStatus)
    USART_ITConfig                           0x080007b1   Thumb Code    74  stm32f10x_usart.o(i.USART_ITConfig)
    USART_Init                               0x080007fd   Thumb Code   210  stm32f10x_usart.o(i.USART_Init)
    USART_ReceiveData                        0x080008d5   Thumb Code    10  stm32f10x_usart.o(i.USART_ReceiveData)
    USART_SendData                           0x080008df   Thumb Code     8  stm32f10x_usart.o(i.USART_SendData)
    UsageFault_Handler                       0x080008e7   Thumb Code     4  stm32f10x_it.o(i.UsageFault_Handler)
    __scatterload_copy                       0x080008eb   Thumb Code    14  handlers.o(i.__scatterload_copy)
    __scatterload_null                       0x080008f9   Thumb Code     2  handlers.o(i.__scatterload_null)
    __scatterload_zeroinit                   0x080008fb   Thumb Code    14  handlers.o(i.__scatterload_zeroinit)
    initCanvas                               0x08000909   Thumb Code    64  canvas.o(i.initCanvas)
    initDHT11                                0x08000949   Thumb Code    58  dht11.o(i.initDHT11)
    initLED                                  0x08000989   Thumb Code    50  led.o(i.initLED)
    initNVIC                                 0x080009c1   Thumb Code    24  nvic.o(i.initNVIC)
    initSysTick                              0x080009d9   Thumb Code    42  delay.o(i.initSysTick)
    initUART                                 0x08000a05   Thumb Code   138  uart.o(i.initUART)
    main                                     0x08000a99   Thumb Code   106  main.o(i.main)
    packProtocol                             0x08000b09   Thumb Code   146  protocol.o(i.packProtocol)
    processBytes                             0x08000b9d   Thumb Code   306  canvas.o(i.processBytes)
    readDHT11                                0x08000d4d   Thumb Code   192  dht11.o(i.readDHT11)
    sendUartByte                             0x08000e21   Thumb Code    46  uart.o(i.sendUartByte)
    sendUartBytes                            0x08000e51   Thumb Code    28  uart.o(i.sendUartBytes)
    setNVIC                                  0x08000ec1   Thumb Code    34  nvic.o(i.setNVIC)
    toggleLED                                0x08000ee5   Thumb Code    14  led.o(i.toggleLED)
    unpackProtocol                           0x08000ef9   Thumb Code   158  protocol.o(i.unpackProtocol)
    updateCanvas                             0x08000f99   Thumb Code    60  canvas.o(i.updateCanvas)
    Region$$Table$$Base                      0x08000fdc   Number         0  anon$$obj.o(Region$$Table)
    Region$$Table$$Limit                     0x08000ffc   Number         0  anon$$obj.o(Region$$Table)
    events                                   0x20000018   Data         190  canvas.o(.bss)
    __initial_sp                             0x200004f8   Data           0  startup_stm32f10x_hd.o(STACK)



==============================================================================

Memory Map of the image

  Image Entry point : 0x08000131

  Load Region LR_IROM1 (Base: 0x08000000, Size: 0x00001014, Max: 0x00010000, ABSOLUTE)

    Execution Region ER_IROM1 (Exec base: 0x08000000, Load base: 0x08000000, Size: 0x00000ffc, Max: 0x00010000, ABSOLUTE)

    Exec Addr    Load Addr    Size         Type   Attr      Idx    E Section Name        Object

    0x08000000   0x08000000   0x00000130   Data   RO         3427    RESET               startup_stm32f10x_hd.o
    0x08000130   0x08000130   0x00000000   Code   RO         3432  * .ARM.Collect$$$$00000000  mc_w.l(entry.o)
    0x08000130   0x08000130   0x00000004   Code   RO         3441    .ARM.Collect$$$$00000001  mc_w.l(entry2.o)
    0x08000134   0x08000134   0x00000004   Code   RO         3444    .ARM.Collect$$$$00000004  mc_w.l(entry5.o)
    0x08000138   0x08000138   0x00000000   Code   RO         3446    .ARM.Collect$$$$00000008  mc_w.l(entry7b.o)
    0x08000138   0x08000138   0x00000000   Code   RO         3448    .ARM.Collect$$$$0000000A  mc_w.l(entry8b.o)
    0x08000138   0x08000138   0x00000008   Code   RO         3449    .ARM.Collect$$$$0000000B  mc_w.l(entry9a.o)
    0x08000140   0x08000140   0x00000000   Code   RO         3451    .ARM.Collect$$$$0000000D  mc_w.l(entry10a.o)
    0x08000140   0x08000140   0x00000000   Code   RO         3453    .ARM.Collect$$$$0000000F  mc_w.l(entry11a.o)
    0x08000140   0x08000140   0x00000004   Code   RO         3442    .ARM.Collect$$$$00002712  mc_w.l(entry2.o)
    0x08000144   0x08000144   0x00000024   Code   RO         3428    .text               startup_stm32f10x_hd.o
    0x08000168   0x08000168   0x00000024   Code   RO         3435    .text               mc_w.l(memcpya.o)
    0x0800018c   0x0800018c   0x00000012   Code   RO         3439    .text               mf_w.l(fflti.o)
    0x0800019e   0x0800019e   0x00000000   Code   RO         3455    .text               mc_w.l(iusefp.o)
    0x0800019e   0x0800019e   0x0000006e   Code   RO         3456    .text               mf_w.l(fepilogue.o)
    0x0800020c   0x0800020c   0x00000024   Code   RO         3458    .text               mc_w.l(init.o)
    0x08000230   0x08000230   0x00000004   Code   RO          130    i.BusFault_Handler  stm32f10x_it.o
    0x08000234   0x08000234   0x00000002   Code   RO          131    i.DebugMon_Handler  stm32f10x_it.o
    0x08000236   0x08000236   0x0000002a   Code   RO          193    i.Delay_ms          delay.o
    0x08000260   0x08000260   0x00000020   Code   RO          194    i.Delay_us          delay.o
    0x08000280   0x08000280   0x00000116   Code   RO         1564    i.GPIO_Init         stm32f10x_gpio.o
    0x08000396   0x08000396   0x00000012   Code   RO         1568    i.GPIO_ReadInputDataBit  stm32f10x_gpio.o
    0x080003a8   0x080003a8   0x00000004   Code   RO         1571    i.GPIO_ResetBits    stm32f10x_gpio.o
    0x080003ac   0x080003ac   0x00000004   Code   RO         1572    i.GPIO_SetBits      stm32f10x_gpio.o
    0x080003b0   0x080003b0   0x00000004   Code   RO          132    i.HardFault_Handler  stm32f10x_it.o
    0x080003b4   0x080003b4   0x00000004   Code   RO          133    i.MemManage_Handler  stm32f10x_it.o
    0x080003b8   0x080003b8   0x00000002   Code   RO          134    i.NMI_Handler       stm32f10x_it.o
    0x080003ba   0x080003ba   0x00000002   PAD
    0x080003bc   0x080003bc   0x00000070   Code   RO          413    i.NVIC_Init         misc.o
    0x0800042c   0x0800042c   0x00000014   Code   RO          414    i.NVIC_PriorityGroupConfig  misc.o
    0x08000440   0x08000440   0x00000002   Code   RO          135    i.PendSV_Handler    stm32f10x_it.o
    0x08000442   0x08000442   0x00000002   PAD
    0x08000444   0x08000444   0x00000020   Code   RO         1982    i.RCC_APB2PeriphClockCmd  stm32f10x_rcc.o
    0x08000464   0x08000464   0x000000d4   Code   RO         1990    i.RCC_GetClocksFreq  stm32f10x_rcc.o
    0x08000538   0x08000538   0x00000002   Code   RO          136    i.SVC_Handler       stm32f10x_it.o
    0x0800053a   0x0800053a   0x00000008   Code   RO         3391    i.SetSysClock       system_stm32f10x.o
    0x08000542   0x08000542   0x00000002   PAD
    0x08000544   0x08000544   0x000000e0   Code   RO         3392    i.SetSysClockTo72   system_stm32f10x.o
    0x08000624   0x08000624   0x00000028   Code   RO          417    i.SysTick_CLKSourceConfig  misc.o
    0x0800064c   0x0800064c   0x00000002   Code   RO          137    i.SysTick_Handler   stm32f10x_it.o
    0x0800064e   0x0800064e   0x00000002   PAD
    0x08000650   0x08000650   0x00000060   Code   RO         3394    i.SystemInit        system_stm32f10x.o
    0x080006b0   0x080006b0   0x00000064   Code   RO          286    i.USART1_IRQHandler  uart.o
    0x08000714   0x08000714   0x00000002   Code   RO          287    i.USART2_IRQHandler  uart.o
    0x08000716   0x08000716   0x00000002   Code   RO          288    i.USART3_IRQHandler  uart.o
    0x08000718   0x08000718   0x00000012   Code   RO         3146    i.USART_ClearFlag   stm32f10x_usart.o
    0x0800072a   0x0800072a   0x00000018   Code   RO         3150    i.USART_Cmd         stm32f10x_usart.o
    0x08000742   0x08000742   0x0000001a   Code   RO         3153    i.USART_GetFlagStatus  stm32f10x_usart.o
    0x0800075c   0x0800075c   0x00000054   Code   RO         3154    i.USART_GetITStatus  stm32f10x_usart.o
    0x080007b0   0x080007b0   0x0000004a   Code   RO         3156    i.USART_ITConfig    stm32f10x_usart.o
    0x080007fa   0x080007fa   0x00000002   PAD
    0x080007fc   0x080007fc   0x000000d8   Code   RO         3157    i.USART_Init        stm32f10x_usart.o
    0x080008d4   0x080008d4   0x0000000a   Code   RO         3164    i.USART_ReceiveData  stm32f10x_usart.o
    0x080008de   0x080008de   0x00000008   Code   RO         3167    i.USART_SendData    stm32f10x_usart.o
    0x080008e6   0x080008e6   0x00000004   Code   RO          138    i.UsageFault_Handler  stm32f10x_it.o
    0x080008ea   0x080008ea   0x0000000e   Code   RO         3462    i.__scatterload_copy  mc_w.l(handlers.o)
    0x080008f8   0x080008f8   0x00000002   Code   RO         3463    i.__scatterload_null  mc_w.l(handlers.o)
    0x080008fa   0x080008fa   0x0000000e   Code   RO         3464    i.__scatterload_zeroinit  mc_w.l(handlers.o)
    0x08000908   0x08000908   0x00000040   Code   RO          359    i.initCanvas        canvas.o
    0x08000948   0x08000948   0x00000040   Code   RO          253    i.initDHT11         dht11.o
    0x08000988   0x08000988   0x00000038   Code   RO          219    i.initLED           led.o
    0x080009c0   0x080009c0   0x00000018   Code   RO          338    i.initNVIC          nvic.o
    0x080009d8   0x080009d8   0x0000002a   Code   RO          195    i.initSysTick       delay.o
    0x08000a02   0x08000a02   0x00000002   PAD
    0x08000a04   0x08000a04   0x00000094   Code   RO          290    i.initUART          uart.o
    0x08000a98   0x08000a98   0x00000070   Code   RO            1    i.main              main.o
    0x08000b08   0x08000b08   0x00000092   Code   RO          395    i.packProtocol      protocol.o
    0x08000b9a   0x08000b9a   0x00000002   PAD
    0x08000b9c   0x08000b9c   0x00000138   Code   RO          360    i.processBytes      canvas.o
    0x08000cd4   0x08000cd4   0x00000078   Code   RO          254    i.readByte          dht11.o
    0x08000d4c   0x08000d4c   0x000000c4   Code   RO          255    i.readDHT11         dht11.o
    0x08000e10   0x08000e10   0x00000010   Code   RO          361    i.sendBytes         canvas.o
    0x08000e20   0x08000e20   0x0000002e   Code   RO          291    i.sendUartByte      uart.o
    0x08000e4e   0x08000e4e   0x00000002   PAD
    0x08000e50   0x08000e50   0x00000020   Code   RO          292    i.sendUartBytes     uart.o
    0x08000e70   0x08000e70   0x00000020   Code   RO          256    i.setLineIn         dht11.o
    0x08000e90   0x08000e90   0x00000030   Code   RO          257    i.setLineOut        dht11.o
    0x08000ec0   0x08000ec0   0x00000022   Code   RO          339    i.setNVIC           nvic.o
    0x08000ee2   0x08000ee2   0x00000002   PAD
    0x08000ee4   0x08000ee4   0x00000014   Code   RO          221    i.toggleLED         led.o
    0x08000ef8   0x08000ef8   0x0000009e   Code   RO          396    i.unpackProtocol    protocol.o
    0x08000f96   0x08000f96   0x00000002   PAD
    0x08000f98   0x08000f98   0x00000044   Code   RO          362    i.updateCanvas      canvas.o
    0x08000fdc   0x08000fdc   0x00000020   Data   RO         3460    Region$$Table       anon$$obj.o


    Execution Region RW_IRAM1 (Exec base: 0x20000000, Load base: 0x08000ffc, Size: 0x000004f8, Max: 0x00005000, ABSOLUTE)

    Exec Addr    Load Addr    Size         Type   Attr      Idx    E Section Name        Object

    0x20000000   0x08000ffc   0x00000001   Data   RW          293    .data               uart.o
    0x20000001   0x08000ffd   0x00000001   PAD
    0x20000002   0x08000ffe   0x00000002   Data   RW          364    .data               canvas.o
    0x20000004   0x08001000   0x00000014   Data   RW         2010    .data               stm32f10x_rcc.o
    0x20000018        -       0x000000dc   Zero   RW          363    .bss                canvas.o
    0x200000f4   0x08001014   0x00000004   PAD
    0x200000f8        -       0x00000400   Zero   RW         3425    STACK               startup_stm32f10x_hd.o


==============================================================================

Image component sizes


      Code (inc. data)   RO Data    RW Data    ZI Data      Debug   Object Name

       460         14          0          2        220       3608   canvas.o
         0          0          0          0          0         32   core_cm3.o
       116          0          0          0          0       1468   delay.o
       460         26          0          0          0       2944   dht11.o
        76         12          0          0          0        942   led.o
       112          6          0          0          0     242107   main.o
       172         22          0          0          0       2109   misc.o
        58          0          0          0          0       1261   nvic.o
       304          0          0          0          0       2604   protocol.o
        36          8        304          0       1024        836   startup_stm32f10x_hd.o
       304          0          0          0          0       3724   stm32f10x_gpio.o
        26          0          0          0          0       4050   stm32f10x_it.o
       244         26          0         20          0       3925   stm32f10x_rcc.o
       460          6          0          0          0       6843   stm32f10x_usart.o
       328         28          0          0          0       1965   system_stm32f10x.o
       330         22          0          1          0       3790   uart.o

    ----------------------------------------------------------------------
      3506        170        336         24       1248     282208   Object Totals
         0          0         32          0          0          0   (incl. Generated)
        20          0          0          1          4          0   (incl. Padding)

    ----------------------------------------------------------------------

      Code (inc. data)   RO Data    RW Data    ZI Data      Debug   Library Member Name

         0          0          0          0          0          0   entry.o
         0          0          0          0          0          0   entry10a.o
         0          0          0          0          0          0   entry11a.o
         8          4          0          0          0          0   entry2.o
         4          0          0          0          0          0   entry5.o
         0          0          0          0          0          0   entry7b.o
         0          0          0          0          0          0   entry8b.o
         8          4          0          0          0          0   entry9a.o
        30          0          0          0          0          0   handlers.o
        36          8          0          0          0         68   init.o
         0          0          0          0          0          0   iusefp.o
        36          0          0          0          0         68   memcpya.o
       110          0          0          0          0        168   fepilogue.o
        18          0          0          0          0         68   fflti.o

    ----------------------------------------------------------------------
       250         16          0          0          0        372   Library Totals
         0          0          0          0          0          0   (incl. Padding)

    ----------------------------------------------------------------------

      Code (inc. data)   RO Data    RW Data    ZI Data      Debug   Library Name

       122         16          0          0          0        136   mc_w.l
       128          0          0          0          0        236   mf_w.l

    ----------------------------------------------------------------------
       250         16          0          0          0        372   Library Totals

    ----------------------------------------------------------------------

==============================================================================


      Code (inc. data)   RO Data    RW Data    ZI Data      Debug   

      3756        186        336         24       1248     280028   Grand Totals
      3756        186        336         24       1248     280028   ELF Image Totals
      3756        186        336         24          0          0   ROM Totals

==============================================================================

    Total RO  Size (Code + RO Data)                 4092 (   4.00kB)
    Total RW  Size (RW Data + ZI Data)              1272 (   1.24kB)
    Total ROM Size (Code + RO Data + RW Data)       4116 (   4.02kB)

==============================================================================

