:020000040800F2
:10000000F804002045010008B9030008B103000806
:10001000B503000831020008E708000800000000EE
:10002000000000000000000000000000390500088A
:100030003502000800000000410400084D060008D9
:100040005F0100085F0100085F0100085F01000810
:100050005F0100085F0100085F0100085F01000800
:100060005F0100085F0100085F0100085F010008F0
:100070005F0100085F0100085F0100085F010008E0
:100080005F0100085F0100085F0100085F010008D0
:100090005F0100085F0100085F0100085F010008C0
:1000A0005F0100085F0100085F0100085F010008B0
:1000B0005F0100085F0100085F0100085F010008A0
:1000C0005F0100085F0100085F0100085F01000890
:1000D0005F010008B10600081507000817070008AF
:1000E0005F0100085F0100085F0100085F01000870
:1000F0005F0100085F0100085F0100085F01000860
:100100005F0100085F0100085F0100085F0100084F
:100110005F0100085F0100085F0100085F0100083F
:100120005F0100085F0100085F0100085F0100082F
:10013000DFF80CD000F06AF800480047990A000880
:10014000F80400200648804706480047FEE7FEE71F
:10015000FEE7FEE7FEE7FEE7FEE7FEE7FEE7FEE777
:10016000510600083101000840EA01039B0703D053
:1001700009E008C9121F08C0042AFAD203E011F8E6
:10018000013B00F8013B521EF9D27047C10F80EAD3
:10019000E0700844CA079623002100F009B800293E
:1001A000A8BF7047401C490008BF20F001007047FD
:1001B00010B4B0FA80FC00FA0CF050EA010404BF5D
:1001C00010BC704749B1CCF1200421FA04F411FAB3
:1001D0000CF118BF012121430843A3EB0C01CB1DF7
:1001E0004FEA00614FEA102042BF002010BC704768
:1001F00000EBC35010440029A4BF10BC7047401C42
:10020000490008BF20F0010010BC7047064C074DA4
:1002100006E0E06840F0010394E8070098471034D6
:10022000AC42F6D3FFF788FFDC0F0008FC0F000894
:1002300000BFFEE7704742F228314FF0E0225161E3
:100240000021916107E000BF4FF0E021096901F44E
:1002500080310029F8D0011EA0F10100F3D17047D0
:1002600000EBC0014FF0E02251610021916100BF1D
:100270004FF0E021096901F480310029F8D070477E
:100280002DE9F0410246002500260020002300242D
:10029000002791F803C00CF00F0591F803C00CF093
:1002A000100CBCF1000F03D091F802C04CEA050518
:1002B00091F800C0BCF1000F31D0146800202BE091
:1002C0004FF0010C0CFA00F3B1F800C00CEA030681
:1002D0009E4220D183004FF00F0C0CFA03F7BC4371
:1002E00005FA03FC4CEA040491F803C0BCF1280FA2
:1002F00006D14FF0010C0CFA00FCC2F814C00AE061
:1003000091F803C0BCF1480F05D14FF0010C0CFA75
:1003100000FCC2F810C0401C0828D1D31460B1F80A
:1003200000C0BCF1FF0F34DD546800202EE000F166
:10033000080C4FF0010808FA0CF3B1F800C00CEA01
:1003400003069E4221D183004FF00F0C0CFA03F7F5
:10035000BC4305FA03FC4CEA040491F803C0BCF169
:10036000280F05D100F1080C08FA0CF8C2F8148027
:1003700091F803C0BCF1480F07D100F1080C4FF011
:10038000010808FA0CF8C2F81080401C0828CED3E7
:100390005460BDE8F0810246002093680B400BB129
:1003A000012000E000207047416170470161704703
:1003B00000BFFEE700BFFEE77047000070B50021F8
:1003C00000230F22C47804B3154C246804F4E064BD
:1003D000C4F5E064210AC1F10403CA40447804FA78
:1003E00003F184781440214309010E4C0678A1558D
:1003F000047804F01F050124AC4005786D11AD00B0
:1004000005F1E025C5F8004109E0047804F01F0576
:100410000124AC40044D0678761145F8264070BDA5
:100420000CED00E000E400E080E100E0024901435F
:10043000024A1160704700000000FA050CED00E070
:100440007047000029B1064A92690243044B9A6141
:1004500004E0034A92698243014B9A6170470000AD
:100460000010024030B500210022002400232D4D51
:100470006D6805F00C0121B1042905D0082923D1AC
:1004800005E0294D056022E0274D05601FE0254D60
:100490006D6805F47012234D6D6805F480340225F3
:1004A00005EB92421CB9214D554305600BE01D4DF3
:1004B0006D6805F400351DB11C4D5543056002E023
:1004C000194D5543056002E0174D056000BF00BFA0
:1004D000144D6D6805F0F0010909154D6B5C056858
:1004E000DD4045600F4D6D6805F4E061090A104D6F
:1004F0006B5C4568DD4085600A4D6D6805F46051B0
:10050000C90A0B4D6B5C4568DD40C560054D6D68E3
:1005100005F44041890B074D6B5CC568B5FBF3F5ED
:10052000056130BD0010024000127A0000093D0054
:100530000400002014000020704710B500F002F8FD
:1005400010BD00000CB500200190009033480068F9
:1005500040F480303149086000BF3048006800F442
:10056000003000900198401C0190009818B9019843
:10057000B0F5A06FF1D12948006800F4003010B147
:100580000120009001E0002000900098012843D154
:100590002348006840F010002149086008460068C0
:1005A00020F0030008600846006840F00200086080
:1005B0001A4840681949486008464068486008463B
:1005C000406840F4806048600846406820F47C1031
:1005D00048600846406840F4E810486008460068F3
:1005E00040F08070086000BF0C48006800F00070A8
:1005F0000028F9D00948406820F003000749486006
:100600000846406840F00200486000BF0348406868
:1006100000F00C000828F9D10CBD000000100240C9
:1006200000200240042808D14FF0E021096941F080
:1006300004014FF0E022116107E04FF0E021096969
:1006400021F004014FF0E022116170477047000073
:1006500010B51348006840F00100114908600846D1
:100660004068104908400E494860084600680E4935
:1006700008400B4908600846006820F480200860A4
:100680000846406820F4FE0048604FF41F00886070
:10069000FFF753FF4FF000600449086010BD0000F1
:1006A000001002400000FFF8FFFFF6FE08ED00E03A
:1006B00000B599B040F22551144800F04FF890B1C0
:1006C000124800F007F9C1B2114802780078401CC6
:1006D0000F4B18700DF8021018460078642802DBE2
:1006E00000201946087040F22441084800F036F80E
:1006F00050B1064800F0EEF805480178684600F071
:100700004DFA00200249087019B000BD00380140C0
:10071000000000207047704701F40072B2F5007FBE
:1007200000D100BFCA430280704721B1828942F4E0
:100730000052828104E082894DF6FF731A40828163
:10074000704702460020B1F5007F00D100BF13883A
:100750000B400BB1012000E00020704770B502464D
:10076000002400230025002040F66A16B14200D183
:1007700000BFC1F3421501F01F03012606FA03F37F
:10078000012D02D19689334006E0022D02D1168A4E
:10079000334001E0968A33400C12012606FA04F435
:1007A0001688344013B10CB1012000E0002070BD68
:1007B000F0B50346002400260025002040F66A1705
:1007C000B94200D100BF1846C1F3421401F01F0620
:1007D000012707FA06F5012C01D10C3004E0022CA8
:1007E00001D1103000E014301AB107682F430760C0
:1007F00002E00768AF430760F0BD00002DE9F04755
:1008000086B005460E460024A24600BFA14600273A
:10081000B08900B100BF2F462C8A4CF6FF7004400F
:10082000F08804432C82AC894EF6F3100440B08863
:1008300031890843718908430443AC81AC8A4FF67F
:10084000FF400440B0890443AC8201A8FFF70AFED0
:100850001F48874202D1DDF810A001E0DDF80CA0AE
:10086000A88900F4004040B10AEBCA0000EB0A106E
:1008700031684900B0FBF1F807E00AEBCA0000EB71
:100880000A1031688900B0FBF1F86420B8FBF0F081
:1008900004012009642101FB1089A88900F40040AB
:1008A00040B1322000EBC900B0FBF1F000F00700CE
:1008B000044308E0322000EB09106421B0FBF1F0A2
:1008C00000F00F0004432C8106B0BDE8F087000063
:1008D0000038014001468888C0F308007047C1F322
:1008E00008028280704700BFFEE702E008C8121FBE
:1008F00008C1002AFAD170477047002001E001C109
:10090000121F002AFBD170470146002019E04FF06A
:10091000FF3200EB400303EB001301EB43035A806B
:10092000002200EB400303EB001321F81320FF2209
:1009300000EB400303EB001301EB43031A71421C6D
:10094000D0B20528E3DB704708B501210820FFF786
:1009500079FD4FF40070ADF8000010208DF8030011
:1009600003208DF8020069460648FFF789FC4FF422
:1009700000710448FFF71AFD40F2DC50FFF75BFC02
:1009800008BD0000000C014008B501211020FFF750
:1009900059FD4FF40050ADF8000010208DF8030011
:1009A00003208DF8020069460448FFF769FC4FF404
:1009B00000510248FFF7F8FC08BD0000001001409C
:1009C00010B504462046FFF731FD01231A460021E9
:1009D000252000F075FA10BD10B56FF00400FFF788
:1009E00021FE4FF0E020006940F002004FF0E021CE
:1009F00008610846006940F001000861092048616B
:100A000010BD000000B585B0012144F20400FFF7DD
:100A100019FD4FF40070ADF8100018208DF8130088
:100A200003208DF8120004A91948FFF729FC4FF4A0
:100A30008060ADF8100004208DF8130004A914485C
:100A4000FFF71EFC4FF4E13000900020ADF80400E9
:100A5000ADF80600ADF80800ADF80C000C20ADF8BC
:100A60000A0069460B48FFF7C9FE01210948FFF754
:100A70005CFE012240F225510648FFF799FE012253
:100A800040F224410348FFF793FE05B000BD00008B
:100A900000080140003801401CB5FFF79DFF4FF4EE
:100AA000A060FFF78DFFFFF7ADFFFFF76DFFFFF7CA
:100AB0004BFF1448FFF728FF22E000F047F90446F7
:100AC000E0B2FFF763FB0190200AFFF75FFB0090A5
:100AD000042301AA002140F2D17000F05DFA322017
:100AE000FFF7A9FB04236A46012140F2D17000F010
:100AF00053FA4FF47A70FFF79EFB00F0F3F900BF52
:100B0000DBE70000180000202DE9F04F0646DDE984
:100B10000A9CDDE90D48099F0C9D05F111001E2876
:100B200001DDBDE8F08F45F6582020801020A07030
:100B3000A4F80360A4F80510A4F80720A4F809306D
:100B4000A4F80B70A4F80D50002009E01CF800E098
:100B500004F10F0B0BF800E000F1010B0BF0FF00AC
:100B6000A842F3DB4FF0000A002008E014F800B0C0
:100B7000D3440BF0FF0A00F1010B0BF0FF0005F16D
:100B80000F0B8345F2DC04F10F0000F805A005F11E
:100B90001000A8F8000000BFC3E70000F0B595B052
:100BA00006460F46002501A802AB3A4631460090A2
:100BB0000AA800F0A1F900287ED100247FE004EB10
:100BC000440000EB0410424901EB4000B0F9020080
:100BD000BDF93010884230D1BDF8300004EB44013B
:100BE00001EB04113A4A02EB41014880BDF83200A2
:100BF00004EB440101EB041122F811009DF83400CC
:100C000004EB440101EB041102EB41010871BDF852
:100C1000040004EB440101EB041102EB4101888460
:100C200004EB440101EB041102EB4101481DBDF846
:100C3000042002A9FFF798FA44E004EB440000EB1B
:100C40000410234901EB4000B0F90200401C00B938
:100C50002546042C2FD1BDF8300005EB450101EBF2
:100C600005111B4A02EB41014880BDF8320005EB3B
:100C7000450101EB051122F811009DF8340005EB48
:100C8000450101EB051102EB41010871BDF80400BB
:100C900005EB450101EB051102EB4101888405EBF1
:100CA000450101EB051102EB4101481DBDF804208F
:100CB00002A9FFF759FA00E005E0601CC4B2052C58
:100CC000FFF67DAF01E015B0F0BD00BFFBE700000F
:100CD0001800002070B500240026002530E002E056
:100CE0000A20FFF7BDFA4FF400711748FFF753FBD6
:100CF00020B9701CC0B206460A28F1DB0026282065
:100D0000FFF7AEFA4FF400710F48FFF744FB20B134
:100D10006006040E44F0010401E06006040E02E0E7
:100D20000A20FFF79DFA4FF400710748FFF733FBE5
:100D300020B1701CC0B206460A28F1DB681CC5B29F
:100D4000082DCCDB204670BD000C01402DE9F0479A
:100D5000002400F09DF84FF400712C48FFF724FBAD
:100D60001920FFF768FA4FF400712848FFF71EFBBF
:100D700000F07EF802E00A20FFF772FA4FF40071EB
:100D80002248FFF708FB20B1601CC0B204460A28C5
:100D9000F1DB002402E00A20FFF762FA4FF4007151
:100DA0001A48FFF7F8FA20B9601CC0B204460A28B6
:100DB000F1DB002402E00A20FFF752FA4FF4007141
:100DC0001248FFF7E8FA20B1601CC0B204460A28B6
:100DD000F1DBFFF77FFF0546FFF77CFF8046FFF75B
:100DE00079FF0646FFF776FF8146FFF773FF074658
:100DF00005EB0800304400EB0901B94203D146EA93
:100E00000520BDE8F0874FF6FF70FAE7000C0140BF
:100E100070B504460D462946204600F019F870BD0D
:100E200070B504460D4640212046FFF775FC294663
:100E30002046FFF754FD00BF40212046FFF781FC0C
:100E40000028F9D040212046FFF766FC70BD000065
:100E500070B505460E46002405E0295D0348FFF7FE
:100E6000DFFF601C84B2B442F7DB70BD0038014084
:100E700008B54FF40070ADF8000048208DF803006D
:100E800069460248FFF7FCF908BD0000000C01406C
:100E900008B54FF40070ADF8000010208DF8030085
:100EA00003208DF8020069460448FFF7E9F94FF482
:100EB00000710248FFF77AFA08BD0000000C0140FB
:100EC000F8B504460D4616461F468DF800408DF8CD
:100ED00001508DF802608DF803706846FFF76EFAD6
:100EE000F8BD00000348C06880F400500149C860A4
:100EF0007047000000100140F0B504461D46059EF5
:100F0000088845F65827B84201D0FF20F0BDA2F16D
:100F10001107C889874201DDFF20F7E70023002081
:100F200004E00F5C1F44FBB2471CF8B2571E874217
:100F3000F7DC501E085C984201D0FF20E6E7887875
:100F4000102826D1A2F110001E2801DDFF20DDE7C8
:100F5000B1F803006080B1F80500A080B1F8070087
:100F6000E080B1F8090000B22081B1F80B00608187
:100F7000487B40B22073C8893080002005E000F132
:100F80001007CF5D2F54471CF8B2A2F1100787421B
:100F9000F5DC0020BAE70000F0B587B004460D4646
:100FA00016461F460B480C49CDE90267CDE90410EF
:100FB0004FF0FF30234600221146CDE90050104685
:100FC000FFF7A2FD0348008881B20348FFF720FF26
:100FD00007B0F0BD02000020D6000020FC0F000882
:100FE0000000002018000000EA08000814100008A3
:100FF00018000020E0040000FA08000800000000CB
:1010000000000000010203040102030406070809AE
:0410100002040608C8
:0400000508000131BD
:00000001FF
